S01E0000555342585F4D6173735F53746F726167655F486F73742E73726563A0
S31500000000F020002081760000F97000007D76000067
S315000000107D7600007D7600007D7600000000000001
S315000000200000000000000000000000007D760000D7
S315000000307D7600000000000015E20000BDE2000031
S31500000040B95A0000B95A000009070000FFFFFFFF78
S31500000050FFFFFFFFFFFFFFFFFFFFFFFFFFFFFFFFAA
S31500000060FFFFFFFFFFFFFFFFFFFFFFFFFFFFFFFF9A
S31500000070FFFFFFFFFFFFFFFFFFFFFFFFFFFFFFFF8A
S31500000080FFFFFFFFFFFFFFFFFFFFFFFFFFFFFFFF7A
S31500000400FFFFFFFFFFFDFFFFFFFFFFFFFFFFFFFFF8
S31500000410FFFFFFFFFFFFFFFFFFFFFFFFFFFFFFFFE6
S31500000420FFFFFFFFFFFFFFFFFFFFFFFFFFFFFFFFD6
S31500000430FFFFFFFFFFFFFFFFFFFFFFFFFFFFFFFFC6
S31500000440FFFFFFFFFFFFFFFFFFFFFFFFFFFFFFFFB6
S31500000450FFFFFFFFFFFFFFFFFFFFFFFFFFFFFFFFA6
S31500000460FFFFFFFFFFFFFFFFFFFFFFFFFFFFFFFF96
S31500000470FFFFFFFFFFFFFFFFFFFFFFFFFFFFFFFF86
S31500000480FFFFFFFFFFFFFFFFFFFFFFFFFFFFFFFF76
S31500000490FFFFFFFFFFFFFFFFFFFFFFFFFFFFFFFF66
S315000004A0FFFFFFFFFFFFFFFFFFFFFFFFFFFFFFFF56
S315000004B0FFFFFFFFFFFFFFFFFFFFFFFFFFFFFFFF46
S315000004C0FFFFFFFFFFFFFFFFFFFFFFFFFFFFFFFF36
S315000004D0FFFFFFFFFFFFFFFFFFFFFFFFFFFFFFFF26
S315000004E0FFFFFFFFFFFFFFFFFFFFFFFFFFFFFFFF16
S315000004F0FFFFFFFFFFFFFFFFFFFFFFFFFFFFFFFF06
S315000005003CFBFE1F2000070040FBFE1F21040700E6
S3150000051044FBFE1F73013321200000002000010070
S315000005202F0000002F0001000C0001001100000048
S31500000530300000003000010024000000240001000B
S315000005402400020024000300240004002400050007
S315000005501300000017000000230000002100000027
S31500000560210001000700000007000100070002004B
S315000005700700030007000400070005000700060047
S3150000058007000700120000004400000008000000F9
S315000005900B00000041000000400000004000010088
S315000005A004000000430000002B0000002B000A009E
S315000005B02B000B002B000C002B000D002B00010064
S315000005C02B0002002B0003002B0004002B0005006B
S315000005D02B0006002B0007002B0008002B0009004B
S315000005E00600000006000A0006000B0006000C00CC
S315000005F006000D0006000E0006000F0006000100B2
S3150000060006000200060003000600040006000500BE
S31500000610060006000600070006000800060009009E
S315000006201500000015000100150002003100000051
S315000006302A00000045000000100000000301000031
S3150000064003000000030001000F0000000D00000081
S315000006502D000000420000002C0000002C000100CC
S315000006602C0002002C0003003200000028000000CD
S31500000670180000001400000014000100140002001D
S315000006801400030014000400140005001400060002
S3150000069014000700140008001400090034000000CC
S315000006A034000100160000001600010035000000AD
S315000006B03600000036000100220000003300000072
S315000006C0330100002900000010B5054C237833B92A
S315000006D0044B13B10448AFF300800123237010BD0F
S315000006E07802FE1F00000000185F010008B5034BEA
S315000006F01BB103490348AFF3008008BD00000000AA
S315000007007C02FE1F185F010010B582B0EFF3058072
S315000007100CF0DCFE114B1B68996871B11B69104C1B
S31500000720002002E00130884207D0DA6EA24203F1CF
S315000007309403F7D102F062FE01E000F0D3FBEFF381
S315000007400383A3F1100040B2019306F06FFEEFF3AE
S31500000750058002B0BDE810400CF0B6BE2C000020AB
S3150000076000000640F8B50F4630210446154600F055
S3150000077037FD4FF4E06230210646204600F020FDAA
S315000007803A21204600F02CFD012D10D0BB68012235
S315000007909A4020EA0202204692B23A2100F02AFD4F
S315000007A0B2B220463021BDE8F84000F023BDBA6859
S315000007B005FA02F20243EEE7F8B50F463021044689
S315000007C0154600F00DFD4FF4E06230210646204646
S315000007D000F0F6FC3621204600F002FD012D10D077
S315000007E0BB6801229A4020EA0202204692B23621D4
S315000007F000F000FDB2B220463021BDE8F84000F01E
S31500000800F9BCBA6805FA02F20243EEE7CB6870B5A6
S315000008100C4605461646042B12D8DFE803F02C1DBD
S3150000082003033B00202100F0DBFCA26820F44060BB
S3150000083020F00F00024392B22021284600F0DAFC95
S3150000084004240021284600F0CBFC0421284600F0B1
S31500000850C7FC013CF5D170BD2C2100F0C1FCA2689B
S3150000086020F4406020F00F00024392B22C2128466B
S3150000087000F0C0FCE4E7282100F0B2FCA26820F4F6
S31500000880406020F00F00024392B22821284600F073
S31500000890B1FCD5E7202100F0A3FCA26820F4426059
S315000008A020F00F003243C5E738B58B680C463BB9DC
S315000008B05C2100F095FCC30513D4A36AD86938BD42
S315000008C005460F22642100F07BFC2289642128461C
S315000008D000F090FC5C21284600F082FCA36AD869EF
S315000008E0EDE74FF4807038BD38B58D68044655B9CC
S315000008F00322602100F064FC6021204600F070FCB9
S315000009008206F9D438BD37356D000322294600F03A
S3150000091057FC2946204600F063FC8306F9D438BD0F
S3150000092070B506460D46FFF771FF0824EB68012BEC
S3150000093013D04FF02A013046A3F1020308D800F085
S315000009404FFC00F4005313B9013CEFD1FF2070BDFA
S31500000950022B4FF02201F2D9F6E72E21304600F0A5
S315000009603FFC00F40053EEE74368DBB110B4C26805
S31500000970042A83B017D00A88002B92B201920DDDAB
S31500000980036801A9002211F801CB83F800C00368AF
S3150000099044680132013394420360F4DC03B05DF82D
S315000009A0044B704770470A680192002BF6DD036816
S315000009B001A9002211F801CB83F800C0036844683E
S315000009C001320133A2420360F4DB03B05DF8044B4D
S315000009D0704700BF70B50C4619462368DB0706460C
S315000009E0154624D463680222E2605A08A3EB420348
S315000009F0C4E901324FF4806200F0F6FB1C4BD6F8D6
S31500000A00FC229A422ED0A6685EB120683346024682
S31500000A10298822F8021B013BFAD100EB4600206030
S31500000A20A36029462046BDE87040FFF79DBF00221F
S31500000A3000F0DAFB0E4BD6F8FC229A420DD0636822
S31500000A4053B123682A781A70D4E90030013301388B
S31500000A50C4E900300028F5D170BD63680335002B6A
S31500000A60EFD1F9E7A6680235002ECED1D9E700BF4F
S31500000A70000006402DE9F041D0F8FC72174EB7424F
S31500000A8001D0BDE8F0810E68B5070C4622D19C4620
S31500000A904B6815469A08A3EB8203C4E90132042386
S31500000AA061464FF40062E36000F09EFBA6685EB10B
S31500000AB0206833460246296842F8041B013BFAD1F6
S31500000AC000EB86002060A36029462046BDE8F04181
S31500000AD0FFF74ABFBDE8F041FFF77CBF00000640C4
S31500000AE02DE9F041002286B0D0F8FC6205460F469B
S31500000AF0FFF716FFFF28044617D0BB6AC0F30B04A6
S31500000B00D3F81C80BC61394628460294FFF7ECFEF8
S31500000B103C69029B9C420CD2029444BB07244FF4CE
S31500000B2080422221284600F065FB204606B0BDE83B
S31500000B30F081BBB1B3FBF8F208FB1233002B14BFF4
S31500000B40042402240B4BD5F8FC12FA69019299424F
S31500000B5006F114024FF0200301A9284604D0FFF73E
S31500000B6039FFDCE70424DAE7FFF784FFD7E7072439
S31500000B70E8E700BF000006402DE9F047CB68D0F853
S31500000B80FC6286B089460546002B4BD0012B44D02B
S31500000B90222714364FF02008002249462846FFF740
S31500000BA0BFFEFF2804461AD0D9F82830C0F30B043C
S31500000BB0D3F81CA0C9F81840494628460294FFF706
S31500000BC093FED9F81020029B9A420CD20292072477
S31500000BD0A2B94FF480423946284600F00BFB204666
S31500000BE006B0BDE8F0870BB90424F2E7B3FBFAF2CE
S31500000BF00AFB1233002B14BF04240224D9F81C303C
S31500000C00D5F8FC2201930B4B9A4201A94346324682
S31500000C1028460CD0FFF7DEFEDBE72E271C364FF00A
S31500000C202C08B9E72A2718364FF02808B4E7FFF74B
S31500000C3021FFCEE700000640F8B50C4619462368AA
S31500000C40DB070646154630D463680222E2605A087E
S31500000C50A3EB4203C4E901324FF4806200F0C4FA08
S31500000C60D6F8FC72214BA6689F423AD076B120682E
S31500000C703346024632F8021B2980013BFAD11B4A51
S31500000C80A36000EB4600974220602DD063685BB1FD
S31500000C9023681B7805F80139D4E90031013301399D
S31500000CA0C4E900310029F4D1F8BD002200F09CFA15
S31500000CB00E4BD6F8FC229A420ED06368002BF3D076
S31500000CC023681B782B70D4E9003101330139C4E95C
S31500000CD000310029F5D1F8BD63680335002BEFD14B
S31500000CE0E2E70235002EC2D10335CFE70000064009
S31500000CF02DE9F0410C461546D0F8FC121F4A9142E8
S31500000D00064606D02A4621463046BDE8F041FFF7A2
S31500000D1093BF22689207F5D1194663680422E26000
S31500000D209A08A3EB8203C4E901324FF4006200F093
S31500000D305BFAA7685FB120683B46024652F8041B7F
S31500000D402960013BFAD100EB87002060A3600B4BC2
S31500000D50D6F8FC229A42636808BF03355BB1236864
S31500000D601B7805F80139D4E900320133013AC4E9A8
S31500000D700032002AF4D1BDE8F08100BF0000064031
S31500000D8030B5202287B005460C46FFF7C9FDFF287F
S31500000D9017D0A26A2369D169D5F8FC228B4212D8F2
S31500000DA0E1696361CDE901131432202301A92846C4
S31500000DB0FFF79EFF28464FF40042222100F01AFA60
S31500000DC0032007B030BDE3690193616128460291B3
S31500000DD02023143201A9FFF78BFF022007B030BD94
S31500000DE02DE9F041002286B006460C46FFF798FD35
S31500000DF0FF28054621D021463046FFF755FDA26A59
S31500000E002369D769D6F8FC22BB4298BF1846E36827
S31500000E1002908CBF0225032503B3012B23D0143285
S31500000E2020234FF02208E16960610191304601A953
S31500000E30FFF75EFF2369BB4203D3284606B0BDE831
S31500000E40F0814146304600F0CBF90304F5D44FF467
S31500000E5000424146304600F0C7F9EEE71832282333
S31500000E604FF02A08DFE71C322C234FF02E08DAE772
S31500000E7038B51A4D1A492C68D4F8A031012B0CBF8D
S31500000E80D4E94C03D4E94E030E22C4E94A0304F123
S31500000E9024030EF051FAE36BD4F89810C4F89C10B2
S31500000EA004F15C024FF47A70C4F8D800C4F89420B8
S31500000EB0A367C4F8A0300E21A369204698472A6884
S31500000EC0D2F8C421002302212366C4F8B410C4F862
S31500000ED0EC300AB101209047002038BD28000020E0
S31500000EE02401FE1F2DE9F047DFF8D092D9F80080E3
S31500000EF0D8F81C504021284600F072F943040746F2
S31500000F000CD5D9F80030D3F8C4310BB10520984779
S31500000F104BF6FF724021284600F06CF93E0400F1C2
S31500000F20D880FC0400F1A980780576D4F90545D46B
S31500000F30BA0514D43B0501D4BDE8F087E96A4FF43D
S31500000F400062303107F00703284600F057F92846BB
S31500000F504FF2FF72BDE8F047402100F04BB948213F
S31500000F60284600F03DF938218046284600F038F939
S31500000F7005F53576824605F53F79012404E0043609
S31500000F804E454FEA4404D5D018EA040FF7D01AEAC2
S31500000F90040FF4D0E243284692B2482100F02AF921
S31500000FA0336803EBC30305EBC3034FF40072D96A3E
S31500000FB028463031002300F021F9E0E74621284693
S31500000FC000F00EF936218046284600F009F905F5AD
S31500000FD03576824605F53F79012404E004364E4510
S31500000FE04FEA4404A4D018EA040FF7D01AEA040F13
S31500000FF0F4D0E243284692B2462100F0FBF833686B
S3150000100003EBC30305EBC3034FF48072D96A28468A
S315000010103031002300F0F2F8E0E74A21284600F0DC
S31500001020DFF83A218046284600F0DAF805F53576ED
S31500001030824605F53F79012405E004364E454FEA20
S3150000104044043FF473AF18EA040FF6D01AEA040F0B
S31500001050F3D0E243284692B24A2100F0CBF8336837
S3150000106003EBC30305EBC3034FF48062D96A28463A
S315000010703031002300F0C2F8DFE74EF6FF72402160
S31500001080284600F0B7F807F07003202B62D01AD874
S31500001090002B3FF449AF102B4FD1D8F82030032B4B
S315000010A071D00821284600F09BF800F007000228BE
S315000010B063D003285BD0012853D0FFF7D9FE012364
S315000010C0C8F8203030E7302B37D10323C5F8043376
S315000010D02AE747F6FF724021284600F08BF84021A8
S315000010E0284600F07DF840210646284600F078F8AC
S315000010F0044606F080064021284604F0800400F0ED
S315000011006FF8A642EBD100F080008642E7D12A4B69
S31500001110D8F810203EB19A4238D010220021284635
S3150000112000F062F8FDE69A4237D0102200212846E8
S3150000113000F046F80DF05EFDF3E6D8F82030002BFF
S315000011403FF4F2AED9F80020D2F8C43163B30420DC
S315000011509847E9E65021284600F042F8C8F81400FE
S31500001160E2E6D9F800300022C3F8A021A5E7D9F8B5
S3150000117000300222C3F8A0219FE7D9F800300122EF
S31500001180C3F8A02199E70DF035FD8AE74FF4807288
S315000011900021284600F028F8BFE731464FF4807258
S315000011A0284600F00DF8C0E7D2F8AC31002B7FF4EA
S315000011B0BBAE0DF01FFDB7E600000640280000207C
S315000011C0D0F8FC020B5A23EA02020A52704700BF0B
S315000011D0D0F8FC32D243C2F309025A52704700BF1C
S315000011E0D0F8FC32585A7047D0F8FC32C85A02433D
S315000011F0CA527047D0F8FC325A5270472DE9F04176
S315000012008F68B2F5006FBE680C4605464CD0B2F545
S31500001210807F07D0B2F5806F04D04FF000084046BB
S31500001220BDE8F081A36A022B00F00181D4F81C808E
S31500001230B8F1000F00F0CF80FB69B768984528BF6A
S3150000124098462369F361C6F8148031462846002F74
S3150000125040F04C81FFF794FD02280CBF01223A466C
S3150000126031462846FFF7A8FA314601222846FFF7FD
S3150000127079FA3369B168A3EB080333612369434400
S315000012802361E369A3EB0803E361A3694344A36114
S31500001290002900F023810122373191402846FFF7CB
S315000012A0A3FF4FF00008BAE7013B052BB5D801A212
S315000012B052F823F0CD1200001B120000CD120000E0
S315000012C01B120000CD120000251400004FF6F77225
S315000012D04021FFF78FFF54212846FFF781FF81B297
S315000012E004F154000EF0E4F956212846FFF778FF82
S315000012F081B204F156000EF0DBF958212846FFF7BB
S315000013006FFF81B204F158000EF0D2F95A21284637
S31500001310FFF766FF04F15A0781B238460EF0C8F9A6
S315000013200023A361636294F954300122002B6260AA
S31500001330C0F2368194F85A3023B994F85B30002B0A
S3150000134000F02E810223A36238460EF0AFF9E3685F
S315000013504FF00008C4E90430032260212846C4F88F
S315000013601880FFF72DFFB268012707FA02F292B242
S315000013704A212846FFF72CFFB26807FA02F292B21A
S3150000138046212846FFF724FF4FF4804222212846B3
S31500001390FFF730FF424631462846FFF737FA3A460E
S315000013A031462846FFF708FA3A4660212846FFF7F5
S315000013B01BFF94F95430002BC0F2F68094F85A3093
S315000013C023B994F85B70002F00F008810223736044
S315000013D04FF0000823E7276D012F40F08A80B3689D
S315000013E0C6F8108031462846002B00F0A180FFF792
S315000013F0F7FC022800F0EC80424631462846FFF70B
S31500001400DBF93A4631462846FFF7ACF9B1680029C0
S3150000141040F0CF80012260212846FFF7E5FE002339
S315000014202365FCE6002373604FF0FF08F7E695F8A6
S315000014308833D6F80880FF2B00F09180FB6962693B
S31500001440934228BF134633612369F3613146284628
S31500001450B8F1000F62D1FFF743FB022862D00022E9
S3150000146031462846FFF7A8F9B26923696169134432
S315000014702361E3699B1AE361A36913448B42A36169
S3150000148002D0FB69934225D0002767623A4631466F
S315000014902846FFF791F9D6F80880B8F1000F40F01A
S315000014A08F807368022B7FF4B8AE20460DF078F972
S315000014B003237360E36A0BB1204698470023E36178
S315000014C063610323A3620522736060212846FFF748
S315000014D08BFEA4E6B16800297FF4DDAE012260210F
S315000014E02846FFF781FE4FF0000898E6FFF778FCE4
S315000014F0BAE6C4F82480424631462846FFF732F958
S31500001500B3682BBB7268012A74D0E36A002B3FF4E0
S3150000151084AE204698474FF0000880E6FFF72CFB84
S3150000152002289CD1012231462846FFF745F99BE760
S31500001530FFF726FC02280CBF3A46424631462846AB
S31500001540FFF73AF9012231462846FFF70BF95DE726
S315000015500223236006F12C000EF0A6F85FE6D5F80C
S315000015608C3343457FF46AAFD5F878333733590067
S3150000157003222846FFF724FE4FF480522C212846EA
S31500001580FFF71EFE002231462846FFF715F9002315
S31500001590C5F8843385F88833C5F88C3398463EE61B
S315000015A020460DF0FDF804E7012373604FF00008B4
S315000015B035E60122373191402846FFF715FE2EE722
S315000015C00223236006F12C000EF06EF8B84626E6DC
S315000015D03A4631462846FFF7EFF817E70323E76157
S315000015E06761A3620522736060212846FFF7FCFD50
S315000015F0B84614E60322A262E3616361284672607C
S3150000160060210522FFF7F0FD7FE700BF2DE9F047D7
S31500001610814600F1D80400F580780026222754F888
S31500001620043FCBB1A56A6A69926902F00302012AF6
S3150000163012D0DA0726D498071ED4590716D49A066C
S315000016400ED4580606D5696823F040038A682360DD
S315000016506A60CE6119061BD44445E0D1BDE8F08727
S315000016602946484600F02CFA2368EAE72946484608
S3150000167000F02CF82368E2E72946484600F0B4F962
S315000016802368DAE72946484600F0BEF82368D2E721
S3150000169023F0800323606B68DA691203DCD52968BE
S315000016A0D3F80CA08B4205D01A469B68D6618B42B4
S315000016B0FAD16B60DAF82430CAF834700BB15046B0
S315000016C098470AF144000DF0EFFFC5E74A6AF8B5FE
S315000016D00D4600EB82016C68D1F8DC3023F005037F
S315000016E0C1F8DC30E369190300D4F8BD92B2642175
S315000016F0064602F0EFFD2B6AE768002B4CD1032269
S315000017006021304602F0D0FD6021304602F0D8FD5F
S3150000171000F00303023B012B50D92B6A002B56D154
S3150000172000222946304600F04FFA00237B63636AA5
S31500001730B3F1004F56D062683B69796B13443B6145
S3150000174059B9F9688B4208D03AB16B69DB69B2FBCB
S31500001750F3F103FB1122002A51D0E36913F480212F
S315000017602FD12A68944213D16B689A42BDD17B6A05
S315000017700BB13846984707F14400BDE8F8400DF034
S3150000178093BFA3686B60E1611C469442ECD0E369A9
S315000017909B03F6D4A468F8E7696A37314900032247
S315000017A0304602F081FD696A37314900304602F061
S315000017B087FD00F00303023B012BAED821237B6398
S315000017C0B5E7A3682A686B600021E161CDE7696A25
S315000017D03731490001F48041304602F071FD00289E
S315000017E09ED0A2E7696A37313046490002F068FDAB
S315000017F010F040001ABF0123AB61A8619BE7A36804
S315000018006B60E261F8BD00BF4A6A2DE9F8430D46F8
S3150000181000EB82016C68D1F8DC3023F00503C1F8D7
S31500001820DC30E3691E0324D5D5F82080E768064638
S31500001830B8F1000F1FD092B2642102F04BFD636A2B
S31500001840B3F1004F79D0696A373149000322304637
S3150000185002F02AFD236AB3F5006F29D162683B695D
S315000018601344FA683B61934274D0A2686A6000230D
S31500001870E361BDE8F8830322602102F015FDE36908
S3150000188013F480390ED1990346D5236AB3F5006F58
S315000018906BD1A3686B6062683B69C4F81C90134403
S315000018A03B61E6E7A3686B60C4F81C80BDE8F8837B
S315000018B02946304600F0DCF9D4F818803B694344E9
S315000018C03B614FF480423046222102F0FDFCD7E90D
S315000018D003329A420AD0B8F1000F07D06B69DB6970
S315000018E0B8FBF3F203FB1283002B71D02A689442F3
S315000018F006D000212346A468D9619442FAD16C60CF
S315000019007B6A00227A630BB13846984707F1440098
S31500001910BDE8F8430DF0C8BE5B03AAD5236AB3F54C
S31500001920805F59D0A3687A6A6B600023E3617B63AA
S31500001930002AEBD038469047E8E7696A3731490014
S31500001940304602F0BDFC10F040001ABF0123AB6127
S31500001950A86178E77B6A00227A630BB1384698471C
S3150000196007F144000DF0A0FE7FE72946304600F05F
S315000019707FF93B693046A66933443B614FF48042A8
S31500001980222102F0A1FCD7E90321A3686B609142F2
S31500001990C4F81C903FF46DAF46B16A69D269B6FBD4
S315000019A0F2F102FB1166002E3FF463AF29688B4209
S315000019B03FF45FAF002006E09A686A60D86113467C
S315000019C08B423FF456AFDA699203F5D49B68F7E78A
S315000019D0A2686A60E3614CE74FF4804230462221F8
S315000019E002F072FC9EE700BF4A6A2DE9F0410D46FF
S315000019F000EB82016C68D1F8DC3023F00203C1F8F9
S31500001A00DC30E3691B0346D52B6AE76880468BB357
S31500001A1092B2642102F05EFC696A373149004046A1
S31500001A2002F04EFC696A37310646490003224046F9
S31500001A3002F03AFC06F00303023B012B28D9E36AC5
S31500001A405A1C032BE26228D922237B632A6894421C
S31500001A5006D000212346A468D9619442FAD16C606D
S31500001A607B6A0BB13846984707F14400BDE8F04160
S31500001A700DF01ABE602102F023FC03220646602107
S31500001A80404602F011FC06F00303023B012BD6D8B8
S31500001A9021237B63DAE7BDE8F0812B6A33B9404640
S31500001AA00122BDE8F041602102F00EBC696A012204
S31500001AB0373140469140BDE8F04102F005BC00BF19
S31500001AC04B68DA69120317D570B50C68DE68A34255
S31500001AD006D000251A469B68D561A342FAD14B6011
S31500001AE0736A222272630BB13046984706F14400AE
S31500001AF0BDE870400DF0D8BD704700BF70B5C56A2F
S31500001B000646DDB12C4601E0A5420CD0D4E90023FF
S31500001B109A4202D0DB691B0306D5A468002CF3D1D8
S31500001B20B46A002CF0D170BD2146304602F03AFE70
S31500001B300028F2D1A4682CB1F462E5E7856A002D8D
S31500001B40E0D170BDB46AF462002CDDD1EBE700BFD2
S31500001B50F8B58C6884B3236943F080432361054656
S31500001B6001200DF031FAD4E902321AB39360002154
S31500001B70E96203B1DA60D4E90023934205D000217B
S31500001B80D9619B689342FBD162600026D661EFF370
S31500001B90108772B66421A28C284602F09BFB4FF494
S31500001BA040422846682102F07FFB87F310882661B1
S31500001BB03046F8BDAB62DAE75322012102200DF070
S31500001BC045FB5320F8BD00BFF8B50F46302104464B
S31500001BD0154602F075FB4FF4E062302106462046BA
S31500001BE002F062FB3A21204602F06AFB012D10D07A
S31500001BF07B6A01229A4020EA0202204692B23A21EA
S31500001C0002F068FBB2B220463021BDE8F84002F08F
S31500001C1061BB7A6A05FA02F20243EEE7F8B50F46AF
S31500001C2030210446154602F04BFB4FF4E0623021AA
S31500001C300646204602F038FB3821204602F040FBDB
S31500001C40012D10D07B6A01229A4020EA020220462A
S31500001C5092B2382102F03EFBB2B220463021BDE8F6
S31500001C60F84002F037BB7A6A05FA02F20243EEE761
S31500001C7070B505460E4600F0BDFC0428044609D89A
S31500001C80022815D808D101223146284600F01CF852
S31500001C90204670BD0528FBD031462846002200F0BC
S31500001CA013F8284600223146FFF78EFF204670BD06
S31500001CB031462846002200F007F828460122314620
S31500001CC0FFF782FF204670BDF8B50F463021044667
S31500001CD0154602F0F5FA4FF4E0623021064620463A
S31500001CE002F0E2FA3621204602F0EAFA012D10D07F
S31500001CF07B6A01229A4020EA0202204692B23621ED
S31500001D0002F0E8FAB2B220463021BDE8F84002F00F
S31500001D10E1BA7A6A05FA02F20243EEE770B50C46BA
S31500001D2010225C21064602F0CFFAA36A012B22D9C3
S31500001D30022B1ED12146304600F03CFE0546042DFE
S31500001D4009D8022D1FD808D1012221463046FFF7B7
S31500001D50BBFF284670BD052DFBD02146304600222C
S31500001D60FFF7B2FF304600222146FFF72DFF284637
S31500001D7070BD0025F1E72146304600F081FE05469C
S31500001D80042DDED9E7E7214630460022FFF79CFF07
S31500001D90304601222146FFF717FF284670BD00BFD7
S31500001DA02DE9F047044689460125AFB23A4664213B
S31500001DB0204602F08FFA6821204602F081FA10F4DC
S31500001DC0404FC0F3813807D00135062DEDD14FF0D5
S31500001DD0FF084046BDE8F087204600F0DBFA0646DD
S31500001DE0002800F0D080204602F078FA002800F0A3
S31500001DF0BD80A36A75624FF40072C9F80860C9F81D
S31500001E005C20C6E90000C6F81490B360A66203B170
S31500001E10DE60D9F814202B01083B05F1370102F0EA
S31500001E200F093363082312F0800FF36220464FF048
S31500001E300002C6F820904FEA410114BF154610254E
S31500001E4002F042FA716A3731204649004FF40072B7
S31500001E5002F03AFA716A373149004FF400722046AF
S31500001E6002F022FAEFF3108A72B664213A4620464F
S31500001E7002F030FA4C4B62689A4214D1002D3CD0E5
S31500001E8045EA090242F483426821204602F022FA1A
S31500001E90F26A531E326B42EA832292B26A212046CC
S31500001EA002F018FA07E045EA090242F48142682185
S31500001EB0204602F00FFA7069C36AC269DB68402ADD
S31500001EC04FEA033303D9394F6168B9424BD092B216
S31500001ED01A4392B26C21204602F0FCF9324B62683A
S31500001EE09A4211D0D4F82C31002B44D025B3336A52
S31500001EF0002B45D00023B36225E049F487426821D0
S31500001F00204602F0E7F9C3E7002D41D1716A23317B
S31500001F102A468900204602F0DDF9716A89008E3171
S31500001F200122204602F0D6F9716A233189004FF466
S31500001F300072204602F0CEF9D4F8303103B3336A8A
S31500001F40F3B10123B362736A04EB83032046C3F83B
S31500001F5004614FF400522C2102F0B6F98AF310887E
S31500001F604046BDE8F0874022C261B1E7C6F810805E
S31500001F704FF013082DE7D4F830310BB1002DDED029
S31500001F800223B362DFE74FF014084046BDE8F0874E
S31500001F90716A233189000022204602F09BF9D4F8A9
S31500001FA02C31002BA3D1EBE70000064000000940CE
S31500001FB0F8B54F688A8CFB690C4643F40023FB6135
S31500001FC06421054602F086F9616A37310322490029
S31500001FD0284602F069F9626A012606FA02F292B20E
S31500001FE04A21284602F066F9626A06FA02F292B2BD
S31500001FF04621284602F05EF93B6AB3F5805F1DD0A4
S31500002000B3F5006F01D00020F8BDA369616A002B0B
S315000020103DD0373180224900284602F055F9214645
S315000020202846FFF77BFEFF28EDD0616A0122373193
S315000020302846914002F048F90020F8BDA369616A7C
S31500002040EBB1373180224900284602F03DF921469E
S3150000205028460122FFF738FE214628460122FFF7CF
S31500002060DDFD616A012237312846914002F02CF9E4
S31500002070606A05EB8000C0F804410020F8BD3731E6
S315000020804FF48072B140284602F01EF9DFE737317F
S315000020904FF480724900284602F016F9BFE700BFE8
S315000020A0F8B54FF40073CB65CF6A0D46064600F0CF
S315000020B071F980B30446304602F010F968B3B36A8A
S315000020C0AC60C4E900006561A360B46203B1DC6082
S315000020D0EB6900229B09C4E90B320223A362D7F8FD
S315000020E0203162622BB1D7F81821DB68120242EA6E
S315000020F0C3233A69012A0BD0022A06D143F0C00352
S31500002100A3860020C6F80441F8BD43F04003F7E774
S3150000211043F08003F4E71420F8BD20611320F8BDD6
S315000021202DE9F0414F68FD6945F4002315F480352B
S315000021300E460446FB6109D13B6AB3F5805F7ED04B
S31500002140B3F5006F5CD00020BDE8F0814B698A8E44
S31500002150DB6ADD6805F168084FEA4808414602F087
S31500002160B9F8D221204602F0ABF800F0C000802872
S3150000217000F0998020464FF470425E2102F094F8F8
S315000021802A03204602F470425E2102F09DF84FF4C5
S3150000219080726021204602F097F838680DF086FAC2
S315000021A0542182B2204602F095F8386802300DF0CC
S315000021B07DFA562182B2204602F08CF83868043047
S315000021C00DF074FA582182B2204602F083F838687E
S315000021D006300DF06BFA5A2182B2204602F07AF8E8
S315000021E02046C4F804618022602102F06DF8204682
S315000021F04FF48042602102F067F80020BDE8F081CC
S315000022004FF48042222102F05FF80322602120462B
S3150000221002F04AF87B6A002B5ED14FF4807260218F
S31500002220204602F051F831462046FFF777FDFF2899
S3150000223089D001226021204602F046F883E7032276
S31500002240602102F031F82A463146204600F050F867
S315000022507B6A13BB4FF480726021204602F034F88B
S31500002260204610225C2102F01FF820464FF48042DF
S31500002270222102F02FF8314620460122FFF7A4FC66
S31500002280314620460122FFF71FFD2046012260212C
S3150000229002F01AF80020BDE8F08180226021204675
S315000022A002F012F8DCE74146204602F009F8414602
S315000022B08046204602F004F800F0C003402B7FF46D
S315000022C059AF18F4E06F3FF455AF4FF480723C21DC
S315000022D0204601F0F9FF4DE780226021204601F0FB
S315000022E0F3FFA0E70368012200201A64704700BFCD
S315000022F08B6A012B70B50C460646154603D0022B99
S3150000230023D08BB170BD2C2101F0DAFFA28C20F412
S31500002310406020F00F002A43024392B230462C213F
S31500002320BDE8704001F0D6BF282101F0C9FFA28C9C
S3150000233020F4406020F00F002A43024392B2304658
S315000023402821BDE8704001F0C5BF202101F0B8FF8B
S31500002350626A20F4426020F00F002A43024392B2E0
S3150000236030462021BDE8704001F0B4BF38B50B6A95
S315000023700C4613B96369D86938BD05460F22642136
S3150000238001F092FF2846A28C642101F0A3FF636945
S31500002390D86938BD0E4B1B68DA6910B5C469A2B19D
S315000023A0002303E0934204F138040BD02169013382
S315000023B00029F7D1382220460DF01CF901232361AC
S315000023C0204610BD0024204610BD1446F8E700BF85
S315000023D02C000020496A19B90322602101F064BF6C
S315000023E037310322490001F05FBF00BF8B68002030
S315000023F0986170470B461146026C10B57AB1013BE5
S31500002400446F112B00F29F80DFE803F0433E39341E
S315000024102F2A25205C57524D6F61741B1510022020
S31500002420552201210CF012FF552010BD6068BDE851
S31500002430104002F083BAD4F8D430012B72D00020B9
S3150000244010BD2046BDE81040FFF7D0BF2046BDE8CE
S31500002450104001F07BBE2046BDE8104001F01CBFD5
S315000024602046BDE8104001F019BF2046BDE81040E7
S3150000247001F016BF2046BDE8104001F0F7BD20462A
S31500002480BDE8104001F004BE2046BDE8104001F052
S315000024905FBE606802F00CFA0028C6D12046BDE88F
S315000024A01040FFF71FBF2046BDE8104002F056B9A6
S315000024B0204600F02DFC002010BD2046BDE810404F
S315000024C000F0F8BB2046BDE8104001F003BE8B6962
S315000024D003F00303022B204620D0032B1AD0012B36
S315000024E014D0BDE81040FFF7DBBD2046BDE8104024
S315000024F002F064B98B69DB07204603D4BDE81040BF
S31500002500FFF726BBBDE8104001F0F4BCBDE8104063
S3150000251001F05CBBBDE8104000F0AEBEBDE8104067
S31500002520FFF73EBC204601F05DF92046FFF76EF846
S31500002530204601F0DFFA204601F01CFD2046FFF799
S31500002540DDFA002010BD5422012102200CF07EFE8F
S31500002550542010BD70B506460D46FFF7C9FE04248B
S31500002560AB6A012B18D0022B0DD01BB1013CF7D161
S31500002570FF2070BD2A21304601F0A2FE00F4005370
S31500002580002BF3D070BD2221304601F099FE00F4F5
S315000025900053002BEAD0F5E72E21304601F090FEDD
S315000025A000F40053002BE1D0ECE700BFF8B5164667
S315000025B007460D464FF44062316801F075FE3168FA
S315000025C00022384601F080FE6B685BB12B687168AB
S315000025D009781970D5E900340133013CC5E90034A6
S315000025E0002CF4D1B16838464FF48042BDE8F8407B
S315000025F001F06ABE2DE9F0418B6A8AB00E460546A7
S31500002600002B61D0012B67D0436820211433CDE91C
S31500002610031322220592002231462846FFF79AFF2D
S31500002620FF28044643D073697768D3F81C80C0F34B
S315000026300B04BC61314628460794FFF7CBFE7B6846
S31500002640079A934237D20793072453B3D5F830112C
S315000026503A68069211B1B66A012E59D0D20743D410
S3150000266003F00100039907904FF4406228465E0884
S3150000267001F01AFE03994FF48062284601F024FE09
S315000026804EB1069B049803EB4602018823F8021B11
S315000026909342FAD10693079B1BB1049A069B1288B4
S315000026A01A7005994FF48042284601F00DFE204627
S315000026B00AB0BDE8F08102BB05994FF48042284676
S315000026C0042401F001FEF2E74368282118332A2288
S315000026D0CDE9031305929EE743682C211C332E2275
S315000026E0CDE90313059296E7284603AA06A9FFF744
S315000026F05DFF20460AB0BDE8F081B2FBF8F308FBA7
S315000027001328B8F1000F14BF0424022413469DE7D2
S31500002710032BA3D94FF0FF3105F5BC700CF0A0FFD9
S315000027204B4B6A6808969A42069BD5F8482101D118
S3150000273098076ED0D9074ED501218DF82410D3788D
S315000027406FF30513D370079BB3F5806F86BF022125
S31500002750C3F34F039BB208910026D38103990796D2
S315000027604FF44062284601F09FFD03993246284601
S3150000277001F0AAFDD5F848110798CB89069AA5F865
S3150000278094019BB2C5F89821002BADD0DDF820C08E
S31500002790D5F83071CE893868CB89BF681FFA8CFEB0
S315000027A0CDF804E0C978C1F3011100919DF8241019
S315000027B07F6A0CFB01F1B6B206FB0121C5F8981140
S315000027C09BB20499B847D5F830319A6818681369EE
S315000027D0012198476BE702238DF82430D178012335
S315000027E063F30511079BD170C3F34F01D181D289E1
S315000027F0039992B2A3EB420328464FF44062079333
S3150000280001F052FD03994FF48062284601F05CFD09
S31500002810B0E704238DF82430D178022363F3051141
S31500002820079BD170C3F38F01D181D289039992B2EC
S31500002830A3EB820328464FF44062079301F034FD70
S3150000284003994FF40062284601F03EFD92E700BF6F
S31500002850000006402DE9F843DDF820908C46074637
S31500002860494614464FF440621D464FEA5C060CF09A
S31500002870010801F019FD49464FF48062384601F01F
S3150000288023FD79680D4B994200D1023504EB4603CE
S315000028908EB134F8022B2A809C42FAD1B8F1000F8F
S315000028A001D1BDE8F883054A1B78914208BF01357E
S315000028B02B70BDE8F8832346F0E700BF0000064012
S315000028C02DE9F043DFF8E8901D46436883B04B4599
S315000028D00A9E80460F46144624D0D30718D54FF4D7
S315000028E04062314601F0E0FC31460022404601F0EC
S315000028F0EBFCD8F804304B4500D10335E11927B17C
S3150000290014F8013B2B708C42FAD103B0BDE8F0837A
S315000029102B462246394640460A9603B0BDE8F043A8
S31500002920FFF798BF910725D131464FF4406201F079
S31500002930BBFC31464FF40062BE08404607F0030771
S3150000294001F0C2FC96B304EB860354F8042B2A600C
S315000029509C42FAD1002FD8D0D8F80410144A9142DC
S3150000296008BF0335D91913F8012B05F801298B4245
S31500002970F9D1CAE7E207CBD54FF44062314601935D
S3150000298001F092FC00223146404601F09DFCD8F849
S315000029900420019B9A4200D10335E119002FB4D0DF
S315000029A014F8013B2B708C42FAD1AEE72346D1E7EF
S315000029B00000064070B50B6A82B00C46054683BB24
S315000029C02022FFF7C7FD0646FF2E27D021462846C0
S315000029D0FFF7CCFC63696268DB695168994225D8C8
S315000029E0002935D0B1FBF3F003FB1013002B14BF05
S315000029F0042603266B6812682020143300902846AC
S31500002A00FFF75EFF2221284601F05AFC030405D495
S31500002A104FF400422221284601F05CFC304602B009
S31500002A2070BD0022FFF796FD0646CDE76B680949A3
S31500002A30126820248B4214BF01464FF400710094A3
S31500002A4028461433FFF73CFF0226304602B070BD1D
S31500002A500426CFE70000064010B44068074CA042A9
S31500002A6008BF033331B1501812F8011B03F80119DE
S31500002A708242F9D15DF8044B704700BF0000064062
S31500002A802DE9F04F002285B004460E46FFF762FDA1
S31500002A90FF28054600F08E8031462046FFF766FC8B
S31500002AA073697268DB6957689F4240F28780636882
S31500002AB07F4902258B4214BF07464FF40077B16A5F
S31500002AC0002940F08A8003F118064FF02A0A4FF0D9
S31500002AD0280BD2F8008051464FF48042204601F080
S31500002AE0F3FBD4F82C21002A7ED0714A616891420A
S31500002AF003D118F0030F00F0978018F00103D4F803
S31500002B003421039300F0AF80B7F5806F00F2868022
S31500002B10B9B2DDF80C90D181D1786FF30511D1707F
S31500002B20D28992B25946204609FB12774FF4406289
S31500002B3001F0BAFB00225946204601F0C5FB5C4B6A
S31500002B4062689A4200D10336D4F83411CB899BB21D
S31500002B5003B33246D4F82C61CB893068B6681FFAC5
S31500002B6089FCCDF804C0C978C1F3011100919BB26C
S31500002B704146766AB047D4F82C319A6818681369CA
S31500002B80012198474FF0FF3104F5AE700CF068FD57
S31500002B90D4F83411CA8992B277B3039B03FB09F9BF
S31500002BA0636802FB0982394618332046FFF754FF53
S31500002BB0022D23D1284605B0BDE8F08F3FB1B7FB03
S31500002BC0F3F103FB117313B96368032577E7B16A61
S31500002BD06368042500293FF476AF03F11C064FF025
S31500002BE02E0A4FF02C0B74E7CDF800B03346424660
S31500002BF039462046FFF764FE022DDBD051462046BB
S31500002C0001F05EFB0304D5D420464FF40042514642
S31500002C1001F05AFB284605B0BDE8F08FC7F34F0117
S31500002C20D1814FF0020977E7D4F83421C7F38F0139
S31500002C30D181D189D07889B2A7EB8107022161F3CE
S31500002C400510D07059464FF44062204601F02CFB27
S31500002C5059464FF40062204601F036FB04230393E5
S31500002C604FF0010970E7C7F34F01D181D078D189C0
S31500002C704FF0010989B269F30510D070A7EB41073F
S31500002C804FF440625946204601F00EFB4FF4806235
S31500002C905946204601F018FB054B62689A4202D05D
S31500002CA00223039350E70223023603934CE700BF47
S31500002CB00000064030B583B000230C4608210546C7
S31500002CC0019301F0FDFA10F0100014D10090009B62
S31500002CD00E4A934208D8019B01330193009B0133AE
S31500002CE00093009B9342F6D96B69002001336B6118
S31500002CF0236003B030BD4C21284601F0E1FAC0F351
S31500002D000A0300206B61236003B030BD3F0D030052
S31500002D10704700BF70B5C36EB74A86B0054633210B
S31500002D2000209342CDE9021063D0B44A934240F0AA
S31500002D30AB800221FF2402A8019104F0EBFAB04B0C
S31500002D4001991B6902A803AA98479DF90C3013F153
S31500002D50210F00F09580002B3FDBAA492401CA18F9
S31500002D60E4B282F800430122580903F01F0302FA75
S31500002D7003F341F8203000214FF4CE7208460CF0E0
S31500002D8001FB044688B3A04E3368DA69C2EBC2027F
S31500002D900021D2000F200CF0F5FAE06128B3336869
S31500002DA01A6A02EB4202002112011F200CF0EAFA15
S31500002DB02062D0B133685A6A02EBC20200211F209A
S31500002DC092000CF0DFFA606278B1204601F0F8F864
S31500002DD00646A0B1304606B070BD8C4A03F00F031C
S31500002DE024011A44E4B21476C5E71226304606B02A
S31500002DF070BD01238DF80930042103249BE74FF4AD
S31500002E001062C5F88C200123814A2B6468642A6706
S31500002E10EB64EA6E6C67E3600823C4F8D8300146B9
S31500002E20C4E94B006260C4F8D40010222046256035
S31500002E3001F03AFA20223146204601F045FA4022B6
S31500002E403146204601F040FA6C4B62689A4200F027
S31500002E50B18080223146204601F036FA05A804F0FA
S31500002E602FF94FF400423E21204601F01DFA059B42
S31500002E70684ADB69934200F0B480674A93420CD0FB
S31500002E803226304606B070BD3222012102200CF0F7
S31500002E90DDF93226304606B070BD10223E212046AE
S31500002EA001F012FA20223E21204601F00DFA782385
S31500002EB00493049B4BB13E21204601F001FA049B8A
S31500002EC0013B0493049B002BF5D101223E212046B1
S31500002ED001F0EAF9514B0493049B4BB13E21204685
S31500002EE001F0EEF9049B013B0493049B002BF5D102
S31500002EF002223E21204601F0D7F94FF480424FF4DA
S31500002F008171204601F0E0F90621204601F0D8F94A
S31500002F10C307F9D54FF480720021204601F0D4F999
S31500002F2020220021204601F0CFF94FF4007208213B
S31500002F30204601F0B9F901220021204601F0C4F92A
S31500002F404FF400422021204601F0BEF9002228213C
S31500002F50204601F0B9F900222C21204601F0B4F9EF
S31500002F60254B62689A427FF435AF00250F22204632
S31500002F700221059501F098F9294B05A99B69284678
S31500002F809847059A274B2848A3FB02135B0DA0FB25
S31500002F90020203EB8301520CB2EB410F88BF0133EF
S31500002FA0022B86BF023B9AB200220221204601F084
S31500002FB08BF90FE74FF480623146204601F084F921
S31500002FC00021204601F07CF94205F9D520460F2262
S31500002FD0F02101F069F90522F021204601F074F98B
S31500002FE09EE7204610223E2101F05EF920223E2176
S31500002FF0204601F069F95AE7000006400000094042
S315000030000057010000E100E02C000020FCEC00E08D
S31500003010F5230000002D310100366E01C0D40100F9
S315000030207C4F0100B945511FDBC9921310B5446F9F
S31500003030022303644021204601F042F94021C0F3F7
S315000030400A02204601F046F920464FF4C0524221BA
S3150000305001F040F9204640F2FF32362101F03AF9FC
S31500003060204640F2FF32382101F034F9204640F282
S31500003070FF323A2101F02EF920464FF41C5230213E
S3150000308001F028F9204648F65002322101F022F9D3
S315000030902046BDE8104001F005B900BF10B5046830
S315000030A082B0B4F89421002301938DF8003022B346
S315000030B0D4F84831DB7803F03003202B3FD0102BB7
S315000030C003D163689B8B9BB20093D4F89821019B34
S315000030D0019908336B44013113F8083C1370B4F8B6
S315000030E09431D4F898210191013B01329BB2C4F886
S315000030F09821A4F89431002BE9D12C21204601F027
S31500003100DFF800F00F00052806D804F5BC7002B001
S31500003110BDE810400CF0C8BA2E21204601F0D0F8C8
S315000031208304F2D520464FF480422E2101F0CCF8DC
S3150000313004F5BC7002B0BDE810400CF0B5BA636887
S31500003140DB690093C1E700BF006800F5AE700CF0C4
S31500003150ABBA00BFF8B506460D46FFF7DBFD0746DE
S3150000316008B13846F8BDD5E90013746F0246C4F8B5
S315000031702C11C4F830313B4904F5AE700CF05EFA00
S31500003180002867D13849012204F5BC700CF056FAC4
S3150000319000285FD1354BF26ED4F82C119A424A685A
S315000031A0D3795AD0022B5AD8D4F83001136845681F
S315000031B0C4F834312868C4F8480192F807C084F886
S315000031C03BC195F807C084F84FC11269284FC4F86F
S315000031D044212A69C4F85821C4E94F74254AC4F821
S315000031E05441C4F85021DA78022565F38712DA7063
S315000031F0C27865F38712C2709822A4F83821992202
S31500003200A4F84C21002284F83A2184F84E215A88E9
S315000032100868A5F63F452A4042F400625A808B684A
S3150000322004F59A711B689847C8B9D4F84811D4F8C0
S3150000323030214B8810682B4043F018034B8093686D
S3150000324004F5A4711B689847074640B93046FFF756
S31500003250EDFE86E715273846F8BDFF2BA4D13227A9
S315000032607FE700BFD04E0100E44E01000000094098
S31500003270493100009D3000002DE9F84F054688468B
S315000032800624A7B23A466421284601F023F86821AD
S31500003290284601F015F810F4404FA4F1020AC0F3D5
S315000032A0813907D001340A2CEBD14FF0FF0948468B
S315000032B0BDE8F88F4FF40073C8F85C302846FFF776
S315000032C069F80646002800F093807462284601F0EB
S315000032D005F800287DD0C8F80860C6E90000C6F8E1
S315000032E01480284600F0D8FD0346D8F820000028B0
S315000032F055D01F2854D99A6802B1D660B260D8F862
S315000033001420F3609E601306736AC6F830A04FF06F
S31500003310000402F00F0B03F13803F46258BF4FF0BC
S315000033201008C6F820B04FEA43014FF000022846C5
S3150000333054BF4446A04600F0C7FFEFF3108A72B6AA
S3150000334064213A46284600F0C5FF48EA0B0242F4DB
S315000033500042284642F08002682100F0BBFF7369F4
S31500003360D86ADA69C36842EA03326C2192B2284607
S3150000337000F0B0FF8AF31088D5F82C3183B31CBB5C
S31500003380D5F830318BB3336A7BB30123B362736AEA
S3150000339005EB83034846C3F80461BDE8F88F0120B6
S315000033A00121102210424FEA520202D101310629B0
S315000033B0F8D19B681A69002AFBDA01399BD09B6811
S315000033C01A69002AF5DAF8E7336A73B10023B362A3
S315000033D0DDE7C6F810904FF013094846BDE8F88FB0
S315000033E0D5F830310BB1002CCDD00223B362CEE735
S315000033F04FF014094846BDE8F88F00BF2DE9F047A5
S31500003400B24E33681B69942404FB0034636C4BB9D9
S31500003410656F226CD5F8C830022A03F10103C5F89E
S31500003420C83001D0BDE8F0873021284600F048FFBB
S3150000343032218046284600F043FF402107462846B1
S3150000344000F03EFF00EA0800C5F8CC0042212846FD
S3150000345000F036FFD5F8CC3038409A04C5F8D000D5
S3150000346000F19A81030400F18B81D5F8CC305F0519
S3150000347000F15B81D80500F12D81990500F1FC80F2
S31500003480D5F8D0301A0500F1B680DF0476D458049A
S3150000349047D4590630D4DA0617D49B06C2D5284637
S315000034A04FF6DF72422100F015FFD5F8DC20636E7F
S315000034B0306842F020020133C5F8DC2000F5DC70EC
S315000034C06366BDE8F0470CF0EFB84FF6EF724221A5
S315000034D0284600F0FFFED5F8DC20636E3068013325
S315000034E042F04002C5F8DC2000F5DC7063660CF0A3
S315000034F0DBF8D5F8D030D0E74FF6BF724221284628
S3150000350000F0E8FE236D30680133236500220323B3
S315000035102B61E030C5F8D4200CF0C6F8D5F8D030D1
S31500003520B9E74BF6FF724221284600F0D3FED5F8E4
S31500003530D47007BB2B69012B1DD04FF4804232217A
S31500003540284600F0B1FE4FF480523221284600F0A2
S31500003550BBFE236D013323650123C5F8D43028460D
S315000035603A465E2100F0B0FE30684FF0FF33AB61A3
S31500003570E0300CF099F8D5F8D0308AE74EF6FF72B5
S315000035804221284600F0A6FE4FF2FF72422128464D
S3150000359000F0A0FE4FF480523221284600F084FE4F
S315000035A032214FF40062284600F08EFE05F5807346
S315000035B005F5947153F8042F2AB153F8282C42F0DC
S315000035C0800243F8282C9942F4D1636E30680133A7
S315000035D0636600F5DC700CF067F8236D3068013324
S315000035E000222365E030C5F8D4202A610CF05CF88F
S315000035F0D5F8D0304BE74FF2FF724221284600F053
S3150000360069FE4EF6FF724221284600F063FE042151
S31500003610284600F055FE10F002074FF480724FF076
S315000036203C01284600F0C98000F04EFE284B6A682F
S315000036309A4200F0CF804FF400623221284600F013
S3150000364033FE4FF480523221284600F03DFE236DB2
S315000036500122134423655E21C5F8D42028460022A2
S3150000366000F032FE30684FF0FF33AB61E0300CF013
S315000036701BF8D5F8D03008E74821284600F020FE90
S3150000368005F1DC07814605F5827A4FF001086FEAFD
S31500003690080219EA080F92B24FEA480809D0BB6A35
S315000036A01BB13B6843F002033B604821284600F00B
S315000036B011FE0437BA45EAD1636E3068013363669A
S315000036C000F5DC700BF0F0FFDAE600BF2C000020FE
S315000036D0000006404621284600F0F2FD05F1DC0711
S315000036E0814605F5827A4FF001086FEA080219EA69
S315000036F0080F92B24FEA480809D0BB6A1BB13B6873
S3150000370043F001033B604621284600F0E3FD043701
S31500003710BA45EAD1636E30680133636600F5DC7042
S315000037200BF0C2FFD5F8CC30A7E64A21284600F0B8
S31500003730C7FD05F1DC07814605F5827A4FF00108E1
S315000037406FEA080219EA080F92B24FEA480809D050
S31500003750BB6A1BB13B6843F004033B604A21284621
S3150000376000F0B8FD04375745EAD1636E306801337F
S31500003770636600F5DC700BF097FFD5F8CC3079E680
S31500003780284647F6FF72422100F0A4FD012143229C
S3150000379008460BF05BFD68E64DF6FF7240212846B1
S315000037A000F098FD636E30680133636600F5DC70E7
S315000037B00BF07AFFD5F8D00054E600F075FD084B03
S315000037C06A689A427FF437AF80223946284600F06D
S315000037D07BFD30E780220021284600F065FD2AE7C0
S315000037E0000006402DE9F843054600F1E00400F12B
S315000037F0E8064FF000084FF0220954F8043B33B1B5
S31500003800676A7A69926902F00302012A03D0B44218
S31500003810F3D1BDE8F883D9072DD49A0724D45807E5
S315000038201BD41906F3D523F0800344F8043C7B68C7
S31500003830DA691203EBD53968D8688B4206D01A4686
S315000038409B68C2F81C808B42F9D17B60436AC0F842
S315000038503490002BDBD09847D9E73946284600F04C
S3150000386011F854F8043CDCE73946284600F0F8F82D
S3150000387054F8043CD3E73946284600F071F854F86A
S31500003880043CCAE72DE9F0410D46EFF3108172B60C
S315000038906B6A00EB8303D3F8DC2022F00502C3F841
S315000038A0DC2081F310886C68E3691B0301D4BDE852
S315000038B0F081AA8C6421064600F00CFD696AE7686F
S315000038C0373103224900304600F0EEFC696A373191
S315000038D04900304600F0F4FC00F0030002380128ED
S315000038E016D861683B6921220B447A633B612A68DA
S315000038F0944206D000212346A468D9619442FAD1A5
S315000039006C607B6A002BD2D03846BDE8F041184780
S315000039106B6A3733590001F48041304600F0D0FC21
S31500003920B8B163683A6900217963F9681A4491422B
S315000039303A61DCD0002BDAD06A69D269B3FBF2F1C6
S3150000394002FB1133002BD2D1A2686A60E361BDE8A5
S31500003950F081024629463046FEF736F9E1E700BF18
S315000039602DE9F0410C46EFF3108172B6636A00EB65
S315000039708303D3F8DC2022F00502C3F8DC2081F3B0
S3150000398010886668F3691B0301D4BDE8F081A28C38
S315000039906421054600F09EFC616A37310322490026
S315000039A0284600F081FC336AB3F5006F37D0214614
S315000039B02846FEF75DF96368DE689F693269F1683B
S315000039C03A448A42326100D0EFB921688B4209D06D
S315000039D000201A469B68D0618B4202D0DA68964274
S315000039E0F7D0636000237363D5F8303123B1A36A3F
S315000039F0012B01D1032F28D8736A002BC5D030467E
S31500003A00BDE8F04118476269D169B7FBF1F201FBE5
S31500003A101272002AD9D199686160DA61B5E76568E2
S31500003A20E8686A6803691344C2680361934205D073
S31500003A30AA6862600023EB61BDE8F081436A002258
S31500003A404263002BF4D09847F2E705F5BC754FF0BA
S31500003A50FF3128460BF004FE28460BF025FECBE787
S31500003A602DE9F0410D46EFF3108172B66B6A00EB5B
S31500003A708303D3F8DC2022F00202C3F8DC2081F3B2
S31500003A8010886C68E3691B0301D4BDE8F081AA8C39
S31500003A90D4F80C806421064600F01CFC696A3731B4
S31500003AA04900304600F00CFC696A074637310322AC
S31500003AB03046490007F0030700F0F6FB023F2A688C
S31500003AC0022F34BF212322239442C8F8343006D073
S31500003AD000212346A468D961A242FAD16A60D8F8C7
S31500003AE024300BB14046984708F14400BDE8F04148
S31500003AF00BF0DABD70B5456B0646DDB12C4601E02C
S31500003B00A5420CD0D4E900239A4202D0DB691B03FC
S31500003B1006D5A468002CF3D1346B002CF0D170BD0F
S31500003B202146304600F010F80028F2D1A4682CB1E6
S31500003B307463E5E7056B002DE0D170BD346B7463EB
S31500003B40002CDDD1EBE700BF70B54E688A8CF369B7
S31500003B500C4643F40023F3616421054600F0BAFBEA
S31500003B60616A373103224900284600F09DFB336A1B
S31500003B70B3F5805F04D0B3F5006F19D0002070BD97
S31500003B80214628460122FEF79FF8214628460122B3
S31500003B90FEF744F8616A012237312846914000F069
S31500003BA093FB636A05EB83030020C3F8044170BDF1
S31500003BB021462846FEF7B2F8FF28DFD0616A0122C7
S31500003BC037319140284600F07FFBD7E72DE9F047D3
S31500003BD0012282B004460E46642100F07BFB682178
S31500003BE0204600F06DFB10F4404F10D002226421F5
S31500003BF0204600F06FFB6821204600F061FB10F4C0
S31500003C00404F00F0C480FF2002B0BDE8F0874FF0BF
S31500003C100108C1468E4F6368F269BB420CBF4FF480
S31500003C2080734FF480639A42EDD82046FEF7B2FBCC
S31500003C300546002800F0EF804FEA4813183B03635F
S31500003C401023C362204600F007F9002800F0FD802B
S31500003C506368C5F82480BB420CBF4FF480734FF4F1
S31500003C608063F365236BB560C5E900006E61AB60E8
S31500003C70256303B1DD6008F13701204649000022C3
S31500003C8000F028FB696A373120464FF4007249007C
S31500003C9000F01AFB696A37314FF40072490020467A
S31500003CA000F002FBEFF3108772B664214A46204605
S31500003CB000F010FBD5F814A0D5F82490DAF81430EB
S31500003CC0616803F00F0213F0800F09F1FF36614BB4
S31500003CD02A620CD199425ED142F4404242F09002EF
S31500003CE06821204600F0F6FA4FF010080BE09942E2
S31500003CF05DD142F4424242F080026821204600F043
S31500003D00E9FA4FF00008EA6A531E2A6B42EA832258
S31500003D1092B26A21204600F0DDFADAF82C30DAF8A1
S31500003D201C20DB6842EA033292B26C21204600F086
S31500003D30D1FA484B62689A423CD06B691A6AB10064
S31500003D40013A6E3192B22046019100F0C3FA019910
S31500003D504FF48052204600F0B7FAB8F1000F51D068
S31500003D60D4F82C31002B53D00023AB626B6A04EBE2
S31500003D7083034FF400522046C3F804512C2100F06F
S31500003D80A3FA87F31088002002B0BDE8F0874FF051
S31500003D900208C1463EE7102398461A4342F44042C1
S31500003DA042F080026821204600F094FAB5E700232D
S31500003DB09846F2E7B8F1000F2FD109F123094FEA2F
S31500003DC089094246B6004946204600F083FA06F1C4
S31500003DD092012046012200F07DFA494620464FF422
S31500003DE0007200F077FA6B691A6A6E36013A92B27F
S31500003DF03146204600F06EFA4FF480523146204696
S31500003E0000F062FAD4F8303113B10123AB62ADE7AA
S31500003E100223AB62AAE71420F6E609F12301204645
S31500003E208900002200F056FA6B691A6AB100013A5D
S31500003E306E31204692B2019100F04CFA01994FF48E
S31500003E408052204600F040FA8AE728611320DBE61C
S31500003E5000000940000006400E4B1B685A6A10B568
S31500003E60446AA2B1002303E0934204F124040BD078
S31500003E70E16901330029F7D1242220460BF0BAFB71
S31500003E800123E361204610BD0024204610BD1446E0
S31500003E90F8E700BF2C00002070B5864600F1B40597
S31500003EA05EF8386F30464FF0FF348368CBB1014679
S31500003EB04FF0000C00E013460A69002A02DB4A694B
S31500003EC0D26994449A681946002AF4D1A4453CBFA5
S31500003ED064460646AE450BD05EF8040F8368002B99
S31500003EE0E5D19C46A4453CBF64460646AE45F3D1A3
S31500003EF0304670BD70B58C68002C34D023690E46F0
S31500003F0043F080430546236101200BF05DF8B36959
S31500003F10D4E9022103F00303012B08BF00238A60C2
S31500003F2008BF6B6302B1D160D4E900138B4205D0A0
S31500003F300022DA619B688B42FBD161600026A28C6D
S31500003F40CE612846642100F0C5F928464FF4404268
S31500003F50682100F0A9F9D5F8BC302661013BC5F807
S31500003F60BC30304670BD5322012102200BF06EF9A1
S31500003F70532070BD10B582B0002301A904460193F9
S31500003F80FEF798FE019B03F01F0303F10E02019357
S31500003F9054F8221069B10B69B3F1004F06D0D1E98C
S31500003FA000239A4202D0DB691B0304D589680029E5
S31500003FB0F1D102B010BD204600F0F4FB02B010BDF6
S31500003FC02DE9F04F8022C1B0054600210DEB02001D
S31500003FD00FF0E6F84FF0200900264FF00048B9F13F
S31500003FE0000F24D0EA460DF1800B0AEB89075446F0
S31500003FF00BE0D4E900234AF8040BBA4590600BF1B4
S31500004000040B986004F1080411D02846FEF7C2F9A3
S3150000401028B3C0F81080002EEBD14AF8040BBA453D
S31500004020CBF8000004F108040BF1040BEDD10136C6
S31500004030062E4FEA5909D2D10B4A343502F18001D6
S3150000404052F8043F40A800EB83038A4253F8803CB1
S3150000405045F8043FF4D1002041B0BDE8F08F1420AC
S3150000406041B0BDE8F08F00BF9400FE1F08B5C368DD
S315000040708B4205D31022082100F016F9002008BD56
S315000040805622012102200BF0E1F8562008BD00BFA0
S3150000409038B5C3688B4215D3D0F8D450012D0446E9
S315000040A009D11022082100F00FF9062009F0D4FDED
S315000040B02561002038BD5F22012102200BF0C6F8E1
S315000040C05F2038BD5622012102200BF0BFF8562092
S315000040D038BD00BFC3688B4210B528D3044600F034
S315000040E037F8C2072AD540220821204600F0ECF80E
S315000040F010220821204600F0D7F8062009F0ACFD72
S3150000410010220821204600F0DFF820464022082130
S3150000411000F0CAF8032000E0022009F09DFD082106
S31500004120204600F0CDF84307F6D4002010BD5622F5
S31500004130012102200BF08AF8562010BD5F220121D2
S3150000414002200BF083F85F2010BD00BF542070479B
S31500004150C3688B422DE9F0416BD303690668032BD4
S31500004160054649D0012303610A240027D5F8D43037
S31500004170012B4FF00A0077D10BF0D2F8013C3765DE
S31500004180F4D14FF4805232212846DFF8088100F03E
S315000041909BF828464FF40062322100F085F8D8F8E3
S315000041A000008768C7B10369942101FB07312746E0
S315000041B01A6C022A02D1B34218BF1F6D943399427A
S315000041C0F6D1D0F8E830BB420AD9E0304FF0FF31E3
S315000041D00BF046FAD8F80000D0F8E830BB42F4D825
S315000041E0D5F8D430012B0BD02B69032B27D0002315
S315000041F02B612046BDE8F081D0F8D430012B1CD1CC
S315000042000821284600F05CF800F00703022B3DD099
S31500004210032B0BBF812401248023002301222A6162
S31500004220C20648BF43F003044306E2D544F0100437
S31500004230DFE756242046BDE8F081DFF85880336D6D
S3150000424001200344336500225E21C5F8D4002846C8
S3150000425000F03AF8D8F800004FF0FF33AB61E030D9
S315000042600BF022FA0024C4E70024346528464FF4F4
S31500004270805232212C6100F017F828464FF4006274
S31500004280322100F021F82046BDE8F0814124402388
S31500004290C4E700BF2C00002054207047542070470C
S315000042A054207047704700BF40680B5A23EA020249
S315000042B00A5270474368D243C2F309025A52704702
S315000042C04368585A704700BF4368C85A0243CA52E7
S315000042D0704700BF43685A52704700BF38B5144D47
S315000042E02B68044603F11C000BF09AF9114B246A63
S315000042F01B681A6AAAB1002303E0934204F1300452
S315000043000FD0E16901330029F7D1204630220BF0A6
S3150000431071F928680123E3611C300BF07FF9204610
S3150000432038BD286800241C300BF078F9204638BDCB
S31500004330300000202C0000202DE9F04F4B68D3F808
S3150000434008905B69D9F81420D9F80040D2F81CA06F
S315000043502DED028B1B06D1E9028608EE100A83B00A
S315000043600F464FD4C6F30803002B45D000214FF06B
S31500004370004B7A69E369E7605645354628BF5546DE
S3150000438012F0800F14BF4FF480524FF4006243F4D2
S315000043900033761BC4E90085C4E9073218EE100A1B
S315000043A0C4F81490C4F824B001910DD1FFF796FF1C
S315000043B0019900283FD0A060C9F80000304603B03C
S315000043C0BDEC028BBDE8F08FFFF788FF019930B195
S315000043D0A060002908BF0146A8440446C9E721B1E8
S315000043E00B468968D8610029FAD11326304603B0F6
S315000043F0BDEC028BBDE8F08FBAF1400FB6D94FF491
S31500004400007AB3E7144B42689A42AFD1BAF1400F33
S31500004410ACD9C6F30803B3B9D9F824309B0003F12D
S315000044208E014FF40075B5FBFAF52A46FFF752FFE9
S31500004430012DE4D19AE70029D7D00B468968DE61C1
S315000044400029FAD1D1E7D9F824309B0003F18E0177
S315000044500122FFF73FFF89E7000006402DE9F04FF4
S315000044600F4600217B6883B0082281460846D3F8B0
S3150000447008B00AF087FF0190002800F09F80BB6912
S3150000448003707B690370BB6943700546B98B0230C4
S315000044900BF00EF9281D398C0BF00AF9A81DB98905
S315000044A00BF006F9DBF80040FE68E369256043F48B
S315000044B08033E3610823636000254FF40063C4E999
S315000044C00835D7F80880E760C4F814B0002E7FD00E
S315000044D04FF0010A24E0DBF814307969D869E36902
S315000044E0C4F80080B04228BF304611F0800F14BFD8
S315000044F04FF480514FF4006143F40033002D08BFA0
S315000045002546361AC4F824A0C4E907316060E7607E
S31500004510C4F814B08044CCF80840CAF1010A13D09C
S315000045204846FFF7DBFEA44604460028D3D101988F
S315000045300AF0D8FF25B12B46AD68DC61002DFAD113
S31500004540132003B0BDE8F08F4846FFF7C7FE80464C
S3150000455000284ED022467B69C8F80C7013F0800FF5
S31500004560D8F81C30C8F814B043F48023C8F81C30BF
S3150000457014BF4FF400634FF48053C8F82030002373
S31500004580C8E900330123C8F824304846C2F8088039
S31500004590FFF7A4FE054618B3C8F808004FF47A7171
S315000045A0CBF8000007F144000BF05AF850B9019817
S315000045B00AF098FF786B03B0BDE8F08F122003B0C5
S315000045C0BDE8F08F38460AF01BFE5C237B63EEE7FE
S315000045D04846FFF783FE8046A0B122463446BAE736
S315000045E001980AF07FFF04B1E5610023C8F81C308A
S315000045F0A6E701980AF076FF2B46AD68DE61002D2E
S31500004600FAD19DE701980AF06DFF132099E700BFE4
S315000046104A6838B595684B692C688A68226013F039
S31500004620800FE36943F40033E3614FF0004314BFA6
S315000046304FF480524FF400626362CB68226263607B
S31500004640E1606561FFF74AFE20B10346A0600020E5
S315000046502B6038BD132038BD2DE9F04F4B688A6BAF
S31500004660D3F8088085B08A4600218346039112B9A3
S31500004670DB69CAF83830EFF31083019372B6D8F8C5
S315000046800040D8F80420D8F81430A242D3F81C9081
S3150000469055D0D8F81CC0CDF80CC0DAE90227002F97
S315000046A054D00025DAF8141011F0800F14BF4FF41F
S315000046B080514FF40061B9454E4628BF3E460CF185
S315000046C00100BF1B2162C8F81CC0C4E90026C4F85B
S315000046D00CA0C4F8148003901CD1C8F81C005846DE
S315000046E0FFF7BAFB48B1A060019BC8F8000083F34E
S315000046F01088002005B0BDE8F08F25B12B46AD68C7
S31500004700DF61002DFAD1019B83F31088132005B0D9
S31500004710BDE8F08F58460092FFF79EFB009A40B125
S31500004720A060DDF80CC0002D08BF054632440446E3
S31500004730B8E7002DE7D02B46AD68D861F9E703A9A5
S315000047405846FEF7B7FADDF80CC0A6E7C8F81CC055
S315000047505846FFF781FB0028C5D1D4E7D0F8D4200E
S31500004760012A01D05F2070474A68926902F003026D
S3150000477010B4022A4FF000040C6106D0032A0CD0B4
S315000047803AB15DF8044BFFF767BF5DF8044BFFF7DE
S31500004790D3BD5DF8044BFFF761BE5DF8044BFFF730
S315000047A037BF00BF08B54B691B691BB9FDF7B8FCDD
S315000047B0002008BDFDF7FCFB002008BD70B54B6866
S315000047C09C6882B0002C39D0236943F08043236172
S315000047D0054601200AF0F8FBD4E90023934205D0F0
S315000047E00021D9619B689342FBD16360EFF3108689
S315000047F072B6236AB3B1A28C64212846FFF76AFD1C
S31500004800616A373128464900FFF75AFD00F0030078
S3150000481001281BD086F310886FF0804300202361A7
S3150000482002B070BD214628462022FDF761FD4FF4F7
S31500004830804222212846FFF747FDEBE7532201215C
S3150000484002200AF003FD532002B070BD636A3733BD
S31500004850590003222846FFF727FD636A37335900BC
S315000048604FF400722846FFF72FFD636A373359006D
S315000048704FF400722846FFF717FD0022214628460E
S31500004880FDF736FDA36A8BB1012B14BF22212E2121
S3150000489028460191FFF714FD10F4005F0199B9D085
S315000048A04FF480422846FFF70FFDB3E72A21EFE7D2
S315000048B00E4B1B6810B59C681B6954B10022196C1D
S315000048C0013211B1D96E814205D0A24203F194039F
S315000048D0F5D1342010BD586F10220821FFF7E4FCF3
S315000048E00A200AF01DFD002010BD00BF2C0000208C
S315000048F038B5D0F82C31044653B100F5AE700AF045
S31500004900ADFED4F82C319A681868D369984790B9E7
S315000049100025D4F8303163B104F5BC700AF09EFE70
S31500004920D4F830319A681868D3699847002818BFB8
S315000049303425284638BD3425EBE700BFF0B57C4A60
S3150000494012689168146983B00023CDE9003349B138
S31500004950226C013312B1E26E824207D0994204F111
S315000049609404F5D13426304603B0F0BD656F4FF49C
S315000049701C5230212846FFF797FC49F65002322197
S315000049802846FFF791FC40F2FF3236212846FFF712
S315000049908BFC40F2FF3238212846FFF785FC40F2B7
S315000049A0FF323A212846FFF77FFC4FF47842402138
S315000049B02846FFF779FC002242212846FFF78AFCA9
S315000049C040F2FF3246212846FFF774FC40F2FF32E0
S315000049D048212846FFF76EFC40F2FF324A2128465E
S315000049E0FFF768FC0126B2B264212846FFF772FC85
S315000049F001364FF4404268212846FFF755FC0A2E3F
S31500004A00F1D1402200212846FFF74EFC4FF4C87230
S31500004A105C212846FFF748FC40225E212846FFF726
S31500004A2059FC102200212846FFF73EFC20220021D7
S31500004A302846FFF739FC012200212846FFF734FCFF
S31500004A406A683C4B9A426BD0009B3B4903F47F4318
S31500004A5043F033038A42009342D000238DF801309D
S31500004A6002272846FFF744FF064600287FF47AAF60
S31500004A70324B39461B6901AA684698479DF90430AE
S31500004A80002B12DB5A09920002F1604202F56142E4
S31500004A90012103F01F0301FA03F3C2F88031C2F8C3
S31500004AA08030BFF34F8FBFF36F8F684602F008FC6C
S31500004AB00023E8692364C4E9123363676364C4F8B6
S31500004AC08C30E3660AF00EFD286A0AF00BFD686A70
S31500004AD00AF008FD28460AF005FD304603B0F0BD91
S31500004AE04FF480424FF481712846FFF7DDFB8022A8
S31500004AF000212846FFF7D8FB10223E212846FFF763
S31500004B00E3FB20223E212846FFF7DEFB0F2202218F
S31500004B102846FFF7DFFB01238DF801300427A0E7C5
S31500004B204FF4806200212846FFF7BEFB6A688BE7D8
S31500004B302C0000200000094000000640005701003C
S31500004B400B4B10B41C68B4EB102F03D803205DF890
S31500004B50044B704749B15B685DF8044B020A520189
S31500004B6004330020D3580B8070470120EFE700BFC5
S31500004B703002FE1FD2B10E4B10B41C68B4EB102FDE
S31500004B804FEA102C03D803205DF8044B70475B688E
S31500004B905DF8044B22EA01004FEA4C1C08330A4038
S31500004BA042EA00424CF80320002070470320704779
S31500004BB03002FE1F12B3124B10B41C68B4EB102F58
S31500004BC04FEA102C03D803205DF8044B70475C684D
S31500004BD04FEA4C1C02EA010354F80C00034361EA55
S31500004BE002019AB2114054F80C20120C120411431F
S31500004BF044F80C1000205DF8044B70470320704702
S31500004C003002FE1F0B4B10B41C68B4EB102F03D8F8
S31500004C1003205DF8044B704751B15B685DF8044BA7
S31500004C20020A520104330020D3581B0C0B80704734
S31500004C300120EEE73002FE1F10B40D4C2368B3EBE3
S31500004C40102F03D803205DF8044B7047002AF9D0D3
S31500004C5063685DF8044B4FEA102C083322EA010022
S31500004C6003EB4C130A4042EA00425A6000207047A8
S31500004C703002FE1F20B14FF0022303600020704770
S31500004C800120704738B50488002C4DD043680021B8
S31500004C90043303EBC40040F202450C4640F2034CD9
S31500004CA040F2044E0FE0624530D153F8042C02F076
S31500004CB0B852B2F1807F14BF41F0020144F0020401
S31500004CC00833834211D01A88AA42ECD153F8042C37
S31500004CD002F0B852B2F1807F03F1080314BF41F02D
S31500004CE0010144F001048342EDD1C943CDB2012054
S31500004CF002F074FC0D4B93F8BB2414432C4083F84C
S31500004D00BB440120BDE8384002F038BC7245D7D11B
S31500004D1053F8042C02F0B852B2F1807F0CBF44F075
S31500004D20040441F00401CBE7FF25E0E700E0014081
S31500004D30012958D82E4B1A68B2EB102F70B44FEADF
S31500004D40102409D99A68C0B252F8245000F110060E
S31500004D500122B2402A4202D1032070BC704700EB08
S31500004D600410D3E9035454F8203000293DD043F011
S31500004D700401204E0E40EFF3108C012383F31088BC
S31500004D801D4B1A8892B212B9EA704022EA701A884C
S31500004D90013292B21A808CF3108811F4803F54F8D5
S31500004DA0202007D022F4803244F82020134A0A40FB
S31500004DB044F8202044F82060EFF31081012282F3AA
S31500004DC010881A8892B21AB11A88013A92B21A80D9
S31500004DD01B889BB213B98022EB70EA7081F31088AE
S31500004DE0002070BC70470320704723F00401C0E721
S31500004DF03002FE1FD5FC011F9402FE1FD5FC001FCA
S31500004E0070B582B00446002501A80E468DF8045000
S31500004E1002F04EF99DF80430DB0713D5202C0ED88E
S31500004E20012E0CD8094BDB681A780CBF22EA040461
S31500004E301443284604F030041C7002B070BD0320F1
S31500004E4002B070BD062002B070BD00BF3002FE1F6A
S31500004E50002861D043682DE9F0470646002B58D05C
S31500004E60FFF710FF3388002B50D02C4F2C4A4FF001
S31500004E70000C4FF0010E4FF0400A4FF080097168A8
S31500004E80F8681FFA8CF401EBC40351F834509B8880
S31500004E903C69190ADBB203EB0113EFF310888EF3BA
S31500004EA01088118889B211B9C17080F803A01188E1
S31500004EB0013189B2118088F3108815F4803F54F8C7
S31500004EC0231007D021F4803144F8231025F48031D3
S31500004ED044F8231044F82350EFF310818EF3108822
S31500004EE013889BB21BB11388013B9BB213801388B6
S31500004EF09BB213B9C37080F8039081F31088318890
S31500004F000CF1010C1FFA8CF39942B8D80020BDE8C9
S31500004F10F0870120BDE8F087012070473002FE1FB0
S31500004F209402FE1F00282ED070B5436886B0044652
S31500004F30002B2AD01649174DCE680922002301926C
S31500004F40CDE90233CDE9043302A901A8B0470A230B
S31500004F508DF80430029B6B60059BAB6002A9BDF81F
S31500004F600C302B6001A8B047012302A98DF805304B
S31500004F7001A8029B2B61B047029BEB602046FFF71E
S31500004F8067FF06B070BD01207047012006B070BDF6
S31500004F90005701003002FE1F30B4124C2268B2EBFB
S31500004FA0102F0CD9A268030AC0B252F8235000F1A0
S31500004FB0100C012202FA0CFC1CEA050F02D1032098
S31500004FC030BC704751B1226900EB031330BC52F874
S31500004FD02330C3F3400300200B707047104630BCEB
S31500004FE0704700BF3002FE1F30B4154C2368B3EB88
S31500004FF0102F0CD9A368020AC0B253F8225000F150
S31500005000100C012303FA0CFC1CEA050F02D1032045
S3150000501030BC704789B164685201043403FA00F069
S31500005020145982B200EA1440824214BF00200020C4
S3150000503030BC0CBF0B7008707047184630BC704708
S315000050403002FE1F174A10B51468B4EB102F0DD9A5
S31500005050030A9468C0B254F8234000F1100C4FF0D4
S31500005060010E0EFA0CFC1CEA040F01D1032010BD40
S315000050707145FBD852680CD0083202EB43130EFA86
S3150000508000F0596841EA0041090C09045960002002
S3150000509010BD083202EB431381405868014389B2C0
S315000050A0F4E700BF3002FE1F012921D830B4124CAC
S315000050B02368B3EB102F4FEA10220BD9A368C0B2B6
S315000050C053F8225000F1100C012303FA0CFC1CEAE1
S315000050D0050F02D1032030BC704703FA00F049B136
S315000050E083B2616852010831002030BC53507047CA
S315000050F0032070470304F4E73002FE1F2DE9F04158
S315000051002E4D2B68B3EB102F84B00CD9AB68060A72
S31500005110C7B253F8263007F110024FF0010808FA1B
S3150000512002F21A4203D1032004B0BDE8F08102ABBB
S31500005130ADF80C0068460C4602910193ADF800806C
S31500005140FFF7A0FDD5E9035107EB0613EFF3108631
S3150000515088F310881A48028892B212B9EA7040227F
S31500005160EA700288013292B2028086F31088E60362
S3150000517051F8232007D522F4803241F8232024F465
S31500005180803241F8232041F82340EFF310820123B7
S3150000519083F3108803889BB21BB10388013B9BB243
S315000051A0038003889BB213B98021EB70E97082F308
S315000051B01088002004B0BDE8F08100BF3002FE1F59
S315000051C09402FE1F034B04301B6823F820100020B6
S315000051D0704700BF9802FE1F034B1A68031D00208C
S315000051E022F82300704700BF9802FE1F034B1A687F
S315000051F0137843F080030020137070479802FE1F57
S31500005200034B1A6813786FF3C713002013707047A7
S315000052109802FE1F20B14FF0022303600020704762
S315000052200120704770B586B0002830D01A4A002396
S315000052300B21CDE90113CDE90333D268059304466A
S3150000524002A901A89047054610B1284606B070BDD0
S31500005250124E029B336001A802F05CF862685AB1F4
S31500005260A368306803EB820C598813F8042B0432C8
S315000052709C4520F82210F7D12378002BE5D0326820
S315000052801378284643F08003137006B070BD0125DD
S31500005290284606B070BD00BF005701009802FE1FE9
S315000052A060B1012808D1094B1B680020402141222A
S315000052B0187119711A71704701207047034B1B68EA
S315000052C040214122987099709A7070479802FE1F8B
S315000052D020B14FF002230360002070470120704781
S315000052E0A0B10D4B02689A4212D1826972B18388CD
S315000052F0983B9BB2012B0DD8537F61F30413537770
S31500005300537F43F001030020537770470120704715
S31500005310072070470620704743414D4478B10A4B39
S3150000532002689A420DD183694BB15A7F6FF304121A
S315000053305A775A7F6FF3000200205A777047012090
S3150000534070470720704700BF43414D44B8B1144B26
S3150000535002689A4215D183698BB181B19A7FC2F3F3
S31500005360C0128A711A8A12F4404FC2F381300AD1F0
S315000053704FF6FF720A609B688B8000207047012001
S315000053807047072070474FF4806202280A6003D1F5
S315000053909B898B80002070470128F9D0EBE700BF7E
S315000053A043414D4482693AB313682BB310B4546831
S315000053B0ECB1118AC1F30121012920D0022913D0B1
S315000053C0C379114984880968A03351F8230064F32E
S315000053D0080041F82300117F5DF8044B002341F0DB
S315000053E0010118461177704723439B07E8D0012334
S315000053F018465DF8044B704701231846704723434F
S3150000540013F00103F4D1DBE7A002FE1F38B1054A11
S315000054100368934201D1FFF7C5BF072070470120FB
S31500005420704700BF43414D4408B3134B02689A428C
S315000054301FD18269DAB110B41049C3790968A03363
S3150000544051F823406FF3080441F82340007A0128FD
S3150000545005D151F823006FF3104041F82300137F64
S315000054605DF8044B6FF300030020137770470120AB
S3150000547070470720704700BF43414D44A002FE1FFE
S31500005480002850D02B4B02689A424ED18269002ADE
S3150000549049D0937FDB094AD130B5274990F807C038
S315000054A009680CF1A00483B051F8245063F3080591
S315000054B041F82450057A012D05D151F8245063F3A3
S315000054C0104541F82450137F6FF30003137790F9CA
S315000054D0063013F1210F19D0002B0FDB5A09174C98
S315000054E00121203203F01F0301FA03F344F82230AE
S315000054F0BFF34F8FBFF36F8F90F9063010490968DD
S3150000550051F8333000221A6090F807C0ADF806C093
S3150000551000240460072301A8ADF8043001F0E0FF81
S31500005520204603B030BD0120704707207047082091
S31500005530704700BF43414D44A002FE1F00E100E05A
S315000055408C500100002846D0254B02689A4244D16F
S315000055508369002B3FD010B41A7F6FF300021A77CD
S3150000556090F90620002A0FDB510902F01F0C1D4C92
S315000055702031012202FA0CF244F82120BFF34F8FAA
S31500005580BFF36F8F90F90620188A17494FF0020C67
S315000055906CF309201882196059609968012060F33C
S315000055A00F01996099686FF319419960197F01435A
S315000055B01977987FC009FCD1002A09DB09494FEA0F
S315000055C0521C012302F01F0203FA02F241F82C20BA
S315000055D05DF8044B7047012070470720704700BFF5
S315000055E043414D4400E100E00055004010B582B053
S315000055F001919DF810E0BDF814400092002830D0CB
S315000056001E4A016891422FD1826952B3118AC1F3B1
S31500005610813102292BD123B3917FC9092AD192F86E
S315000056201CC061F3000C82F81CC0019909B10199F4
S315000056301160009909B1009951609481916863F3F2
S315000056400F019160916863F319419160138A6EF3BB
S3150000565009231382FFF7A6FE002818BF132002B005
S3150000566010BD012002B010BD072002B010BD0620FB
S3150000567002B010BD082002B010BD00BF43414D442A
S3150000568000B583B00191009200282CD01C4A016815
S3150000569091422CD1826932B3118A11F4404F00D164
S315000056A00BB3917FC90926D192F81CC061F3000C97
S315000056B082F81CC0019909B101991160009909B1DC
S315000056C000995160118A11F4404F09BF9168938186
S315000056D063F30F019160FFF765FE002818BF1320E2
S315000056E003B05DF804FB012003B05DF804FB07205E
S315000056F003B05DF804FB082003B05DF804FB00BFAF
S3150000570043414D442DE9F04788B0002800F0598107
S315000057100F46002900F055810A68002A00F05181E1
S315000057200B69002B00F04D81D17811F0C00F0446B3
S3150000573005D0D28992B2B2F5806F00F24281C54A95
S315000057402168914200F063819DF80420DFF81483FC
S315000057506FF300028DF804201A78E2715A68E2604D
S315000057600023CDE90433CDE906330293D8F800309F
S31500005770002B00F03781DFF8F092D9F80C5002AE1A
S31500005780DFF8E8A2DAF80030002B00F02181E37997
S31500005790ADF80A30072304A9ADF808303046A8470B
S315000057A00546002840F00E8101A801F08FFC9DF807
S315000057B00430DDF810A0C3F300032372DF23A371C6
S315000057C0BB68C4F818A013B3D9F81030039529465E
S315000057D003AA304698479DF90C30A37113F1210FA7
S315000057E0054600F0F380F9799B4A0901002B1268FF
S315000057F0C9B2C0F2068103F1604000F5614080F84D
S31500005800001352F833301C60002D40F0DB80304628
S3150000581001F038FE0546002840F0D480304601F0FD
S3150000582079FD237AE179012B09D1D8F8003001F10D
S31500005830A00253F8220065F3104043F822009AF8BC
S315000058401C306FF300038AF81C303B68BAF814006A
S315000058509A78C2F3810262F38710AAF81400DA7804
S31500005860BAF81400C2F3810262F38F30AAF814006A
