S01900006164635F6672616D65776F726B5F7468642E7372656317
S31500000000F81FFE1F11900000E18600001F900000FF
S315000000101F9000001F9000001F90000000000000CD
S315000000200000000000000000000000001F9000001B
S315000000301F90000000000000D1AE000079AF000064
S315000000404F800000FFFFFFFFFFFFFFFFFFFFFFFFE7
S31500000050FFFFFFFFFFFFFFFFFFFFFFFFFFFFFFFFAA
S31500000060FFFFFFFFFFFFFFFFFFFFFFFFFFFFFFFF9A
S31500000070FFFFFFFFFFFFFFFFFFFFFFFFFFFFFFFF8A
S31500000080FFFFFFFFFFFFFFFFFFFFFFFFFFFFFFFF7A
S31500000400FFFFFFFFFFFDFFFFFFFFFFFFFFFFFFFFF8
S31500000410FFFFFFFFFFFFFFFFFFFFFFFFFFFFFFFFE6
S31500000420FFFFFFFFFFFFFFFFFFFFFFFFFFFFFFFFD6
S31500000430FFFFFFFFFFFFFFFFFFFFFFFFFFFFFFFFC6
S31500000440FFFFFFFFFFFFFFFFFFFFFFFFFFFFFFFFB6
S31500000450FFFFFFFFFFFFFFFFFFFFFFFFFFFFFFFFA6
S31500000460FFFFFFFFFFFFFFFFFFFFFFFFFFFFFFFF96
S31500000470FFFFFFFFFFFFFFFFFFFFFFFFFFFFFFFF86
S31500000480FFFFFFFFFFFFFFFFFFFFFFFFFFFFFFFF76
S31500000490FFFFFFFFFFFFFFFFFFFFFFFFFFFFFFFF66
S315000004A0FFFFFFFFFFFFFFFFFFFFFFFFFFFFFFFF56
S315000004B0FFFFFFFFFFFFFFFFFFFFFFFFFFFFFFFF46
S315000004C0FFFFFFFFFFFFFFFFFFFFFFFFFFFFFFFF36
S315000004D0FFFFFFFFFFFFFFFFFFFFFFFFFFFFFFFF26
S315000004E0FFFFFFFFFFFFFFFFFFFFFFFFFFFFFFFF16
S315000004F0FFFFFFFFFFFFFFFFFFFFFFFFFFFFFFFF06
S31500000500A404FE1F4B002010200000002000010064
S315000005102F0000002F0001000C0001001100000058
S31500000520300000003000010024000000240001001B
S315000005302400020024000300240004002400050017
S315000005401300000017000000230000002100000037
S31500000550210001000700000007000100070002005B
S315000005600700030007000400070005000700060057
S315000005700700070012000000440000000800000009
S315000005800B00000041000000400000004000010098
S3150000059004000000430000002B0000002B000A00AE
S315000005A02B000B002B000C002B000D002B00010074
S315000005B02B0002002B0003002B0004002B0005007B
S315000005C02B0006002B0007002B0008002B0009005B
S315000005D00600000006000A0006000B0006000C00DC
S315000005E006000D0006000E0006000F0006000100C2
S315000005F006000200060003000600040006000500CF
S3150000060006000600060007000600080006000900AE
S315000006101500000015000100150002003100000061
S315000006202A00000045000000100000000301000041
S3150000063003000000030001000F0000000D00000091
S315000006402D000000420000002C0000002C000100DC
S315000006502C0002002C0003003200000028000000DD
S31500000660180000001400000014000100140002002D
S315000006701400030014000400140005001400060012
S3150000068014000700140008001400090034000000DC
S3150000069034000100160000001600010035000000BD
S315000006A03600000036000100220000003300000082
S315000006B0330100002900000010B5054C237833B93A
S315000006C0044B13B10448AFF300800123237010BD1F
S315000006D03403FE1F0000000008DA000008B5034BD3
S315000006E01BB103490348AFF3008008BD00000000BA
S315000006F03803FE1F08DA000080B586B000AF7860C8
S3150000070039607B687B6100233B613968786900F05A
S315000007103BFA38613B69002B01D03B692EE03B6810
S315000007201A687B699A633B685A687B69DA633B6837
S315000007309A687B691A647B69181D3423012200219B
S3150000074009F00CFBF860FB68002B01D0642315E070
S315000007503968786900F00EF938613B69002B04D0DE
S315000007607B690433184609F04DFB3B69002B01D029
S315000007703B6903E07B69034A1A6000231846183771
S31500000780BD4680BD4743444180B58AB000AF78601E
S315000007907B683B623B6A002B01D101233CE03B6A4C
S315000007A01B681F4A934201D0072335E03B6A9B6BC7
S315000007B0DB68FB613B6ADB6B9B68BB613B6A9B6BDF
S315000007C01B687B613B6ADB6B1B683B613B6A0433DE
S315000007D00021184609F02CFBF860FB68002B01D0BD
S315000007E0082319E000237B62FB699B6878699847B8
S315000007F078627B6A002B04D1BB699B68386998478D
S3150000080078623B6A0433184609F03CFB7B6A002B8E
S3150000081001D07B6A00E0002318462837BD4680BD1C
S315000008204743444180B588B000AF78607B68FB6180
S315000008300023BB61FB69002B01D101232AE0FB6980
S315000008401B68164A934201D0072323E0FB69DB6B42
S315000008509B687B61FB69DB6B1B683B61FB6904334F
S315000008600021184609F0E4FAF860FB68002B01D075
S3150000087008230FE07B695B6838699847B861FB69B4
S315000008800433184609F0FEFABB69002B01D0BB6998
S3150000089000E0002318462037BD4680BD474344414B
S315000008A080B584B000AF78607B68FB60FB68002B86
S315000008B001D1012318E0FB681B680D4A934201D061
S315000008C0072311E0FB6804330021184609F0B0FA4B
S315000008D0F86800F023F8FB680433184609F092FA2A
S315000008E0FB6800221A60002318461037BD4680BDFB
S315000008F04743444180B483B000AF78607B68002BE7
S3150000090001D1012304E04FF002227B681A60002324
S3150000091018460C37BD465DF8047B704780B582B03B
S3150000092000AF78607B68DB6B9B681B6A7A68D26B6A
S315000009301268104698477B689B6BDB689B6A7A68EF
S31500000940926B1268104698477B6893F8663083F07E
S315000009500103DBB2002B08D07B681B6C9B68DB694C
S315000009607A68126C12681046984700BF0837BD4671
S3150000097080BDFFFFB0B5A6B004AF78603960002334
S31500000980C7F884300023A7F882300023A7F86E301A
S3150000099007F14C0300221A605A609A60DA601A6105
S315000009A07B689B6BDB68FB677B68DB6B9B68BB6765
S315000009B07B689B6B1B687B677B68DB6B1B683B6795
S315000009C03B685B685B6807F12C041D460FCD0FC4BE
S315000009D095E80F0084E80F0000233B6400237B6446
S315000009E03B681B68596807F10803242218460AF079
S315000009F07BFE634BBB617B68FB61FB6F1B6807F18A
S31500000A0008021146786F9847C7F88400D7F88430F3
S31500000A10002B40F0AE80FB6F5B683A681268926804
S31500000A201146786F9847C7F88400D7F88430002BB2
S31500000A3040F09B80BB6F1B6807F12C021146386F94
S31500000A409847C7F88400D7F88430002B40F0888098
S31500000A503B68DA687B689A643B685A697B68DA6443
S31500000A607B6800221A653B689A697B685A653B6811
S31500000A709A697B689A653B681A7C7B6883F866206E
S31500000A803B681A6A7B689A663B685A6A7B68DA66CC
S31500000A90BB6FDB6907F160021146386F9847C7F8EC
S31500000AA08400D7F88430002B0AD0BB6F1B6A386FDE
S31500000AB09847FB6F9B6A786F9847D7F884305AE05F
S31500000AC0B7F86E30A7F882303B681B68DB68DB6AD4
S31500000AD007F14C021146786F9847C7F88400D7F89B
S31500000AE08430002B24D1FA6C7B685A6497F8543012
S31500000AF01A467B681A663B6D9AB27B68A3F8642037
S31500000B007B6893F8663083F00103DBB2002B0FD0CD
S31500000B106C4607F1540393E8070084E8070007F1E1
S31500000B204C030CCB3968786800F074F8C7F8840079
S31500000B30D7F88430002B08D0BB6F1B6A386F9847F4
S31500000B40FB6F9B6A786F984713E00E4B9B6897F88C
S31500000B505520B7F8821010469847C7F8840008E079
S31500000B60FB6F9B6A786F984703E0FB6F9B6A786F11
S31500000B709847D7F8843018468837BD46B0BD00BFC1
S31500000B80E90C000008CE000080B485B000AF7860A4
S31500000B9039600023FB607B68002B01D1012331E023
S31500000BA07B681B681A4A934201D108232AE03B68F6
S31500000BB0002B01D1012325E03B681B6A002B01D1E4
S31500000BC001231FE03B681B68002B01D1012319E0BC
S31500000BD03B685B68002B01D1012313E03B681B7C5B
S31500000BE083F00103DBB2002B05D03B689B68002B2A
S31500000BF001D1012306E03B689B69002B01D1032349
S31500000C0000E0FB6818461437BD465DF8047B704764
S31500000C104743444182B0B0B58AB000AF78603960CE
S31500000C2007F1380181E80C0000237B627B681B6CAE
S31500000C301B683B623B689B685B6807F108041D46BE
S31500000C400FCD0FC42B682360B7F84230BB81FB6B16
S31500000C50FB83BB68FA8BDA81BB68BA6B5A6097F87C
S31500000C604030BA6803F00303D9B2D37861F30513B1
S31500000C70D370BB683A68D2689A603B689A69BB6869
S31500000C8092B29A81FB6B7A68526D03FB02F27B6823
S31500000C90DA657B68DB6D7A68126E02FB03F35A0035
S31500000CA07B68DB6C9A4202D9CD237B6213E03B68FA
S31500000CB09B689B681B6807F108021146386A9847CB
S31500000CC078627B6A002B06D13B689B689B689B68B1
S31500000CD0386A984778627B6A18462837BD46BDE869
S31500000CE0B04002B07047FFFF90B58FB000AF78609C
S31500000CF00023FB627B68002B00F0CE807B685B687C
S31500000D00002B00F0C9807B689B78002B40F0C680E2
S31500000D107B685B68FB62FB6A1B68634A934240F030
S31500000D20BF80FB6A93F8663083F00103DBB2002BC9
S31500000D3047D0FB6A1B6C9B687B62FB6A1B6C1B685B
S31500000D403B62FB6A1B6D3B61FB6A9B6CBB61FB6A8A
S31500000D50DB6DFB61FB6A1A6DFB6ADB6D1A44FB6A8D
S31500000D601A65FB6A1A6DFB6ADB6D1344FA6A126E2A
S31500000D7003FB02F2FB6ADB6C9A4202D9FB6A002291
S31500000D801A657B6A5C68FB6A586CFB6A9A6CFB6A3C
S31500000D901B6DF96A096E01FB03F35B001A44FB6ADB
S31500000DA05B6D9BB20146386AA04700233B73FB6A22
S31500000DB0DB6E7B61FB6A9B6E07F10C02104698475F
S31500000DC06FE0FB6A1B6DFA6A126E02FB03F37B632C
S31500000DD0FB6A5B6CBB6200233B6310E03B6B5B0012
S31500000DE0BA6A1A44FB6A996C7B6B581C78635B0081
S31500000DF00B44128892B21A803B6B01333B63FB6A49
S31500000E00B3F864301A46FB6A1B6E02FB03F33A6BB7
S31500000E109A42E3D3FB6A1B6DFA6AB2F864201A445D
S31500000E20FB6A1A65FB6A9B6D5A1EFB6A9A65FB6A2A
S31500000E309B6D002B35D1FB6A1B6D3B61FB6A9B6C7E
S31500000E40BB61FB6AB3F864301A46FB6A5B6D02FB52
S31500000E5003F3FB61FB6A1A6DFB6AB3F8643019464B
S31500000E60FB6A5B6D01FB03F31A44FB6ADB6C9A4277
S31500000E7002D9FB6A00221A6500233B73FB6ADB6E0C
S31500000E807B61FB6A9B6E07F10C0210469847FB6A72
S31500000E905A6DFB6A9A6504E000BF02E000BF00E0FD
S31500000EA000BF3C37BD4690BD4743444180B483B044
S31500000EB000AF78600B467B807B881B0A9BB2DBB257
S31500000EC05A017B68134418460C37BD465DF8047B0F
S31500000ED0704780B483B000AF78600B467B807B8818
S31500000EE01B0A9BB2DBB21A017B88DBB213449A0061
S31500000EF07B68134418460C37BD465DF8047B704783
S31500000F0080B485B000AF78600B46FB701346BB70AB
S31500000F10BB78012B10D17B681B78FB73FB78DB4316
S31500000F20DAB2FB7B1340FB73FB7B03F03003FB73EE
S31500000F307B68FA7B1A7010E0BB78002B0DD17B68BA
S31500000F401B78FB73FA7BFB781343FB73FB7B03F085
S31500000F503003FB737B68FA7B1A7000BF1437BD46FB
S31500000F605DF8047B704780B586B000AFF860084630
S31500000F7011461A4603467B810B463B811346FB808E
S31500000F80FB6808337A8911461846FFF78FFF7861A8
S31500000F90FB881A043B891A437B691A6000BF18371D
S31500000FA0BD4680BD80B586B000AF78600B467B80BD
S31500000FB07B6804337A8811461846FFF777FF786115
S31500000FC07B691B683B613B691B0C3B613B699BB2C0
S31500000FD03B613B69FB81FB8918461837BD4680BDDE
S31500000FE080B586B000AFF860084611461A4603463B
S31500000FF07B810B463B811346FB80FB6808337A896D
S3150000100011461846FFF752FF78617B6904337B610E
S31500001010FB881A043B891A437B691A6000BF18379C
S31500001020BD4680BD80B586B000AFF8600846114663
S315000010301A4603467B810B463B811346FB80002301
S315000010407B61FB6808337A8911461846FFF72EFF45
S3150000105038613B6904333B613B691B687B6197F8E8
S315000010602030012B0ED13B897A6913437B61FB88C3
S315000010701B046FEA13436FEA03431A467B69134066
S315000010807B610CE0FB881B047A6913437B613B8917
S315000010906FEA03436FEA13437A6913407B613B6946
S315000010A07A691A6000BF1837BD4680BD80B584B026
S315000010B000AF78600B467B807B881946786800F025
S315000010C0F9F8F860FB6803F00203002B01D0012356
S315000010D000E0002318461037BD4680BD80B586B0B7
S315000010E000AF78600B467B807B6804337A881146B4
S315000010F01846FFF7DBFE78617B691B683B613B693D
S315000011009BB23B613B69FB81FB8918461837BD469C
S3150000111080BD80B584B000AF78600B467B807B686D
S315000011207A8811461846FFF7C1FEF860FB681B680F
S31500001130BB60BB689BB2BB60BB689BB218461037EE
S31500001140BD4680BD80B586B000AFF860B960114677
S315000011501A460B46FB8013467B71FB881946F868D6
S3150000116000F0A8F878617B79002B04D17B6923F025
S3150000117004037B6103E07B6943F004037B617A69C6
S31500001180064B13407B61FA887B69B968F86800F002
S31500001190A3F800BF1837BD4680BD00BFD5FC011FB0
S315000011A080B584B000AF78600B467B8013463B80E9
S315000011B07B687A8811461846FFF778FEF860FB6868
S315000011C01B68BB60BB681B0C1B04BB603B88BA6812
S315000011D01343BB60FB68BA681A6000BF1037BD4690
S315000011E080BDFFFF80B487B000AF786000237B61CD
S315000011F0EFF31083FB60FB687B6101233B613B6976
S3150000120083F3108800BF0F4B1B889BB2002B05D1C0
S315000012107B680022DA707B684022DA70094B1B88F3
S315000012209BB201339AB2074B1A807B69BB60BB68DD
S3150000123083F3108800BF00BF1C37BD465DF8047BF2
S31500001240704700BF5003FE1F80B487B000AF7860C0
S3150000125000237B61EFF31083FB60FB687B61012356
S315000012603B613B6983F3108800BF114B1B889BB21F
S31500001270002B06D00E4B1B889BB2013B9AB20C4B3F
S315000012801A800B4B1B889BB2002B05D17B68002272
S31500001290DA707B688022DA707B69BB60BB6883F397
S315000012A0108800BF00BF1C37BD465DF8047B704741
S315000012B05003FE1F80B584B000AF78600B467B807C
S315000012C07B8819467868FFF704FEF860FB681B68A0
S315000012D018461037BD4680BD80B588B000AFF860AF
S315000012E0B9603B601346FB80FB881946F868FFF738
S315000012F0F0FDF861B868FFF775FFFB691B68BB6115
S315000013003B6803F48033002B0FD0BB697B617B699C
S3150000131023F480337B61FB697A691A603B6823F4A6
S3150000132080337B61FB697A691A60FB693A681A60E7
S31500001330B868FFF789FF00BF2037BD4680BDFFFFB5
S3150000134080B588B000AF78607B68002B01D101239F
S3150000135044E07B685B68002B01D101233EE000235B
S31500001360FB6107F10C0300221A605A609A60DA608A
S315000013700023FB8300237B7709233B77194BDB682C
S3150000138007F10C0107F11C0210469847FB68164A44
S315000013901360BB69154A13603B8A1A46144B1A60E0
S315000013A00A233B770F4BDB6807F10C0107F11C02A0
S315000013B010469847FB680F4A136001237B77094B59
S315000013C0DB6807F10C0107F11C0210469847FB6821
S315000013D0094A1360786800F011F80346184620376A
S315000013E0BD4680BD70D40000F002FE1FFC02FE1F49
S315000013F00003FE1FF402FE1FF802FE1F90B585B023
S3150000140000AF78607B68002B01D1012329E07B685F
S315000014105B68002B01D1012323E0786800F020FBF4
S315000014207B68BB600023FB8115E0104B1868104BEE
S315000014301968BB685A68FB89DB0013449C88BB6843
S315000014405A68FB89DB0013441B682246FFF744FFFA
S31500001450FB890133FB81BB681B88FA899A42E4D376
S31500001460002318461437BD4690BD00BFF402FE1F88
S31500001470F802FE1F80B588B000AF03463960FB80D6
S315000014800023FB61FB88184600F0A2FAF861FB69AD
S31500001490002B01D0FB6916E0FB883B823B68FB60B2
S315000014A00123BB8207F10C03BB6107F11403184645
S315000014B000F0D6FA064B1868064B1968FA883B689E
S315000014C0FFF70AFF002318462037BD4680BD00BF40
S315000014D0F402FE1FF802FE1F80B584B000AF03467B
S315000014E03960FB800023FB60FB88184600F070FA29
S315000014F0F860FB68002B01D0FB6810E03B68002B0E
S3150000150001D101230BE0084B1B68FA8811461846E7
S31500001510FFF7CCFD03461A463B681A7000231846AF
S315000015201037BD4680BD00BFF402FE1F80B584B0F3
S3150000153000AF03463960FB800023FB60FB8818463A
S3150000154000F074FAF860FB68002B01D0FB6810E02D
S315000015503B68002B01D101230BE0084B1B68FA887E
S3150000156011461846FFF7BAFD03461A463B681A802D
S31500001570002318461037BD4680BD00BFF002FE1F8F
S3150000158080B584B000AF0346FB800B46BB80134694
S315000015907B807B88002B01D1032320E00023FB60A6
S315000015A0FB88184600F042FAF860FB68002B01D071
S315000015B0FB6814E0BA887B8813407B81B7F9043056
S315000015C0DB431AB2B7F9023013401BB23B81064B1C
S315000015D018683B897A89F988FFF7C5FC0023184605
S315000015E01037BD4680BD00BFF002FE1F80B586B035
S315000015F000AF03460A46FB8013467B717B79012BBD
S3150000160001D903232BE000233B61FB88184600F039
S31500001610DFF938613B69002B01D03B691FE00023ED
S31500001620FB820023BB82FB8823F0FF03FB81FB8840
S31500001630DBB2BB81BB89012202FA03F37B817B7992
S31500001640002B02D17B89BB8201E07B89FB82064BA2
S315000016501868BB8AFA8AF989FFF785FC00231846C1
S315000016601837BD4680BD00BFF002FE1F80B586B0AC
S3150000167000AF0346FB800B46BB8013467B807B880E
S31500001680002B01D1032335E000237B61FB8818463C
S3150000169000F0CCF978617B69002B01D07B6929E0E9
S315000016A0164B1B68FA8811461846FFF732FD0346AB
S315000016B07B82BA887B8813403B82B7F90430DB43D0
S315000016C01AB2B7F9023013401BB2FB817B8ABB8189
S315000016D0BA893B8A1343BB81FB89DB439AB2BB8938
S315000016E01340BB81054B1B68BA89F9881846FFF77A
S315000016F057FD002318461837BD4680BDF002FE1F71
S3150000170080B584B000AF03460A46FB8013467B7162
S315000017107B79002B04D07B79012B01D0032314E0C5
S315000017200023FB60FB88184600F052F9F860FB685E
S31500001730002B01D0FB6808E0064B1868064B1968B9
S315000017407B79FA88FFF7FEFC002318461037BD4662
S3150000175080BD00BFF402FE1FF802FE1F80B584B0F4
S3150000176000AF03463960FB800023FB60FB88184608
S3150000177000F05CF9F860FB68002B01D0FB6810E014
S315000017803B68002B01D101230BE0084B1B68FA884C
S3150000179011461846FFF706FC03461A463B681A80B0
S315000017A0002318461037BD4680BD00BFF002FE1F5D
S315000017B080B586B000AF03463960FB8000237B61AD
S315000017C0FB88184600F004F978617B69002B01D08C
S315000017D07B692AE03B68002B01D1012325E0FB88C9
S315000017E07B827B8A23F0FF037B827B8A3B82114BC1
S315000017F01B683A8A11461846FFF7D4FB0346FB815D
S31500001800FB88DBB2012202FA03F3BB81FA89BB89AA
S3150000181013409BB2BA899A4203D13B6801221A70DF
S3150000182002E03B6800221A70002318461837BD46AE
S3150000183080BD00BFF002FE1F80B584B000AF034636
S31500001840FB800B46BB8013467B800023FB60FB8836
S31500001850184600F0EBF8F860FB68002B01D0FB6837
S3150000186019E07B88002B01D1032314E0BA887B881A
S3150000187013407B81B7F90430DB431AB2B7F9023063
S3150000188013401BB23B81064B18683B897A89F9885D
S31500001890FFF7A6FB002318461037BD4680BD00BFE4
S315000018A0F002FE1F90B589B002AF03460A46FB80E0
S315000018B013467B7100233B61FB88184600F088F8CD
S315000018C038613B69002B01D03B692EE07B79012B07
S315000018D004D07B79002B01D0032326E0FB88FB8113
S315000018E0FB8923F0FF03FB81FB89BB810023FB827D
S315000018F00023BB827B79012B06D1FB88DBB2012258
S3150000190002FA03F3FB8205E0FB88DBB2012202FA4E
S3150000191003F3BB82074B1868BC8AFA8AB9897B79BC
S3150000192000932346FFF77EFB002318461C37BD466F
S3150000193090BD00BFF002FE1F80B483B000AF786098
S315000019407B68002B01D101230CE07B6800221A7012
S315000019507B6802225A707B6800229A707B6802229A
S31500001960DA70002318460C37BD465DF8047B7047D5
S3150000197080B584B000AF03460A46FB711346BB71BF
S3150000198000233B7307F10C03184606F02CFE3B7B45
S3150000199003F00103DBB2002B01D1062311E0FB7932
S315000019A0202B01D903230CE0BB79012B01D903239A
S315000019B007E0064B1B68BA79F9791846FFF7A0FAD3
S315000019C0002318461037BD4680BD00BFF802FE1F33
S315000019D080B487B000AF0346FB80FB881B0A9BB22E
S315000019E07B61FB88DBB23B610E4B1B687A699A42CE
S315000019F011D23B691033012202FA03F3FB600A4B52
S31500001A001A687B699B0013441A68FB681340002B15
S31500001A1001D0002300E0032318461C37BD465DF8BD
S31500001A20047B70470003FE1FFC02FE1F80B485B0D6
S31500001A3000AF0346FB80FB881B0A9BB2FB60074B8B
S31500001A401B68FA689A4201D2002300E00323184675
S31500001A501437BD465DF8047B704700BF0003FE1FC8
S31500001A6080B586B000AF78600023FB730023BB739C
S31500001A7000237B6139E000233B6130E07B685A68D4
S31500001A807B69DB0013449A8829493B6931F8133096
S31500001A909A4221D17B685A687B69DB0013441B6834
S31500001AA003F0F853BB60BB68B3F1807F03D0BB681B
S31500001AB0B3F1106F08D101223B6902FA03F3DAB2DF
S31500001AC0FB7B1343FB7307E001223B6902FA03F336
S31500001AD0DAB2BB7B1343BB733B6901333B613B69A2
S31500001AE0022BCBD97B6901337B617B681B881A4645
S31500001AF07B699342BFD3012007F0F2F90D4B93F8AF
S31500001B00BB347B737A7BFB7B13437B73BB7BDB43EF
S31500001B10DAB27B7B13407B73064A7B7B82F8BB344D
S31500001B20012007F08DF900BF1837BD4680BD00BF04
S31500001B30D8CD000000E0014080B483B000AF03467A
S31500001B40FB7197F90730002B0BDBFB7903F01F02C3
S31500001B50074997F907305B09012000FA02F241F8BC
S31500001B60232000BF0C37BD465DF8047B704700BFDD
S31500001B7000E100E080B483B000AF0346FB7197F943
S31500001B800730002B12DBFB7903F01F020A4997F995
S31500001B9007305B09012000FA02F2203341F82320C6
S31500001BA0BFF34F8F00BFBFF36F8F00BF00BF0C376F
S31500001BB0BD465DF8047B704700E100E080B483B069
S31500001BC000AF0346FB7197F90730002B0CDBFB795E
S31500001BD003F01F02074997F907305B09012000FA55
S31500001BE002F2603341F8232000BF0C37BD465DF892
S31500001BF0047B704700E100E080B483B000AF034689
S31500001C003960FB7197F90730002B0ADB3B68DAB2C3
S31500001C100C4997F907301201D2B20B4483F800231E
S31500001C200AE03B68DAB20849FB7903F00F03043B8C
S31500001C301201D2B20B441A7600BF0C37BD465DF8CE
S31500001C40047B704700E100E000ED00E080B483B063
S31500001C5000AF03463960FB71064B1A6897F90730E7
S31500001C60DB001A443B681A6000BF0C37BD465DF8BE
S31500001C70047B704794CF000080B483B000AF7860D7
S31500001C800B46FB70FB7803F00703D9B27A68D36A78
S31500001C9061F31243D36200BF0C37BD465DF8047B87
S31500001CA0704780B483B000AF786039607B683A686B
S31500001CB05A6600BF0C37BD465DF8047B704780B49A
S31500001CC083B000AF78607B685B6E18460C37BD4604
S31500001CD05DF8047B704780B483B000AF78600B4634
S31500001CE0FB70FB7803F00703D9B27A68D36A61F315
S31500001CF01A63D36200BF0C37BD465DF8047B70479C
S31500001D0080B483B000AF78607B68DB6AC3F302639C
S31500001D10DBB218460C37BD465DF8047B704780B4CD
S31500001D2083B000AF78600B46FB70FB7803F00103CD
S31500001D30D9B27A68D36A61F30003D36200BF0C3765
S31500001D40BD465DF8047B704780B483B000AF786011
S31500001D5039607B683A689A6400BF0C37BD465DF807
S31500001D60047B704780B483B000AF78607B689B6C5F
S31500001D7018460C37BD465DF8047B704780B483B0C7
S31500001D8000AF78600B46FB707A68136B43F0020372
S31500001D901363FB7803F00103D9B27A68136B61F31E
S31500001DA0000313637A68136B6FF34103136300BF79
S31500001DB00C37BD465DF8047B704780B483B000AF36
S31500001DC078607B681B6BC3F30003DBB218460C37E5
S31500001DD0BD465DF8047B704780B483B000AF786081
S31500001DE07B68DB6AC3F30003DBB218460C37BD46DB
S31500001DF05DF8047B704780B483B000AF78600B4613
S31500001E00FB70FB78002B03D17B683433023301E08F
S31500001E107B68343318460C37BD465DF8047B704743
S31500001E2080B483B000AF78600B46FB70FB7803F09C
S31500001E300303D9B27A68138861F38713138000BF4E
S31500001E400C37BD465DF8047B704780B483B000AFA5
S31500001E5078600B46FB70F9787A68138861F308237B
S31500001E60138000BF0C37BD465DF8047B704780B415
S31500001E7083B000AF78600B46FB70FB7803F003037A
S31500001E80D9B27A68138861F38303138000BF0C37D5
S31500001E90BD465DF8047B704780B483B000AF7860C0
S31500001EA00B46FB701346BB70FB78002B09D1BB7841
S31500001EB003F00303D9B27A68136B61F3114313631A
S31500001EC00BE0FB78012B08D1BB7803F00303D9B2F2
S31500001ED07A68136B61F31963136300BF0C37BD4651
S31500001EE05DF8047B704780B485B000AFF8600B46A0
S31500001EF07A60FB72FB7A002B03D1FB687A68DA649E
S31500001F0002E0FB687A681A6500BF1437BD465DF8C3
S31500001F10047B704780B483B000AF78600B46FB70DB
S31500001F20FB78002B06D17A68136C012161F311430B
S31500001F30136405E07A68136C012161F3934313641B
S31500001F4000BF0C37BD465DF8047B704780B485B092
S31500001F5000AFF8600B467A60FB72FB7A002B03D168
S31500001F60FB687A685A6502E0FB687A689A6500BF82
S31500001F701437BD465DF8047B704780B483B000AF6C
S31500001F8078600B46FB70FB7803F00303D9B27A68DE
S31500001F90138861F30103138000BF0C37BD465DF85B
S31500001FA0047B704780B483B000AF78600B46FB704B
S31500001FB0FB7803F00103D9B27A68138861F304133E
S31500001FC0138000BF0C37BD465DF8047B704780B4B4
S31500001FD083B000AF78600B467B807B684FF4254268
S31500001FE01A607B6800221A617B6800225A617B684E
S31500001FF000225A617B680022DA617B6800221A623D
S315000020007B6800225A627B6800229A627B68002203
S31500002010DA627B6801221A637B6800225A637B6856
S3150000202000229A637B680022DA637B6800221A64C6
S315000020307B6800229A647B684FF0FF32DA647B6823
S315000020404FF0FF321A657B684FF0FF325A657B68A6
S315000020504FF0FF329A657B684FF0FF325A667B6815
S315000020604FF0FF329A667B680022C3F888207B68AF
S315000020704FF0FF32C3F88C207B88002B33D07B686F
S3150000208000225A647B684FF0FF32DA667B684FF0B5
S31500002090FF321A677B684FF0FF32DA677B684FF0D2
S315000020A0FF325A677B684FF0FF32C3F880207B68A7
S315000020B04FF0FF329A677B684FF0FF32C3F88420F7
S315000020C07B684FF0FF32C3F890207B684FF0FF32F9
S315000020D0C3F894207B684FF0FF32C3F898207B68E2
S315000020E00022C3F8A02000BF0C37BD465DF8047B74
S315000020F0704780B483B000AF0346FB71FB799BB297
S315000021001A46920013445B009BB2B6339BB2184644
S315000021100C37BD465DF8047B704780B483B000AFD2
S3150000212078600B46FB707A68936943F000439361CD
S31500002130FB7801229A407B68DA607A6893696FF3CC
S31500002140DF73936100BF0C37BD465DF8047B7047B3
S3150000215090B58FB002AF786039607B68FB623B68F0
S31500002160002B01D101237FE0FB6A002B01D1012363
S315000021707AE00023FB7600237B6100237B82002329
S31500002180FB603B685B7C9BB2FB8100237B732B234C
S315000021903B7307F11B0107F10C0207F112030193D0
S315000021A007F1140300930B463968F86A00F0AEFA9B
S315000021B0B862BB6A002B01D0BB6A55E03B68DB699D
S315000021C07B627B6A1A78FB6A9A747B6A9A78FB6AE6
S315000021D0DA747B6A1A79FB6A9A750023BB603B68DE
S315000021E01B78022B12D1FB6A987D3B68D9683B6845
S315000021F01A7C7C6907F108030093234600F066FD0C
S31500002200B862BB6A002B01D0BB6A2DE007F10C0354
S31500002210184606F089FD38623B6A002B01D0082378
S3150000222022E0FB6A9B68FB6107F10C03184606F087
S3150000223043FB0021F869FFF772FD7B8ADB089BB23E
S3150000224023F001039BB21946F869FFF7C0FEFA7E38
S315000022507969BB6800930B463968F86A00F0D0FAD2
S31500002260FB6A034ADA60002318463437BD4690BD40
S315000022705450470080B584B000AF78607B68FB603F
S31500002280FB68002B01D1012314E0FB689B68002B3F
S3150000229001D101230EE0FB68DB68084A934201D0B6
S315000022A0072307E0FB689B68BB600021B868FFF75F
S315000022B036FD002318461037BD4680BD54504700F2
S315000022C080B584B000AF78607B68FB60FB68002B4C
S315000022D001D1012314E0FB689B68002B01D1012387
S315000022E00EE0FB68DB68084A934201D0072307E04B
S315000022F0FB689B68BB600121B868FFF710FD0023EF
S3150000230018461037BD4680BD5450470080B584B08E
S3150000231000AF786039607B68FB60FB68002B01D1F9
S3150000232001231BE03B68002B01D1012316E0FB686B
S315000023309B68002B01D1012310E0FB68DB68094A8A
S31500002340934201D0072309E0FB689B68BB60B8682D
S31500002350FFF708FD02463B681A600023184610374F
S31500002360BD4680BD5450470080B58AB000AF786046
S315000023707B687B627B6A002B01D1012337E07B6A95
S315000023809B68002B01D1012331E07B6ADB681A4A86
S31500002390934201D007232AE000233B62EFF3108328
S315000023A0FB60FB683B6201233B613B6983F310885A
S315000023B000BF7B6A9B68FB61F869FFF70DFD03466A
S315000023C0FB760021F869FFF7AAFC7B6A1B7C19469D
S315000023D0F869FFF7A2FEFB7E1946F869FFF79FFC36
S315000023E03B6A7B617B6983F3108800BF0023184634
S315000023F02837BD4680BD00BF5450470080B58CB01D
S3150000240002AFF860B9601346FB71FB687B627B6ABA
S31500002410002B01D1012349E07B6A9B68002B01D187
S31500002420012343E0BB68002B01D103233EE07B6A16
S31500002430DB68204A934201D0072337E000233B6242
S3150000244000237B610023FB7407F11401FA7907F17D
S31500002450130300930B46B968786A00F0A1FA386254
S315000024603B6A002B01D03B6A20E07B6A9B68FB61DC
S31500002470F869FFF7B1FC0346FB760021F869FFF720
S315000024804EFCFB7C1946F869FFF725FC7B69013B8E
S315000024901946F869FFF705FC0021F869FFF754FCB7
S315000024A0FB7E1946F869FFF73AFC002318462837E1
S315000024B0BD4680BD5450470090B58BB002AFF86062
S315000024C0B96011461A460B46FB711346BB71FB6891
S315000024D0FB61FB69002B01D1012336E0FB699B6898
S315000024E0002B01D1012330E0BB79002B04D0BB794E
S315000024F0012B01D0032328E0FB69DB68154A9342D0
S3150000250001D0072321E000233B61FB699B68BB6187
S31500002510FB699C7DB869FFF7D2FB0346591CFA7923
S3150000252007F1100300930B46B968204600F0CEFB76
S3150000253078617B69002B01D07B6906E03B69BA793B
S315000025401946F86900F06CFB002318462437BD468F
S3150000255090BD00BF5450470080B586B000AF78608C
S3150000256039607B687B617B69002B01D1012345E0E3
S315000025703B68002B01D1012340E07B699B68002B5F
S3150000258001D101233AE07B69DB681E4A934201D000
S31500002590072333E07B699B683B613869FFF78FFB54
S315000025A003465A1C3B689A60786900F069FB02464C
S315000025B03B685A603869FFF700FC03461A463B68D9
S315000025C01A703869FFF708FC0346002B14BF012375
S315000025D00023FB73FB7B002B03D03B6800221A739E
S315000025E002E03B6801221A737B691B7C1846FFF7E1
S315000025F080FD03461A463B68DA81002318461837E1
S31500002600BD4680BD5450470080B588B000AF7860A5
S315000026107B68FB610023BB61FB69002B01D10123B1
S315000026205AE0FB699B68002B01D1012354E0FB694A
S31500002630DB682B4A934201D007234DE0FB699B6878
S315000026407B6100217869FFF76AFBFB6993F9143017
S3150000265013F1210F05D0FB6993F914301846FFF7E3
S3150000266089FA00217869FFF7C6FB386100213869CD
S31500002670FFF7EBFB01217869FFF7BDFB386100210D
S315000026803869FFF7E2FB0023FB60FB691B7C9BB20A
S31500002690FB8100237B732B233B7307F10C03184646
S315000026A006F070FBFB6900225A74FB6993F914303B
S315000026B013F1210F0CD0FB6993F9143007F10802CE
S315000026C011461846FFF7C2FABB681B6800221A605B
S315000026D0FB690022DA60BB6918462037BD4680BD1B
S315000026E05450470080B483B000AF78607B68002BFD
S315000026F001D1012304E04FF002227B681A60002317
S3150000270018460C37BD465DF8047B704780B58CB023
S3150000271002AFF860B9607A603B6007F114030022EB
S315000027201A605A609A60DA6000237B62334BDB687A
S3150000273007F1140211467868984778627B6A002B85
S3150000274001D07B6A56E07A69FB689A607A8B7B6B6C
S315000027501A8000233B61294B1B6907F110020621F1
S315000027607868984797F91020FB681A757B8B03F0F9
S315000027700403002B03D1FB6801225A7502E0FB68B3
S3150000278000225A75BB685968BB681A7A3B68009381
S315000027903B6BF86800F004F978627B6A002B01D085
S315000027A07B6A27E0BB685B69002B03D1BB681B789B
S315000027B0012B0FD1FB6893F9143013F1210F01D1CE
S315000027C00B2317E0BB685A69FB681A60BB689A69F5
S315000027D0FB685A60BB685A7CFB681A74BB681B7836
S315000027E0012B03D1FB6801225A7402E0FB68002228
S315000027F05A74002318462837BD4680BD70D40000A1
S3150000280080B58AB002AFF860B9603B601346FB71D1
S31500002810FB689B68FB610021F869FFF72DFA01212F
S31500002820F869FFF7ABFAFB791946F869FFF753FA2F
S315000028303B68013B1946F869FFF733FA0021F8694E
S31500002840FFF782FABB68DB69002B20D0BB68DB6927
S31500002850BB61BB691B78002B0AD0BB695A78BB6881
S315000028601978BB6A00930B460021F86800F0FEFA5F
S31500002870BB699B78002B0AD0BB69DA78BB681978EC
S31500002880BB6A00930B460121F86800F0EFFABB68BB
S315000028905B69002B03D1BB681B78012B27D1FB6832
S315000028A093F9143007F1140211461846FFF7CEF9D2
S315000028B0FB6893F91420BB689B7C19461046FFF70A
S315000028C09BF97B691B68FA681A60FB6893F91430F8
S315000028D0184606F087F9FB6893F914301846FFF797
S315000028E06DF9FB6893F914301846FFF725F9BB68B4
S315000028F0DB7C002B03D00121F869FFF710FA00BF3B
S315000029002037BD4680BD80B489B000AFF860B9609D
S315000029107A600023FB774FF0FF324FF00003C7E9E0
S315000029200423FB685B7D012B17D14FF6FF724FF036
S315000029300003C7E9042310E0BB68D3E900014FF0A8
S3150000294000024FF00003820842EA81728B08B968E0
S31500002950C1E90023FB7F0133FB77BB68D3E9002382
S31500002960D7E90401904271EB030302D2FB7F042BEB
S31500002970E2D9BB68D3E90023D7E90401904271EBA1
S31500002980030301D2032303E07B68FA7F1A70002356
S3150000299018462437BD465DF8047B7047FFFFFFFFEE
S315000029A02DE9B04FA8B000AFC7F88400C7F8801073
S315000029B0BB67134687F87F30D7F880300022BB66A6
S315000029C0FA66D7E91A23C7E924230023C7F89C30FF
S315000029D00023C7F88C30904B9A6907F18C0319468F
S315000029E00320904797F87F30062B00F2E98001A27A
S315000029F052F823F0112A0000812A0000DB2A000089
S31500002A002D2B0000812B0000572A0000252A0000EC
S31500002A10D7F8803000223B667A66D7E91834C7E9D2
S31500002A202434D1E0D7F88C300022BB65FA65D7F89C
S31500002A3080304FF47A7202FB03F300223B657A651D
S31500002A40D7E91423D7E9160108F0C6FC02460B465F
S31500002A50C7E92423B8E0D7F88C300022BB64FA64B7
S31500002A60D7F8803000223B647A64D7E91023D7E98F
S31500002A70120108F0B1FC02460B46C7E92423A3E085
S31500002A80D7F880300022BB63FA63D7F88C30002277
S31500002A903B637A63D7E90E452B46D7E90C89424654
S31500002AA002FB03F24B46214601FB03F31344224685
S31500002AB04146A2FB01127A670A463A677A6F1344C7
S31500002AC07B6753A3D3E90023D7E91C0108F084FCF4
S31500002AD002460B46C7E9242376E0D7F88030002269
S31500002AE0BB62FA62D7F88C3000223B627A62D7E981
S31500002AF00A452B46D7E90889424602FB03F24B46B4
S31500002B00214601FB03F3134422464146A2FB01ABD7
S31500002B105B449B46414A4FF000035046594608F035
S31500002B205BFC02460B46C7E924234DE0D7F880300C
S31500002B300022BB61FA61D7F88C3000223B617A61D2
S31500002B40D7E906452B46D7E904AB524602FB03F20A
S31500002B505B46214601FB03F3134422465146A2FB82
S31500002B6001894B4499464FF47A724FF00003404670
S31500002B70494608F031FC02460B46C7E9242323E008
S31500002B80D7F880300022BB60FA60D7F88C3000227C
S31500002B903B607A60D7E902894B46D7E900AB5246DB
S31500002BA002FB03F25B46414601FB03F31344424634
S31500002BB05146A2FB01452B441D46C7E9244503E0C7
S31500002BC00323C7F89C3000BFD7F89C30002B02D0F7
S31500002BD0D7F89C3016E007F19003D7F8C0201946C5
S31500002BE0D7F88400FFF78FFEC7F89C00D7F89C3013
S31500002BF0002B02D0D7F89C3004E0D7E92423BB6F22
S31500002C001A6000231846A037BD46BDE8B08F00BF46
S31500002C1000CA9A3B0000000070CE000040420F0040
S31500002C2080B586B000AFF860B9601346FB71FB68EB
S31500002C309B687B61BB68002B06D1FB790222194693
S31500002C407869FFF729F916E0BB68B3F1FF3F06D1B3
S31500002C50FB79032219467869FFF71EF90BE0FB7929
S31500002C60002219467869FFF717F9FB79BA68194601
S31500002C707869FFF76BF900BF1837BD4680BDFFFFC7
S31500002C8080B586B000AF78607B689B687B61002367
S31500002C90BB607869FFF734F80346FB74FB7C5B0086
S31500002CA0012202FA03F3FB60074B9B6907F1080256
S31500002CB0114603209847BA68FB68B2FBF3F318463F
S31500002CC01837BD4680BD00BF70CE00002DE9B04F5D
S31500002CD09AB000AF3965FB64034687F85730134650
S31500002CE087F856306FF001024FF00003C7E918234A
S31500002CF00023FB6597F85630022B37D0022B57DCA2
S31500002D00002B02D0012B09D052E03B6D0022BB60A4
S31500002D10FA60D7E90234C7E918344CE0FB6C0022AC
S31500002D203B647A643B6D0022BB63FA63D7E91045C6
S31500002D302B46D7E90EAB524602FB03F25B46214611
S31500002D4001FB03F3134422465146A2FB01894B447F
S31500002D5099464FF064024FF000034046494608F09A
S31500002D603BFB02460B46C7E9182324E0FB6C002216
S31500002D703B637A633B6D00229A469346D7E90C0182
S31500002D800B460AFB03F2034603FB0BF3134402460E
S31500002D90A2FB0A452B441D46334A4FF0000320464A
S31500002DA0294608F019FB02460B46C7E9182302E03C
S31500002DB00323FB6500BFFB6D002B01D0FB6D4DE0CF
S31500002DC097F85730012B1BD1FB6C0022BB62FA62CD
S31500002DD0D7E91823D7E90A452146891A39622946CF
S31500002DE061EB03037B62D7E908120B46013B3B60AC
S31500002DF0134643F1FF337B60D7E90034C7E9183443
S31500002E00FB6C0022BB61FA61D7E91823D7E90645B6
S31500002E1021462846834208BF8A4205D14FF0FF3239
S31500002E204FF00003C7E91823D7E91823511C0B43B9
S31500002E300FD0FB6C00223B617A61D7E91823D7E9F2
S31500002E40044521469142294671EB030301D203232F
S31500002E5004E03A6ED7F888301A60002318466837BF
S31500002E60BD46BDE8B08F00BFA086010080B584B026
S31500002E7000AF7860084611461A460346FB700B46BB
S31500002E80BB7013467B707B689B68FB60FB781946BA
S31500002E90F868FEF7B0FFB860BB781946B868FFF768
S31500002EA081F8BB781946B868FEF7BAFF0321B868FF
S31500002EB0FEF7DDFF7B78012B32D1FB780022194625
S31500002EC0F868FFF710F8FB781946F868FFF722F85C
S31500002ED07B685B7D012B07D1FB784FF6FF721946A5
S31500002EE0F868FFF733F806E0FB784FF0FF32194633
S31500002EF0F868FFF72BF8BB78002B08D10221B868D9
S31500002F00FFF73BF80121B868FEF7B1FF30E0012179
S31500002F10B868FFF732F80221B868FEF7A8FF27E085
S31500002F207B78002B04D10021B868FFF726F81FE054
S31500002F307B689B7D002B08D10121B868FFF71DF83F
S31500002F400221B868FEF793FF07E00221B868FFF791
S31500002F5014F80121B868FEF78AFFFB781946F8686D
S31500002F60FEF7D8FFFB781A46B9697868FFF758FE6E
S31500002F700121B868FEF769FF00BF1037BD4680BD66
S31500002F8080B483B000AF78607B6800229A707B685B
S31500002F9040229A707B6841229A7000BF0C37BD466A
S31500002FA05DF8047B704780B483B000AF78607B68BF
S31500002FB000221A717B6840221A717B6841221A71BD
S31500002FC000BF0C37BD465DF8047B704780B483B004
S31500002FD000AF78607A68137843F08003137000BFFF
S31500002FE00C37BD465DF8047B704780B483B000AFF4
S31500002FF078607A6813786FF3C713137000BF0C37C5
S31500003000BD465DF8047B704780B485B000AFF860BC
S31500003010B9601346FB80FB68BA680432F98823F866
S31500003020221000BF1437BD465DF8047B704780B49C
S3150000303083B000AF786039607B683A68043200215B
S3150000304023F8221000BF0C37BD465DF8047B70479D
S3150000305080B58AB000AF78607B68002B01D1012370
S3150000306045E00023FB610023FB8300237B770B23D2
S315000030703B7707F10C0300221A605A609A60DA6007
S315000030801D4BDB6807F10C0107F11C02104698473F
S3150000309038623B6A002B01D03B6A28E0FB68174A7E
S315000030A0136007F11C03184605F006FC00237B623B
S315000030B011E07B689A687B6A9B00134418787B68EA
S315000030C09A687B6A9B0013445B88194600F038F8BF
S315000030D07B6A01337B627B685B687A6A9A42E8D3D3
S315000030E07B681B78002B01D000F054F800231846AB
S315000030F02837BD4680BD00BF70D400005403FE1FB4
S3150000310080B582B000AF0346FB71FB79002B02D07D
S31500003110012B06D00BE0094B1B681846FFF730FF62
S3150000312007E0064B1B681846FFF73DFF01E0012349
S3150000313000E0002318460837BD4680BD5403FE1F35
S3150000314080B582B000AF03460A46FB711346BB80CA
S31500003150054B1B68F979BA881846FFF755FF002317
S3150000316018460837BD4680BD5403FE1F80B582B0A1
S3150000317000AF0346FB71064B1B68FA7911461846E9
S31500003180FFF755FF002318460837BD4680BD00BF30
S315000031905403FE1F80B500AF034B1B681846FFF7AC
S315000031A015FF0023184680BD5403FE1F80B500AFEF
S315000031B0034B1B681846FFF718FF0023184680BD0F
S315000031C05403FE1F80B483B000AF78607B68002B89
S315000031D001D1012304E04FF002227B681A6000232C
S315000031E018460C37BD465DF8047B704780B483B043
S315000031F000AF786039603A687B685A6000BF0C3768
S31500003200BD465DF8047B704780B483B000AF78603C
S315000032100B46FB70FB7803F00103D9B27A6813788A
S3150000322061F30413137000BF0C37BD465DF8047BD1
S31500003230704780B483B000AF78600B46FB70FB78B4
S3150000324003F00103D9B27A68137B61F300031373A9
S3150000325000BF0C37BD465DF8047B704780B483B071
S3150000326000AF78600B46FB7097F903307A6803F17C
S31500003270C00152F821306FF3104342F8213097F91C
S3150000328003307A6803F1C00152F8213043F08073AD
S3150000329042F8213000BF0C37BD465DF8047B70470D
S315000032A080B483B000AF78600B46FB7097F90330AB
S315000032B07A6803F1C00152F821306FF3186342F8BF
S315000032C0213000BF0C37BD465DF8047B704780B4E3
S315000032D083B000AF78607B68DB899BB218460C37F9
S315000032E0BD465DF8047B704780B483B000AF78605C
S315000032F00B46FB7097F903207B68C03253F82230E7
S31500003300C3F308039BB218460C37BD465DF8047B31
S315000033107047FFFF80B586B000AF78603960002344
S315000033207B617B683B613968386900F021FB786115
S315000033307B69002B01D07B694CE03B689B88184673
S3150000334000F0BEFA0346FB73244B1B6897F90F2067
S3150000335011461846FFF7C8FF03461A463B699A808E
S3150000336097F90F3013F1210F01D10B2332E097F9B2
S315000033700F301B4A52F82330002B01D0082329E0D6
S31500003380386800F0C7FA174B1B6800211846FFF78C
S315000033903BFF97F90F303A681268114941F823202C
S315000033A03B69FA7B9A713B690F4A1A603B689B79C5
S315000033B0002B03D0386900F0B7F87861094B1B6819
S315000033C001211846FFF720FF7B69002B01D013234C
S315000033D000E0002318461837BD4680BD6003FE1F77
S315000033E00000FE1F5C03FE1F0043544480B586B0F8
S315000033F000AFF860B9607A607B8000237B61FB6870
S315000034003B617B881946386900F062FB78617B690D
S31500003410002B01D07B6963E0334B1A683B6993F953
S31500003420063019461046FFF73BFF304B1B6800215C
S315000034301846FFF7E9FEBB68002B08D03B6993F9F5
S3150000344006301A462A4B53F82230BA685A607B680F
S31500003450002B08D03B6993F906301A46244B53F8E3
S3150000346022307A689A603B6993F906301A46204BF7
S3150000347053F82230DB7823F03F03DBB2802B09D1EF
S315000034803B6993F906301A46194B53F822307A886D
S315000034909A8115E03B6993F906301A46144B53F8A6
S315000034A02230DB7823F03F03DBB2002B08D13B69E7
S315000034B093F906301A460E4B53F822307A88DA8191
S315000034C0386900F031F87861084B1B68012118460D
S315000034D0FFF79AFE7B69002B01D0132300E000233F
S315000034E018461837BD4680BD6003FE1F5C03FE1FED
S315000034F00000FE1F80B485B000AF78600B46FB70FD
S315000035007B68FB60062318461437BD465DF8047BCE
S31500003510704780B483B000AF7860062318460C3736
S31500003520BD465DF8047B704780B586B000AF786015
S315000035307B687B617B69002B01D1012335E07B69C8
S315000035401B681C4A934201D007232EE07B6993F93E
S31500003550063013F1210F01D10B2326E07B6993F985
S3150000356006301A46144B53F822303B613B699B6880
S31500003570002B01D1012318E03B695B68002B01D1C8
S31500003580012312E0386900F025FBF860FB68002B88
S3150000359001D0FB6809E0094B1A687B6993F906308C
S315000035A019461046FFF75AFE002318461837BD463F
S315000035B080BD00BF004354440000FE1F6003FE1F91
S315000035C080B584B000AF78607B68FB60FB68002B39
S315000035D001D1012310E0FB681B68094A934201D020
S315000035E0072309E0074B1A68FB6893F9063019466A
S315000035F01046FFF755FE002318461037BD4680BD1E
S31500003600004354446003FE1F80B586B000AF786067
S3150000361039607B687B617B69002B01D1012363E004
S315000036207B691B68324A934201D007235CE03B6802
S31500003630002B01D1012357E02E4B1B681846FFF7DC
S3150000364046FE03467B823B6800229A71B7F9123028
S31500003650002B0BDA7B8A7B747B6993F9063097F92A
S3150000366011209A4202D13B6801229A717B6993F933
S3150000367006301A46204B53F82230FB60FB68DB7895
S3150000368023F03F03DBB2802B05D1FB689B899AB2FE
S315000036903B689A8011E0FB68DB899AB23B689A80A6
S315000036A0FB68DB7823F03F03DBB2402B05D13B6898
S315000036B09B88DBB29AB23B689A807B6993F90630A5
S315000036C01A460D4B53F82230DB7823F03F03DBB26A
S315000036D0002B04D13B684FF480321A6003E03B684C
S315000036E04FF480721A60002318461837BD4680BD15
S315000036F0004354445C03FE1F0000FE1F80B584B0E7
S3150000370000AF78607B68FB600023BB60FB68002B22
S3150000371001D1012323E0FB681B68134A934201D0C1
S3150000372007231CE0FB6893F9063013F1210F01D142
S315000037300B2314E00D4B1A68FB6893F90630194603
S315000037401046FFF7ADFDFB6893F906301946084BA6
S31500003750002243F82120FB6800221A60BB68184645
S315000037601037BD4680BD00BF004354446003FE1FB2
S315000037700000FE1F80B483B000AF78607B68002B2A
S3150000378001D1012304E04FF002227B681A60002376
S3150000379018460C37BD465DF8047B704780B588B087
S315000037A000AFF860B9607A607B800023FB61FB683C
S315000037B0BB61BA8D7B881946B86900F0D3F9F86108
S315000037C0FB69002B01D0FB6964E0344B1A68BB69C6
S315000037D093F9063019461046FFF762FD304B1B6819
S315000037E000211846FFF710FDBB68002B08D0BB6907
S315000037F093F906301A462B4B53F82230BA685A60B2
S315000038007B68002B08D0BB6993F906301A46254B16
S3150000381053F822307A689A60BB6993F906301A46E3
S31500003820204B53F82230BA8D9A81BB6993F9063042
S315000038301A461C4B53F822307A88DA81BB6993F911
S3150000384006301A46174B53F8222097F8283003F013
S315000038500303D9B2D37861F30513D370BB6993F927
S3150000386006301A460F4B53F822307B617B699A7BF0
S315000038707B69DA73B869FFF757FEF861084B1B6876
S3150000388001211846FFF7C0FCFB69002B01D013236A
S3150000389000E0002318462037BD4680BD6003FE1FAA
S315000038A05C03FE1F0000FE1F80B483B000AF78608B
S315000038B0062318460C37BD465DF8047B7047FFFFAC
S315000038C080B584B000AF0346FB800023FB7315E090
S315000038D00F4B1B6897F90F2011461846FFF704FD9A
S315000038E003461A46FB88934202D197F90F300BE044
S315000038F097F90F30DBB20133DBB2FB7397F90F3068
S315000039006F2BE5DD6FF0200318461037BD4680BDEE
S315000039106003FE1F80B487B000AF78607B681B68C9
S315000039207B610123FB747B69DB7823F03F03DBB209
S31500003930002B05D07B69FB60FB689A7BFB68DA731A
S315000039407B699B7823F03F03DBB2002B03D07B69B6
S3150000395010337B6101E00023FB74FB7C002BE2D17A
S3150000396000BF00BF1C37BD465DF8047B7047FFFFF4
S3150000397080B58AB000AF7860396000237B627B68CF
S31500003980002B01D101236EE03B68002B01D10123FE
S3150000399069E03B681B68002B01D1012363E03968AD
S315000039A0786800F06FF878627B6A002B01D07B6A3A
S315000039B059E02F4B1B7883F00103DBB2002B51D06B
S315000039C00023FB610023FB8300237B7708233B77DF
S315000039D007F10C0300221A605A609A60DA60254BE0
S315000039E0DB6807F10C0107F11C0210469847786264
S315000039F07B6A002B01D07B6A35E0FB681E4A1360A8
S31500003A0007F11C03184605F08FF938623B6A002B54
S31500003A1001D00A2327E007F11C03184604F04CFFE7
S31500003A204FF4E0720021154807F06CFE124B1B683C
S31500003A3012491846FFF7DAFB0F4B1B68012118469F
S31500003A40FFF7F7FB06233B770A4BDB6807F10C0110
S31500003A5007F11C0210469847FB68094A1360044B9D
S31500003A6001221A707B6A18462837BD4680BD00BF02
S31500003A705803FE1F70D400005C03FE1F0000FE1FEB
S31500003A806003FE1F80B483B000AF786039603B6886
S31500003A901B68DB7823F03F03DBB2002B08D03B68C2
S31500003AA01B68DB899BB2B3F5807F01D9012307E050
S31500003AB07B681B68054A934201D1082300E0002376
S31500003AC018460C37BD465DF8047B704700435444E6
S31500003AD080B483B000AF78600B467B807B68002B98
S31500003AE001D1012333E07B6893F906301A461B4B5C
S31500003AF053F82230DB7823F03F03DBB2002B04D0EF
S31500003B007B88002B01D1132321E07B681B68144AB4
S31500003B10934201D007231AE07B6893F906301A46D0
S31500003B200E4B53F82230DB7823F03F03DBB2802BB9
S31500003B300CD17B6893F906301A46084B53F82230AD
S31500003B40DB899BB2002B01D1012300E0002318463C
S31500003B500C37BD465DF8047B704700BF0000FE1FB2
S31500003B600043544480B483B000AF78600B467B803A
S31500003B7013463B807B68002B01D1012320E07B6844
S31500003B8093F906301A46114B53F82230DB7823F0AE
S31500003B903F03DBB2802B01D0062311E03B88002BCC
S31500003BA001D101230CE07B88002B01D1012307E022
S31500003BB07B681B68064A934201D0072300E0002376
S31500003BC018460C37BD465DF8047B70470000FE1FA3
S31500003BD00043544480B483B000AF78607B68DB78E0
S31500003BE003F03003DBB2102B0FD17B689B6803F028
S31500003BF00103002B01D001231FE07B685B6803F003
S31500003C000103002B01D0012317E07B68DB7803F06A
S31500003C103003DBB2202B0FD17B689B6803F00303D4
S31500003C20002B01D0012308E07B685B6803F00303E7
S31500003C30002B01D0012300E0002318460C37BD46B7
S31500003C405DF8047B7047FFFF80B483B000AF034686
S31500003C503960FB7197F90730002B0ADB3B68DAB253
S31500003C600C4997F907301201D2B20B4483F80023AE
S31500003C700AE03B68DAB20849FB7903F00F03043B1C
S31500003C801201D2B20B441A7600BF0C37BD465DF85E
S31500003C90047B704700E100E000ED00E080B483B0F3
S31500003CA000AF0346FB7197F90730002B09DB0D4A7D
S31500003CB097F90730134493F80033DBB21B09DBB2E4
S31500003CC009E0094AFB7903F00F03043B13441B7E0A
S31500003CD0DBB21B09DBB218460C37BD465DF8047B28
S31500003CE0704700BF00E100E000ED00E080B582B063
S31500003CF000AF78607B68013BB3F1807F01D301237D
S31500003D000FE00A4A7B68013B53600F214FF0FF30FA
S31500003D10FFF79AFF054B00229A60044B07221A60B0
S31500003D20002318460837BD4680BD00BF10E000E0FE
S31500003D3080B582B000AF78600021786801F0EFFFAF
S31500003D4000BF0837BD4680BD80B582B000AF786041
S31500003D500321786801F0E3FF00BF0837BD4680BD48
S31500003D6080B582B000AF78600421786801F0D7FF93
S31500003D7000BF0837BD4680BD80B500AF002005F006
S31500003D805FF800BF80BD80B500AF002005F0A8F841
S31500003D9000BF80BD80B500AF012005F051F800BF1F
S31500003DA080BD80B500AF012005F09AF800BF80BD48
S31500003DB080B483B000AF0346FB71FB79052B94BF3B
S31500003DC001230023DBB218460C37BD465DF8047BA1
S31500003DD0704780B483B000AF78607B6893F8263074
S31500003DE0C3F30203DBB218460C37BD465DF8047B0D
S31500003DF0704780B483B000AF78607B6893F840303A
S31500003E00C3F3C013DBB2012B01D1012300E0002371
S31500003E1018460C37BD465DF8047B704780B483B006
S31500003E2000AF78607B6893F84130C3F30003DBB2E0
S31500003E30012B01D1012300E0002318460C37BD46B3
S31500003E405DF8047B704780B582B000AF78600B46A2
S31500003E50FB70FFF798FFFB7803F00103D9B27A688D
S31500003E6092F8303061F3000382F83030FFF784FFB8
S31500003E7000BF0837BD4680BD80B582B000AF786010
S31500003E80FFF781FF7A6892F8523043F0010382F817
S31500003E905230FFF771FF00BF0837BD4680BD80B5C1
S31500003EA082B000AF7860FFF76EFF7A6892F8523002
S31500003EB06FF3000382F85230FFF75EFF00BF08374A
S31500003EC0BD4680BD80B582B000AF7860FFF75BFF6E
S31500003ED07A6892F8533043F0010382F85330FFF7C3
S31500003EE04BFF00BF0837BD4680BD80B582B000AF2E
S31500003EF07860FFF748FF7A6892F853306FF3000353
S31500003F0082F85330FFF738FF00BF0837BD4680BD43
S31500003F1080B582B000AF78600B46FB70FFF733FFC9
S31500003F20FB7803F00703D9B27A6892F8243061F37C
S31500003F30061382F82430FFF71FFF00BF0837BD467F
S31500003F4080BDFFFF80B586B000AF364804F060FB49
S31500003F5000237B613B1D00221A605A609A60DA607A
S31500003F600023FB8200237B7503233B752E4BDB6806
S31500003F70391D07F11402104698477B682B4A1360D7
S31500003F804FF6FF733B60294B1B680021184601F072
S31500003F903FFE0346002B18D002E03B68013B3B6026
S31500003FA0224B1B680021184601F0DCF9034683F01A
S31500003FB00103DBB2002B02D03B68002BEDD13B683E
S31500003FC0002B02D14FF4CD7328E0184B1B68062155
S31500003FD0184601F056FF4FF6FF733B6001F034F8C8
S31500003FE0124B1B680421184601F06AF901210420CE
S31500003FF000F01EFF0346002B02D04FF4CD730DE0F8
S315000040000A4B1B6805220421184601F0E7F9074B05
S315000040101B680021184601F0C5F80023184618371A
S31500004020BD4680BD0403FE1F70D400000803FE1FBA
S3150000403080B58AB000AF78607B68002B01D1012380
S31500004040B6E000237B627B681B7887F823307B68A9
S315000040500433FB6107F1140300221A60C3F803203E
S315000040600023FB760023FB7407F1140207F1130308
S315000040701146184600F092FA7B685B7D3B737B68BD
S31500004080DB7CBB737B681B7D7B737B68DB7DFB7393
S315000040907B689B7D3B747B681B7E7B7497F8233023
S315000040A01846FFF785FE0346002B01D103237FE068
S315000040B07B681B7828333B4413F81C3C012B01D149
S315000040C0032375E07B7C022B13D1FB691B78184612
S315000040D0FFF76EFE0346002B01D1032368E0FB6960
S315000040E01B7828333B4413F81C3C012B01D10323D6
S315000040F05EE007F10C031946786800F011FF78625C
S315000041007B6A002B01D07B6A52E097F82330184671
S3150000411000F0E0FC78627B6A002B01D07B6A47E006
S3150000412097F82330042B09D100F078FD034683F07D
S315000041300103DBB2002B01D0012300E00023FB7654
S31500004140FB7E03F00103FB767B6803F10C0297F814
S3150000415023301146184600F04BF978627B6A002B33
S3150000416001D07B6A24E0FB7C97F823209A4212D088
S31500004170FB7C28333B4413F81C3C012B0BD1FB7C06
S315000041807A681946012000F0D7FC78627B6A002B1A
S3150000419001D07B6A0CE0FB7E002B08D004F0D6F839
S315000041A0024697F823301146184600F089FD002391
S315000041B018462837BD4680BD80B584B000AF03469B
S315000041C03960FB71FB791846FFF7F2FD0346002BB9
S315000041D001D1032386E0454B1B68FA791146184640
S315000041E001F016FD0346002B07D0404B1B6818460E
S315000041F000F050FF40F2911374E0FB79042B06D1D6
S315000042003A4B1B680021184600F0CCFF57E0FB79BB
S31500004210012B02D100F070FE51E0FB79002B11D189
S31500004220324B1B680021184601F09CF8034683F0C8
S315000042300103DBB2002B02D140F2931352E000F0EF
S315000042405BFE3CE0FB79032B28D1284B1B6803213E
S31500004250184601F087F8034683F00103DBB2002B12
S3150000426002D140F293133DE000F046FE1F4B1A6860
S315000042701F4B1B6893F827301946104600F05EFF67
S315000042801A4B1B680021184601F0D2F8174B1B6821
S3150000429005220321184601F0E4F810E0FB79052B0E
S315000042A00DD1386800F07AFEF860FB68002B01D06B
S315000042B0FB6817E00D4B1B681846FFF739FD0B4BE3
S315000042C01B68FA791146184600F0A8FFFB7902210F
S315000042D0184600F0ADFD0346002B02D04FF4CD7317
S315000042E000E0002318461037BD4680BD0803FE1FB8
S315000042F00403FE1F80B584B000AF0346FB71FB7953
S315000043001846FFF755FD0346002B01D1032369E04C
S31500004310364B1B681846FFF75CFD0346FB73FA79BC
S31500004320FB7B9A4202D140F291135BE0FB7B052BAB
S315000043300BD02E4B1B680521184601F069FC03467D
S3150000434083F00103DBB2002B0CD1284B1B68184607
S3150000435001F0BCF803461A46FB79934202D140F2BB
S3150000436091133FE0FB79012B0DD1204B1B681846BA
S31500004370FFF73FFD034683F00103DBB2002B02D1BA
S3150000438040F295132EE0194B1B68FA791146184630
S3150000439001F03EFC034683F00103DBB2002B01D0A3
S315000043A000231FE0114B1B68FA791146184600F0EE
S315000043B0D9FF0346002B02D140F2931312E00B4BB8
S315000043C01B68FA791146184600F07AFFFB7901213D
S315000043D0184600F02DFD0346002B02D04FF4CD7396
S315000043E000E0002318461037BD4680BD0803FE1FB7
S315000043F080B58AB000AF03463960FB71FB79184679
S31500004400FFF7D6FC0346002B01D10323BBE03B6834
S31500004410002B01D10123B6E0386800F0C5FC7862B4
S315000044207B6A002B01D07B6AADE0FB79042B18D1A7
S315000044303B689B79002B01D00523A4E03B685B79A0
S31500004440002B01D005239EE0514B1B681846FFF751
S31500004450D0FC034683F00103DBB2002B01D1052318
S3150000446091E04B4B1B681846FFF7B3FC034687F8F1
S315000044702330FA7997F823309A4209D0FB79184607
S3150000448000F00AFD78627B6A002B01D07B6A7AE035
S315000044903F4B1B6807F108021146184601F066F902
S315000044A03B4B1B681846FFF743FC00233B74002375
S315000044B03B773B689A79FB791146184601F052FA28
S315000044C003467B61324B1B680621184601F02CFA25
S315000044D00346BB6107F11003184603F0C3FF786279
S315000044E07B6A002B01D07B6A4DE0BA7B3B689B79E7
S315000044F09A420DD2264B1B683968184601F022FBFA
S31500004500234B1B68FA791146184600F0C5FF0CE0EC
S315000045101F4B1B68FA791146184600F0BDFF1C4B6D
S315000045201B683968184601F00DFB194B1B680621FC
S31500004530184601F0F9F90346BB6101233B7407F104
S315000045401003184603F08EFF78627B6A002B01D0B9
S315000045507B6A18E003F0FAFE03460E4A13600D4B21
S315000045601B68002B02D14FF4C8730CE0094B1A6884
S31500004570FB791146184600F0A3FB074942F210707A
S3150000458000F04CFA002318462837BD4680BD00BF10
S315000045900803FE1FB803FE1F40420F0080B582B01D
S315000045A000AF786039607B68002B01D1012314E0ED
S315000045B03B68002B01D101230FE00A4B1B6818460C
S315000045C0FFF707FC03461A467B681A70054B1B6803
S315000045D03968184601F0CAF8002318460837BD4660
S315000045E080BD00BF0803FE1F80B584B000AF034640
S315000045F03960FB713B68002B01D1012320E0FB7978
S31500004600062B0FD0FB79052B0CD0FB79042B09D098
S31500004610FB79184600F0E1FAF860FB68002B01D040
S3150000462003230DE03B6800221A60074B1B68FA79EA
S315000046301146184601F078F902463B681A600023D5
S3150000464018461037BD4680BD0803FE1F80B582B0F0
S3150000465000AF0346FB71FB791846FFF7A9FB03463B
S31500004660002B01D103233FE0FB79022B05D0FB7918
S31500004670012B02D0FB79042B0FD11D4B1B68FA7955
S315000046801146184601F0C4FA0346002B02D040F248
S31500004690911329E04FF4C87326E0FB79002B05D06F
S315000046A0FB79032B02D0FB79052B1CD1104B1B6821
S315000046B0FA791146184601F0ABFA0346002B02D1EF
S315000046C04FF4C87310E00A4B1B68FA791146184676
S315000046D000F048FE0346002B02D140F2931303E09C
S315000046E04FF4C97300E0002318460837BD4680BD65
S315000046F00803FE1F80B586B000AF78600B46FB70DE
S31500004700FB78002B51D07B68002B01D1012360E0A0
S31500004710324B1B68184601F0E3FA0346FB75FB7D36
S31500004720042B01D1012354E02C4B1B6807F108022E
S315000047301146184601F01AF8294B1B689B68002B96
S3150000474010D0FB7D032B0DD1254B1B681A6907F191
S3150000475008031146184600F0E3FA0346002B17D06B
S31500004760052336E01E4B1B68DB68002B10D0FB7D53
S31500004770022B0DD11A4B1B685A6907F10803114623
S31500004780184600F0CDFA0346002B01D0052320E0A1
S315000047907B683B613B691946012003F081FF0F4BA3
S315000047A01B68184601F0F6F812E00C4B1B68184619
S315000047B0FFF734FB034683F00103DBB2002B02D183
S315000047C04FF4CB7305E0054B1B68184601F0FCF867
S315000047D0002318461837BD4680BD00BF0803FE1FDC
S315000047E00403FE1F80B582B000AF1F4B1B6818463E
S315000047F0FFF714FB0346002B2BD01B4B1B681846F8
S31500004800FFF7E7FA0346FB71184B1B6893F828304D
S3150000481003F04003DBB2002B0FD0134B1B68184686
S3150000482000F054FE0346BB71FB79052B0BD1BB7917
S31500004830032B08D140F2971311E0FB79052B02D127
S3150000484040F297130BE0FB79032B02D140F297134A
S3150000485005E0054B1B68184601F0D0F80023184602
S315000048600837BD4680BD00BF0803FE1F0403FE1FB8
S3150000487080B582B000AF0346FB71064B1B68FA7920
S3150000488011461846FFF7DFFA002318460837BD46DB
S3150000489080BD00BF0803FE1F80B500AF034B1B6839
S315000048A01846FFF7E9FA0023184680BD0803FE1FE5
S315000048B080B500AF034B1B681846FFF7F0FA0023DC
S315000048C0184680BD0803FE1F80B582B000AF0346C0
S315000048D00A46FB711346BB71FB79052B01D10323F5
S315000048E019E0FB79042B0ED1FB79042B08D10C4B74
S315000048F01B680421184601F08BF90346002B02D1F0
S315000049004FF4C87307E0064B1B68BA79F979184665
S3150000491001F092F8002318460837BD4680BD00BF57
S315000049200803FE1F80B500AF034B1B68184601F055
S31500004930B0F80023184680BD0803FE1F80B500AFFF
S31500004940034B1B68184601F0B7F80023184680BDD4
S315000049500803FE1F80B483B000AF0346FB71062335
S3150000496018460C37BD465DF8047B704780B400AF2F
S3150000497006231846BD465DF8047B704780B400AF39
S3150000498006231846BD465DF8047B704780B483B0A5
S3150000499000AF0346FB71062318460C37BD465DF88B
S315000049A0047B704780B400AF06231846BD465DF809
S315000049B0047B704780B400AF06231846BD465DF8F9
S315000049C0047B704780B500AF034B1B681846FFF7A2
S315000049D079FA0023184680BD0803FE1F80B500AF94
S315000049E0034B1B681846FFF780FA0023184680BD64
S315000049F00803FE1F80B582B000AF0346FB71064B6D
S31500004A001B68FA7911461846FFF782FA0023184602
S31500004A100837BD4680BD00BF0803FE1F80B588B0BD
S31500004A2000AF786039607B68FB613B68BB614FF023
S31500004A3000037B617B68002B01D1032330E003F088
S31500004A4085FC3861184BBB6142F21073FB613B6910
S31500004A5007EE903AF8EE677AF7EE006A86EEA77AE6
S31500004A60BB6907EE903AF8EE677A67EE277AC7EDEC
S31500004A70057AFB6907EE903AF8EE676A97ED057AD4
S31500004A80C6EE877AFCEEE77A17EE903AFB60F86896
S31500004A9001F026F80346002B01D1122300E0002383
S31500004AA018462037BD4680BD40420F0080B483B013
S31500004AB000AF78607B68002B01D1012304E04FF042
S31500004AC002227B681A60002318460C37BD465DF843
S31500004AD0047B704780B584B000AF0346FB7140F29B
S31500004AE09313FB604FF6FF73BB600DE0BB68013BA1
S31500004AF0BB60BB68002B02DC40F2931318E0FB7925
S31500004B001846FFF7A3FDF860FB6840F29312934244
S31500004B10ECD0FB68002B0AD0FB68B3F5C97F06D042
S31500004B20FB6840F29112934201D0FB6800E000233B
S31500004B3018461037BD4680BD80B584B000AF034629
S31500004B403A60FB710B46BB713B680433FB60002384
S31500004B50BB60FB79012B09D1BB791846FFF7CAFB6D
S31500004B60B860BB68002B33D0BB6832E0FB79022B00
S31500004B702ED1BB79052B1BD1FB681B7839681846EB
S31500004B80FFF71AFBB860BB68002B06D0BB6840F283
S31500004B909112934201D0BB681BE0FB681B78184654
S31500004BA0FFF798FFB860BB68002B01D0BB6810E028
S31500004BB0BB79F9681846FFF7FFFAB860BB68002BA7
S31500004BC006D0BB6840F29112934201D0BB6800E068
S31500004BD0002318461037BD4680BD80B483B000AFB1
S31500004BE00346FB71FB79002B01D100230FE0FB7913
S31500004BF0012B01D100230AE0FB79022B01D100230E
S31500004C0005E0FB79032B01D1002300E003231846BE
S31500004C100C37BD465DF8047B7047FFFF80B500AFDB
S31500004C201A4B1B680521184600F0F2FF034683F075
S31500004C300103DBB2002B25D0144B1B680321184659
S31500004C4000F0E6FF034683F00103DBB2002B19D028
S31500004C500E4B1B680021184600F0DAFF034683F06E
S31500004C600103DBB2002B0DD0084B1B68012118464F
S31500004C7000F0CEFF034683F00103DBB2002B01D028
S31500004C80012300E00023184680BD00BF0803FE1F75
S31500004C9080B500AF094B1B680521184600F0B8FF28
S31500004CA00346002B14BF01230023DBB283F001036C
S31500004CB0DBB203F00103DBB2184680BD0803FE1F1A
S31500004CC080B582B000AF03463960FB71FB79042BD7
S31500004CD002D0FB79022B0AD1FFF7A0FF0346002B77
S31500004CE005D00D4B1B681846FFF73AF810E00B4B42
S31500004CF01B689B683A689A420AD8FFF7C9FF0346C1
S31500004D00002B05D0044B1B681846FFF71DF800BFA3
S31500004D100837BD4680BD00BF0803FE1F0403FE1F03
S31500004D2080B483B000AF786039607B681B781A4620
S31500004D303B68934201D9052330E07B685B781A46CD
S31500004D403B68934201D9052328E07B689B781A4685
S31500004D503B68934201D9052320E07B68DB781A463D
S31500004D603B68934201D9052318E07B685B791A46B4
S31500004D703B68934201D9052310E07B681B791A46EC
S31500004D803B68934201D9052308E07B689B791A4664
S31500004D903B68934201D9052300E0002318460C37EF
S31500004DA0BD465DF8047B704780B483B000AF786081
S31500004DB07B681A787B689B799A4201D2032330E09C
S31500004DC07B685A787B681B789A4201D2032328E0D5
S31500004DD07B681A787B68DB789A4201D2032320E04D
S31500004DE07B685A787B68DB789A4201D2032318E005
S31500004DF07B685A787B689B799A4201D2032310E03C
S31500004E007B685A797B689B799A4201D2032308E032
S31500004E107B681A797B689B799A4201D2032300E06A
S31500004E20002318460C37BD465DF8047B7047FFFF2C
S31500004E3080B584B000AF03460A46FB711346BB71CA
S31500004E404FF6FF73BB60BB79002B1ED0BB79022BDC
S31500004E500CBF01230023FB7302E0BB68013BBB6070
S31500004E600C4B1B68FA791146184600F0D1FE034632
S31500004E701A46FB7B934202D0BB68002BEDD1BB6880
S31500004E80002B02D14FF4CD7300E0002318461037F3
S31500004E90BD4680BD0803FE1F80B582B000AF034645
S31500004EA0FB71FB79002B05D0FB79032B02D0FB7934
S31500004EB0052B0CD10F4B1B68FA791146184600F0EA
S31500004EC051FA0346002B0FD140F293130DE0094B24
S31500004ED01B68FA791146184600F09AFE0346002B25
S31500004EE002D14FF4C87300E0002318460837BD46C8
S31500004EF080BD00BF0803FE1F80B500AF074B1B68CF
S31500004F00184600F0EDFE0346042B04D1034B1B6844
S31500004F101846FEF719FF00BF80BD00BF0803FE1F3D
S31500004F2080B584B000AF786039600023BB603B6811
S31500004F3005331B787A6805211846FFF7FDFDB86032
S31500004F40BB68002B06D0BB6840F29112934201D099
S31500004F50BB681EE00023FB6017E03A68FB68134459
S31500004F601B78FA68D1B27A681846FFF7E5FDB86093
S31500004F70BB68002B06D0BB6840F29112934201D069
S31500004F80BB6806E0FB680133FB60FB68042BE4D9D1
S31500004F90002318461037BD4680BDFFFF80B582B09E
S31500004FA000AF78607B68002B01D1012346E078686A
S31500004FB000F020FC0346002B01D103233EE0214BE9
S31500004FC01A687B681B781946104600F021FE0346D6
S31500004FD0002B02D14FF4CA7330E01A4B1B6805212F
S31500004FE0184600F0BFF9034683F00103DBB2002B3D
S31500004FF002D140F2931321E0FFF77EFF114B1A68AE
S315000050007B681B781946104600F080FA0D4B1A682B
S315000050107B685B781946104600F026FB094B1A6838
S315000050207B68D3ED017AB0EE670A104600F08AFA83
S31500005030044B1B68184600F02DF800231846083765
S31500005040BD4680BD0803FE1F80B400AF0E4B1B6833
S315000050509B690E4A13600D4B0D4A5A600B4B4FF479
S3150000506000429A60084B1B68DB69084AD360074B0D
S315000050704FF400421A61054B00225A6100BFBD463B
S315000050805DF8047B704700BF0403FE1F0C03FE1F80
S3150000509000127A0080B52DED028B84B000AF7860E7
S315000050A00023BB60786800F027FB0346BB60BB6843
S315000050B0002B38D00023FB601E4B1B6893F828306A
S315000050C003F03003DBB2102B08D1786800F0FEF94C
S315000050D003461A46184B53F82230FB60154B1B68E3
S315000050E093F8283003F03003DBB2202B02D1124BA9
S315000050F0DB68FB60FB6807EE903AB8EE677ABB6840
S3150000510007EE903AF8EE677A87EE278A786800F01D
S3150000511065FAF0EE407A68EE277AFCEEE77A17EE4B
S31500005120902A054B5A6100BF1037BD46BDEC028B75
S3150000513080BD00BF0403FE1F0C03FE1F80B584B0B4
S3150000514000AF78600B46FB70154B1B6893F8203058
S31500005150FB73134B1B6893F82130BB73FEF713FEEA
S315000051607B6893F81334DBB25AB297F90F30DB43FE
S315000051705BB213405AB2F978BB7B01FA03F359B21A
S3150000518097F90F300B405BB213435BB2DAB27B6820
S3150000519083F81324FEF7F0FD00BF1037BD4680BD2F
S315000051A00403FE1F80B584B000AF78600B46FB7029
S315000051B0194B1B6893F82230FB73174B1B6893F847
S315000051C02330BB73FEF7DFFD7B6893F88034C3F3AF
S315000051D00003DBB2002B19D07B6893F88134DBB275
S315000051E05AB297F90F30DB435BB213405AB2F978E3
S315000051F0BB7B01FA03F359B297F90F300B405BB250
S3150000520013435BB2DAB27B6883F88124FEF7B4FD00
S3150000521000BF1037BD4680BD0403FE1F80B582B0B7
S3150000522000AF78600B46FB70FEF7ADFDFB78052BF3
S315000052303ED801A252F823F05152000061520000FC
S31500005240715200008152000091520000A1520000EC
S315000052507A6892F836306FF3000382F8363028E029
S315000052607A6892F838306FF3000382F8383020E01D
S315000052707A6892F890346FF3000382F8903418E05D
S315000052807A6892F832306FF3000382F8323010E019
S315000052907A6892F880346FF3000382F8803408E06D
S315000052A07A6892F82A306FF3000382F82A3000E019
S315000052B000BFFEF761FD00BF0837BD4680BD00BFD9
S315000052C080B582B000AF78600B46FB70FEF75BFDE1
S315000052D0FB78052B3ED801A252F823F0F5520000C8
S315000052E005530000155300002553000035530000F8
S315000052F0455300007A6892F8363043F0010382F88D
S31500005300363028E07A6892F8383043F0010382F8A4
S31500005310383020E07A6892F8903443F0010382F83E
S31500005320903418E07A6892F8323043F0010382F83C
S31500005330323010E07A6892F8803443F0010382F844
S31500005340803408E07A6892F82A3043F0010382F844
S315000053502A3000E000BFFEF70FFD00BF0837BD464C
S3150000536080BD00BF80B483B000AF78600B46FB7091
S31500005370FB78052B1AD0052B22DC002B02D0032B41
S315000053800AD01DE07B6893F83C30C3F30003DBB220
S31500005390002B17D001231BE07B6893F83C30C3F346
S315000053A0C003DBB2002B0FD0012311E07B6893F81A
S315000053B03C30C3F34013DBB2002B07D0012307E0D8
S315000053C0012305E000BF02E000BF00E000BF0023AC
S315000053D018460C37BD465DF8047B704780B586B02D
S315000053E000AF78600B46FB7013463B800621786859
S315000053F000F09AFA3861FB780C4A52F82330FB60C9
S31500005400FB68002B0ED03A69FB68B2FBF3F33A88CF
S3150000541002FB03F37B6102E07B69013B7B617B69F5
S31500005420002BF9D100BF1837BD4680BD0C03FE1F07
S3150000543080B582B000AF78600B46FB70FEF7A3FC28
S31500005440FB7803F00103D9B27A6892F8133461F35A
S31500005450861382F81334FEF78FFC00BF0837BD466B
S3150000546080BD80B582B000AF78600B46FB701346F6
S31500005470BB70FEF788FCBB7803F00F03D9B27A68DD
S3150000548092F8A23061F3030382F8A230FEF774FCAF
S3150000549000BF0837BD4680BD80B582B000AF7860DA
S315000054A00B46FB70FEF76FFCFB7803F00703D9B2DF
S315000054B07A6892F8263061F3020382F82630FEF706
S315000054C05BFC00BF0837BD4680BDFFFF80B483B0DC
S315000054D000AF78600C4B1B6893F8283003F040034C
S315000054E0DBB2002B08D07B681B8DC3F30013DBB245
S315000054F0012B01D1002300E0032318460C37BD46DB
S315000055005DF8047B704700BF0403FE1F80B582B0C0
S3150000551000AF78600B46FB70FEF735FCFB78032B7B
S3150000552005D17A68138D6FF30413138504E07A6846
S31500005530138D43F010031385FEF71EFC00BF0837DA
S31500005540BD4680BD80B584B000AF786087ED000AA7
S31500005550214B1B6893F8283003F03003DBB2102B85
S3150000556016D1D7ED007A77EEA77AFCEEE77A17EE3A
S31500005570903A013BFB60FEF706FCFB6803F03F0335
S31500005580D9B27A68138D61F30D231385FEF7F4FB08
S31500005590114B1B6893F8283003F03003DBB2202B45
S315000055A016D1D7ED007AFCEEE77A17EE903A013B7A
S315000055B0BB60FEF7E8FBBB6803F01F03D9B27A684D
S315000055C092F82B3061F3040382F82B30FEF7D4FBFC
S315000055D000BF1037BD4680BD0403FE1F80B485B0F2
S315000055E000AF78604FF00003FB601E4B1B6893F81A
S315000055F0283003F03003DBB2102B0FD17B681B8DF4
S31500005600C3F30523DBB2013307EE903AB8EE677AAF
S31500005610F0EE006AC7EE267AC7ED037A114B1B68D7
S3150000562093F8283003F03003DBB2202B0FD17B68D0
S3150000563093F82B30C3F30403DBB207EE903AF8EE8F
S31500005640677AB7EE007A77EE877AC7ED037AFB685A
S3150000565007EE903AB0EE670A1437BD465DF8047B54
S31500005660704700BF0403FE1F80B584B000AF7860AA
S315000056700B46FB701D4B1B6893F8283003F0300374
S31500005680DBB2102B11D1FB78194A32F81330FB81AB
S31500005690FEF779FBFB8903F00303D9B27A68138D11
S315000056A061F301031385FEF767FB104B1B6893F844
S315000056B0283003F03003DBB2202B13D1FB780D4AE0
S315000056C032F81330BB81FEF75EFBBB8903F00303A0
S315000056D0D9B27A6892F82B3061F3871382F82B30AF
S315000056E0FEF74AFB00BF1037BD4680BD0403FE1F10
S315000056F058CE000068CE000080B485B000AF786058
S315000057000123FB81164B1B6893F8283003F0300306
S31500005710DBB2102B09D17B681B8DC3F30103DBB20F
S315000057201A46104B33F81230FB810D4B1B6893F869
S31500005730283003F03003DBB2202B0AD17B6893F8C4
S315000057402B30C3F38113DBB21A46074B33F8123002
S31500005750FB81FB8918461437BD465DF8047B70470C
S315000057600403FE1F50CE000060CE000080B483B05C
S3150000577000AF786039607B681B6AC3F30233DBB223
S315000057801A463B681A707B681B6AC3F30223DBB2B6
S315000057901A463B685A707B681B6AC3F30213DBB276
S315000057A01A463B689A707B681B6AC3F30203DBB236
S315000057B01A463B68DA707B681B6AC3F30243DBB2A6
S315000057C01A463B681A717B681B6AC3F30273DBB225
S315000057D01A463B685A717B681B6AC3F30263DBB2E5
S315000057E01A463B689A7100BF0C37BD465DF8047BCC
S315000057F07047FFFF80B483B000AF78601E4B1B6814
S3150000580093F824207B685B789A4201D200232CE02F
S31500005810194B1B6893F8263007EE903AB8EE677A74
S315000058207B68D3ED017AB4EEE77AF1EE10FA0FD485
S31500005830114B1B6893F8253007EE903AB8EE677A5D
S315000058407B68D3ED017AB4EEE77AF1EE10FA01DD6A
S3150000585000230AE07B681B78032B05D07B681B7846
S31500005860002B01D0002300E0012318460C37BD466B
