S01500004750494F496E746572727570742E7372656313
S31500000000701AFE1FED4C0000D9430000FB4C0000A7
S31500000010FB4C0000FB4C0000FB4C00000000000005
S31500000020000000000000000000000000FB4C000083
S31500000030FB4C000000000000FB4C0000FB4C0000E5
S3150000004065190000FFFFFFFFFFFFFFFFFFFFFFFF38
S31500000050FFFFFFFFFFFFFFFFFFFFFFFFFFFFFFFFAA
S31500000060FFFFFFFFFFFFFFFFFFFFFFFFFFFFFFFF9A
S31500000070FFFFFFFFFFFFFFFFFFFFFFFFFFFFFFFF8A
S31500000080FFFFFFFFFFFFFFFFFFFFFFFFFFFFFFFF7A
S31500000400FFFFFFFFFFFDFFFFFFFFFFFFFFFFFFFFF8
S31500000410FFFFFFFFFFFFFFFFFFFFFFFFFFFFFFFFE6
S31500000420FFFFFFFFFFFFFFFFFFFFFFFFFFFFFFFFD6
S31500000430FFFFFFFFFFFFFFFFFFFFFFFFFFFFFFFFC6
S31500000440FFFFFFFFFFFFFFFFFFFFFFFFFFFFFFFFB6
S31500000450FFFFFFFFFFFFFFFFFFFFFFFFFFFFFFFFA6
S31500000460FFFFFFFFFFFFFFFFFFFFFFFFFFFFFFFF96
S31500000470FFFFFFFFFFFFFFFFFFFFFFFFFFFFFFFF86
S31500000480FFFFFFFFFFFFFFFFFFFFFFFFFFFFFFFF76
S31500000490FFFFFFFFFFFFFFFFFFFFFFFFFFFFFFFF66
S315000004A0FFFFFFFFFFFFFFFFFFFFFFFFFFFFFFFF56
S315000004B0FFFFFFFFFFFFFFFFFFFFFFFFFFFFFFFF46
S315000004C0FFFFFFFFFFFFFFFFFFFFFFFFFFFFFFFF36
S315000004D0FFFFFFFFFFFFFFFFFFFFFFFFFFFFFFFF26
S315000004E0FFFFFFFFFFFFFFFFFFFFFFFFFFFFFFFF16
S315000004F0FFFFFFFFFFFFFFFFFFFFFFFFFFFFFFFF06
S31500000500A401FE1F0C000658200000002000010078
S315000005102F0000002F0001000C0001001100000058
S31500000520300000003000010024000000240001001B
S315000005302400020024000300240004002400050017
S315000005401300000017000000230000002100000037
S31500000550210001000700000007000100070002005B
S315000005600700030007000400070005000700060057
S315000005700700070012000000440000000800000009
S315000005800B00000041000000400000004000010098
S3150000059004000000430000002B0000002B000A00AE
S315000005A02B000B002B000C002B000D002B00010074
S315000005B02B0002002B0003002B0004002B0005007B
S315000005C02B0006002B0007002B0008002B0009005B
S315000005D00600000006000A0006000B0006000C00DC
S315000005E006000D0006000E0006000F0006000100C2
S315000005F006000200060003000600040006000500CF
S3150000060006000600060007000600080006000900AE
S315000006101500000015000100150002003100000061
S315000006202A00000045000000100000000301000041
S3150000063003000000030001000F0000000D00000091
S315000006402D000000420000002C0000002C000100DC
S315000006502C0002002C0003003200000028000000DD
S31500000660180000001400000014000100140002002D
S315000006701400030014000400140005001400060012
S3150000068014000700140008001400090034000000DC
S3150000069034000100160000001600010035000000BD
S315000006A03600000036000100220000003300000082
S315000006B0330100002900000010B5054C237833B93A
S315000006C0044B13B10448AFF300800123237010BD1F
S315000006D02401FE1F00000000207A000008B5034B2D
S315000006E01BB103490348AFF3008008BD00000000BA
S315000006F02801FE1F207A000080B483B000AF786026
S315000007000B467B807B881B0A9BB2DBB25A017B6857
S31500000710134418460C37BD465DF8047B704780B419
S3150000072083B000AF78600B467B807B881B0A9BB248
S31500000730DBB21A017B88DBB213449A007B68134450
S3150000074018460C37BD465DF8047B704780B485B00B
S3150000075000AF78600B46FB701346BB70BB78012B6D
S3150000076010D17B681B78FB73FB78DB43DAB2FB7B2B
S315000007701340FB73FB7B03F03003FB737B68FA7B50
S315000007801A7010E0BB78002B0DD17B681B78FB73C9
S31500000790FA7BFB781343FB73FB7B03F03003FB739D
S315000007A07B68FA7B1A7000BF1437BD465DF8047B80
S315000007B0704780B586B000AFF860084611461A4605
S315000007C003467B810B463B811346FB80FB6808335F
S315000007D07A8911461846FFF78FFF7861FB881A045D
S315000007E03B891A437B691A6000BF1837BD4680BD36
S315000007F080B586B000AF78600B467B807B6804339B
S315000008007A8811461846FFF777FF78617B691B687F
S315000008103B613B691B0C3B613B699BB23B613B699E
S31500000820FB81FB8918461837BD4680BD80B586B06A
S3150000083000AFF860084611461A4603467B810B4610
S315000008403B811346FB80FB6808337A8911461846BC
S31500000850FFF752FF78617B6904337B61FB881A04DA
S315000008603B891A437B691A6000BF1837BD4680BDB5
S3150000087080B586B000AFF860084611461A460346B2
S315000008807B810B463B811346FB8000237B61FB6823
S3150000089008337A8911461846FFF72EFF38613B69FF
S315000008A004333B613B691B687B6197F82030012B61
S315000008B00ED13B897A6913437B61FB881B046FEA7F
S315000008C013436FEA03431A467B6913407B610CE0CE
S315000008D0FB881B047A6913437B613B896FEA0343F8
S315000008E06FEA13437A6913407B613B697A691A6040
S315000008F000BF1837BD4680BD80B584B000AF7860B4
S315000009000B467B807B881946786800F0F9F8F8601A
S31500000910FB6803F00203002B01D0012300E0002353
S3150000092018461037BD4680BD80B586B000AF7860EA
S315000009300B467B807B6804337A8811461846FFF79E
S31500000940DBFE78617B691B683B613B699BB23B615F
S315000009503B69FB81FB8918461837BD4680BD80B5CB
S3150000096084B000AF78600B467B807B687A8811463E
S315000009701846FFF7C1FEF860FB681B68BB60BB68E2
S315000009809BB2BB60BB689BB218461037BD4680BDA4
S3150000099080B586B000AFF860B96011461A460B46BE
S315000009A0FB8013467B71FB881946F86800F0A8F8AF
S315000009B078617B79002B04D17B6923F004037B618A
S315000009C003E07B6943F004037B617A69064B1340BD
S315000009D07B61FA887B69B968F86800F0A3F800BF04
S315000009E01837BD4680BD00BFD5FC011F80B584B059
S315000009F000AF78600B467B8013463B807B687A8825
S31500000A0011461846FFF778FEF860FB681B68BB6066
S31500000A10BB681B0C1B04BB603B88BA681343BB60F6
S31500000A20FB68BA681A6000BF1037BD4680BDFFFF7D
S31500000A3080B487B000AF786000237B61EFF310834A
S31500000A40FB60FB687B6101233B613B6983F3108894
S31500000A5000BF0F4B1B889BB2002B05D17B68002281
S31500000A60DA707B684022DA70094B1B889BB201332F
S31500000A709AB2074B1A807B69BB60BB6883F3108808
S31500000A8000BF00BF1C37BD465DF8047B704700BF42
S31500000A904001FE1F80B487B000AF786000237B6101
S31500000AA0EFF31083FB60FB687B6101233B613B69CD
S31500000AB083F3108800BF114B1B889BB2002B06D016
S31500000AC00E4B1B889BB2013B9AB20C4B1A800B4B08
S31500000AD01B889BB2002B05D17B680022DA707B68ED
S31500000AE08022DA707B69BB60BB6883F3108800BF25
S31500000AF000BF1C37BD465DF8047B70474001FE1FF2
S31500000B0080B584B000AF78600B467B807B88194641
S31500000B107868FFF704FEF860FB681B681846103714
S31500000B20BD4680BD80B588B000AFF860B9603B6057
S31500000B301346FB80FB881946F868FFF7F0FDF8615D
S31500000B40B868FFF775FFFB691B68BB613B6803F478
S31500000B508033002B0FD0BB697B617B6923F4803324
S31500000B607B61FB697A691A603B6823F480337B6199
S31500000B70FB697A691A60FB693A681A60B868FFF718
S31500000B8089FF00BF2037BD4680BDFFFF80B588B016
S31500000B9000AF78607B68002B01D1012344E07B68BD
S31500000BA05B68002B01D101233EE00023FB6107F1C6
S31500000BB00C0300221A605A609A60DA600023FB83F5
S31500000BC000237B7709233B77194BDB6807F10C0180
S31500000BD007F11C0210469847FB68164A1360BB696A
S31500000BE0154A13603B8A1A46144B1A600A233B7750
S31500000BF00F4BDB6807F10C0107F11C021046984702
S31500000C00FB680F4A136001237B77094BDB6807F10A
S31500000C100C0107F11C0210469847FB68094A13604D
S31500000C20786800F011F8034618462037BD4680BDA7
S31500000C3088740000E000FE1FEC00FE1FF000FE1F9F
S31500000C40E400FE1FE800FE1F90B585B000AF786097
S31500000C507B68002B01D1012329E07B685B68002BB0
S31500000C6001D1012323E0786800F020FB7B68BB609C
S31500000C700023FB8115E0104B1868104B1968BB6800
S31500000C805A68FB89DB0013449C88BB685A68FB8959
S31500000C90DB0013441B682246FFF744FFFB89013340
S31500000CA0FB81BB681B88FA899A42E4D30023184665
S31500000CB01437BD4690BD00BFE400FE1FE800FE1FCE
S31500000CC080B588B000AF03463960FB800023FB6126
S31500000CD0FB88184600F0A2FAF861FB69002B01D0E8
S31500000CE0FB6916E0FB883B823B68FB600123BB8205
S31500000CF007F10C03BB6107F11403184600F0D6FA9E
S31500000D00064B1868064B1968FA883B68FFF70AFF16
S31500000D10002318462037BD4680BD00BFE400FE1FF5
S31500000D20E800FE1F80B584B000AF03463960FB8043
S31500000D300023FB60FB88184600F070FAF860FB6839
S31500000D40002B01D0FB6810E03B68002B01D101238A
S31500000D500BE0084B1B68FA8811461846FFF7CCFDD6
S31500000D6003461A463B681A70002318461037BD46DC
S31500000D7080BD00BFE400FE1F80B584B000AF03460F
S31500000D803960FB800023FB60FB88184600F074FA8C
S31500000D90F860FB68002B01D0FB6810E03B68002B75
S31500000DA001D101230BE0084B1B68FA88114618464F
S31500000DB0FFF7BAFD03461A463B681A800023184619
S31500000DC01037BD4680BD00BFE000FE1F80B584B071
S31500000DD000AF0346FB800B46BB8013467B807B88B7
S31500000DE0002B01D1032320E00023FB60FB8818467B
S31500000DF000F042FAF860FB68002B01D0FB6814E0B3
S31500000E00BA887B8813407B81B7F90430DB431AB27A
S31500000E10B7F9023013401BB23B81064B18683B8979
S31500000E207A89F988FFF7C5FC002318461037BD46B6
S31500000E3080BD00BFE000FE1F80B586B000AF034650
S31500000E400A46FB8013467B717B79012B01D903236C
S31500000E502BE000233B61FB88184600F0DFF9386180
S31500000E603B69002B01D03B691FE00023FB82002376
S31500000E70BB82FB8823F0FF03FB81FB88DBB2BB81CF
S31500000E80BB89012202FA03F37B817B79002B02D115
S31500000E907B89BB8201E07B89FB82064B1868BB8A93
S31500000EA0FA8AF989FFF785FC002318461837BD46EC
S31500000EB080BD00BFE000FE1F80B586B000AF0346D0
S31500000EC0FB800B46BB8013467B807B88002B01D1C1
S31500000ED0032335E000237B61FB88184600F0CCF93C
S31500000EE078617B69002B01D07B6929E0164B1B6872
S31500000EF0FA8811461846FFF732FD03467B82BA8808
S31500000F007B8813403B82B7F90430DB431AB2B7F94A
S31500000F10023013401BB2FB817B8ABB81BA893B8AB4
S31500000F201343BB81FB89DB439AB2BB891340BB8168
S31500000F30054B1B68BA89F9881846FFF757FD002349
S31500000F4018461837BD4680BDE000FE1F80B584B048
S31500000F5000AF03460A46FB8013467B717B79002B64
S31500000F6004D07B79012B01D0032314E00023FB601E
S31500000F70FB88184600F052F9F860FB68002B01D098
S31500000F80FB6808E0064B1868064B19687B79FA88F7
S31500000F90FFF7FEFC002318461037BD4680BD00BF94
S31500000FA0E400FE1FE800FE1F80B584B000AF0346D4
S31500000FB03960FB800023FB60FB88184600F05CF973
S31500000FC0F860FB68002B01D0FB6810E03B68002B43
S31500000FD001D101230BE0084B1B68FA88114618461D
S31500000FE0FFF706FC03461A463B681A80002318469C
S31500000FF01037BD4680BD00BFE000FE1F80B586B03D
S3150000100000AF03463960FB8000237B61FB881846EE
S3150000101000F004F978617B69002B01D07B692AE036
S315000010203B68002B01D1012325E0FB887B827B8A6C
S3150000103023F0FF037B827B8A3B82114B1B683A8A33
S3150000104011461846FFF7D4FB0346FB81FB88DBB24B
S31500001050012202FA03F3BB81FA89BB8913409BB2D2
S31500001060BA899A4203D13B6801221A7002E03B68B2
S3150000107000221A70002318461837BD4680BD00BFEF
S31500001080E000FE1F80B584B000AF0346FB800B4630
S31500001090BB8013467B800023FB60FB88184600F06C
S315000010A0EBF8F860FB68002B01D0FB6819E07B8841
S315000010B0002B01D1032314E0BA887B8813407B817F
S315000010C0B7F90430DB431AB2B7F9023013401BB24A
S315000010D03B81064B18683B897A89F988FFF7A6FB9E
S315000010E0002318461037BD4680BD00BFE000FE1F36
S315000010F090B589B002AF03460A46FB8013467B7162
S3150000110000233B61FB88184600F088F838613B698C
S31500001110002B01D03B692EE07B79012B04D07B7933
S31500001120002B01D0032326E0FB88FB81FB8923F0FB
S31500001130FF03FB81FB89BB810023FB820023BB826B
S315000011407B79012B06D1FB88DBB2012202FA03F37D
S31500001150FB8205E0FB88DBB2012202FA03F3BB82C5
S31500001160074B1868BC8AFA8AB9897B7900932346AB
S31500001170FFF77EFB002318461C37BD4690BD00BF17
S31500001180E000FE1F80B483B000AF78607B68002B60
S3150000119001D101230CE07B6800221A707B680222D1
S315000011A05A707B6800229A707B680222DA700023EC
S315000011B018460C37BD465DF8047B704780B584B091
S315000011C000AF03460A46FB711346BB7100233B730F
S315000011D007F10C03184603F083F83B7B03F0010389
S315000011E0DBB2002B01D1062311E0FB79202B01D9BC
S315000011F003230CE0BB79012B01D9032307E0064B3F
S315000012001B68BA79F9791846FFF7A0FA0023184641
S315000012101037BD4680BD00BFE800FE1F80B487B012
S3150000122000AF0346FB80FB881B0A9BB27B61FB88F1
S31500001230DBB23B610E4B1B687A699A4211D23B695D
S315000012401033012202FA03F3FB600A4B1A687B692A
S315000012509B0013441A68FB681340002B01D000233F
S3150000126000E0032318461C37BD465DF8047B704733
S31500001270F000FE1FEC00FE1F80B485B000AF0346F1
S31500001280FB80FB881B0A9BB2FB60074B1B68FA6856
S315000012909A4201D2002300E0032318461437BD46C4
S315000012A05DF8047B704700BFF000FE1F80B586B076
S315000012B000AF78600023FB730023BB7300237B61C0
S315000012C039E000233B6130E07B685A687B69DB00CC
S315000012D013449A8829493B6931F813309A4221D13F
S315000012E07B685A687B69DB0013441B6803F0F8537C
S315000012F0BB60BB68B3F1807F03D0BB68B3F1106FEE
S3150000130008D101223B6902FA03F3DAB2FB7B1343ED
S31500001310FB7307E001223B6902FA03F3DAB2BB7BF7
S315000013201343BB733B6901333B613B69022BCBD94A
S315000013307B6901337B617B681B881A467B69934214
S31500001340BFD3012003F03AFC0D4B93F8BB347B73FB
S315000013507A7BFB7B13437B73BB7BDB43DAB27B7B02
S3150000136013407B73064A7B7B82F8BB34012003F073
S31500001370D5FB00BF1837BD4680BD00BFF46E000028
S3150000138000E0014080B483B000AF0346FB7197F9DB
S315000013900730002B0BDBFB7903F01F02074997F997
S315000013A007305B09012000FA02F241F8232000BF52
S315000013B00C37BD465DF8047B704700BF00E100E0D6
S315000013C080B483B000AF0346FB7197F90730002B5A
S315000013D012DBFB7903F01F020A4997F907305B0914
S315000013E0012000FA02F2203341F82320BFF34F8F89
S315000013F000BFBFF36F8F00BF00BF0C37BD465DF85F
S31500001400047B704700E100E080B483B000AF034680
S31500001410FB7197F90730002B0CDBFB7903F01F02F9
S31500001420074997F907305B09012000FA02F2603399
S3150000143041F8232000BF0C37BD465DF8047B70479A
S3150000144000E100E080B483B000AF03463960FB7171
S3150000145097F90730002B0ADB3B68DAB20C4997F99B
S3150000146007301201D2B20B4483F800230AE03B682E
S31500001470DAB20849FB7903F00F03043B1201D2B23A
S315000014800B441A7600BF0C37BD465DF8047B7047E7
S3150000149000E100E000ED00E080B485B000AFEFF3BE
S315000014A00383BB60BB687B603B1DFB60FB681B88DE
S315000014B0C3F308039BB2DBB2103BDBB25BB2184648
S315000014C01437BD465DF8047B7047FFFF80B483B0D8
S315000014D000AF03463960FB71064B1A6897F907306F
S315000014E0DB001A443B681A6000BF0C37BD465DF846
S315000014F0047B70474870000080B483B000AF78600A
S315000015000B46FB701346BB70FA78BB7803F00303F7
S31500001510D8B279688B5C60F305138B5400BF0C3727
S31500001520BD465DF8047B704780B483B000AF786039
S315000015300B46FB70FA7879688B5C6FF3C7138B5494
S3150000154000BF0C37BD465DF8047B704780B483B09E
S3150000155000AF78600B46FB70FA7879688B5C43F0D5
S3150000156080038B5400BF0C37BD465DF8047B704783
S3150000157080B483B000AF78600B46FB701346BB7037
S31500001580FA7879688B5CB87860F3C7138B5400BF20
S315000015900C37BD465DF8047B704780B483B000AF5E
S315000015A078600B46FB701346BB70FA78BB7803F085
S315000015B00303D8B279688B5C60F301038B5400BFD8
S315000015C00C37BD465DF8047B7047FFFF80B58AB0D7
S315000015D000AF786039607B687B6200233B623B68C2
S315000015E0002B01D1012380E07B6A002B01D101236E
S315000015F07BE00023BB6100237B8300237B760623ED
S315000016003B7607F1080300221A605A609A60DA6096
S31500001610384BDB6807F1080107F1180210469847B6
S3150000162038623B6A002B01D03B6A5EE0BA687B6A8F
S315000016305A60FB899B089BB203F001030133DBB2BE
S31500001640DB00FB773B681B78FA7F9A4202D840F2B0
S315000016507A534AE03B689B68002B05D03B685B7871
S31500001660FF2B01D1032340E03B681B789BB27B83B1
S3150000167007F11803184603F0C5F938623B6A002BD8
S3150000168001D0082331E03B689A687B6A9A603B6820
S31500001690DA687B6ADA603B681A787B6A5A7407F103
S315000016A018033A68796A184600F088F97B6A586820
S315000016B07B6A597C3B68DB781A46FFF71DFF7B6A1D
S315000016C058687B6A597C3B689B781A46FFF765FF2A
S315000016D07B6A58687B6A597C3B685B791A46FFF7D8
S315000016E047FF7B6A044A1A60002318462837BD461E
S315000016F080BD00BF887400005543490080B584B0A2
S3150000170000AF78607B68FB60FB68002B01D101238A
S3150000171021E0FB681B68124A934201D007231AE0B6
S31500001720FB6893F9103013F1210F01D1642312E005
S31500001730FB6893F91030184603F0C2F8FB6893F97A
S3150000174010301846FFF760FEFB6893F91030184614
S31500001750FFF718FE002318461037BD4680BD00BFB0
S315000017605543490080B584B000AF78607B68FB6064
S31500001770FB68002B01D1012321E0FB681B68124A9C
S31500001780934201D007231AE0FB6893F9103013F156
S31500001790210F01D1642312E0FB6893F9103018463B
S315000017A0FFF70EFEFB6893F910301846FFF72CFE84
S315000017B0FB6893F91030184603F082F800231846A8
S315000017C01037BD4680BD00BF5543490080B584B083
S315000017D000AF78600B46FB707B68FB60FB68002BF4
S315000017E001D101230FE0FB681B68094A934201D02F
S315000017F0072308E0FB685868FB685B7CFA781946A3
S31500001800FFF7CBFE002318461037BD4680BD00BF4C
S315000018105543490080B584B000AF78607B68FB60B3
S31500001820FB68002B01D101230FE0FB681B68094A06
S31500001830934201D0072308E0FB685A68FB685B7C8B
S3150000184019461046FFF782FE002318461037BD469C
S3150000185080BD00BF5543490080B584B000AF7860B5
S315000018607B68FB60FB68002B01D101230FE0FB685E
S315000018701B68094A934201D0072308E0FB685A68AF
S31500001880FB685B7C19461046FFF74EFE00231846A0
S315000018901037BD4680BD00BF5543490080B483B0B4
S315000018A000AF78607B68002B01D1012304E04FF084
S315000018B002227B681A60002318460C37BD465DF885
S315000018C0047B704780B586B000AF78607B687B612B
S315000018D07B69002B01D101233EE07B691B68204A0E
S315000018E0934201D0072337E000233B617B695B7C91
S315000018F09BB27B8200237B7406233B747B6993F93E
S31500001900103013F1210F1ED07B6993F91030184661
S31500001910FFF756FD7B6993F910301846FFF774FD03
S315000019207B6993F91030184602F0CAFF7B6993F978
S31500001930103007F10C0211461846FFF7C7FDFB6889
S315000019401B6800221A6007F11003184603F088F896
S315000019507B6900221A60002318461837BD4680BDF1
S315000019605543490080B584B000AF0023BB60FFF744
S3150000197093FD03461A4607F1080319461046FFF77A
S31500001980A5FDBB681B681B68FB60FB689B68002B9A
S315000019900AD0FB685B7C7B60FB68DB683B60FB68AE
S315000019A09B683A4610469847FFF776FD0346184669
S315000019B002F086FF00BF1037BD4680BD80B588B0F7
S315000019C000AFF860B9607A60FB6800225A80002395
S315000019D07B61234B1B697A68117807F11402F8685A
S315000019E09847F86197F91420BB681A74FB69002BB5
S315000019F031D1BB6893F9103013F1210F2BD0BB689E
S31500001A0093F9103007F1180211461846FFF75EFDEC
S31500001A10BB6893F910207B685B7819461046FFF780
S31500001A2011FDBB691B68BA681A607B681B79002BBD
S31500001A3011D0BB6893F91030184602F041FFBB681D
S31500001A4093F910301846FFF7DFFCBB6893F91030A6
S31500001A501846FFF797FC00BF2037BD4680BD00BF84
S31500001A608874000080B483B000AF78607B68002281
S31500001A709A707B6840229A707B6841229A7000BFF8
S31500001A800C37BD465DF8047B704780B483B000AF69
S31500001A9078607B6800221A717B6840221A717B6825
S31500001AA041221A7100BF0C37BD465DF8047B7047B2
S31500001AB080B483B000AF78607A68137843F080030F
S31500001AC0137000BF0C37BD465DF8047B704780B4C9
S31500001AD083B000AF78607A6813786FF3C71313701A
S31500001AE000BF0C37BD465DF8047B704780B485B0F7
S31500001AF000AFF860B9601346FB80FB68BA68043231
S31500001B00F98823F8221000BF1437BD465DF8047B20
S31500001B10704780B483B000AF786039607B683A68FC
S31500001B200432002123F8221000BF0C37BD465DF8B1
S31500001B30047B704780B58AB000AF78607B68002B65
S31500001B4001D1012345E00023FB610023FB83002331
S31500001B507B770B233B7707F10C0300221A605A6050
S31500001B609A60DA601D4BDB6807F10C0107F11C0275
S31500001B701046984738623B6A002B01D03B6A28E042
S31500001B80FB68174A136007F11C03184602F002FDB2
S31500001B9000237B6211E07B689A687B6A9B00134492
S31500001BA018787B689A687B6A9B0013445B881946A1
S31500001BB000F038F87B6A01337B627B685B687A6A7F
S31500001BC09A42E8D37B681B78002B01D000F054F8CA
S31500001BD0002318462837BD4680BD00BF8874000024
S31500001BE04401FE1F80B582B000AF0346FB71FB794E
S31500001BF0002B02D0012B06D00BE0094B1B681846C0
S31500001C00FFF730FF07E0064B1B681846FFF73DFF5E
S31500001C1001E0012300E0002318460837BD4680BDD9
S31500001C204401FE1F80B582B000AF03460A46FB7131
S31500001C301346BB80054B1B68F979BA881846FFF72F
S31500001C4055FF002318460837BD4680BD4401FE1FD8
S31500001C5080B582B000AF0346FB71064B1B68FA796C
S31500001C6011461846FFF755FF002318460837BD46AC
S31500001C7080BD00BF4401FE1F80B500AF034B1B684B
S31500001C801846FFF715FF0023184680BD4401FE1FC6
S31500001C9080B500AF034B1B681846FFF718FF0023FB
S31500001CA0184680BD4401FE1F80B483B000AF786043
S31500001CB07B68002B01D1012304E04FF002227B68F0
S31500001CC01A60002318460C37BD465DF8047B704742
S31500001CD080B483B000AF03463960FB7197F90730D3
S31500001CE0002B0ADB3B68DAB20C4997F90730120180
S31500001CF0D2B20B4483F800230AE03B68DAB2084903
S31500001D00FB7903F00F03043B1201D2B20B441A769F
S31500001D1000BF0C37BD465DF8047B704700E100E06C
S31500001D2000ED00E080B483B000AF0346FB7197F985
S31500001D300730002B09DB0D4A97F90730134493F857
S31500001D400033DBB21B09DBB209E0094AFB7903F079
S31500001D500F03043B13441B7EDBB21B09DBB21846A0
S31500001D600C37BD465DF8047B704700BF00E100E01C
S31500001D7000ED00E080B582B000AF78607B68013B83
S31500001D80B3F1807F01D301230FE00A4A7B68013B50
S31500001D9053600F214FF0FF30FFF79AFF054B0022EB
S31500001DA09A60044B07221A60002318460837BD467E
S31500001DB080BD00BF10E000E080B582B000AF786063
S31500001DC00021786801F0D7FF00BF0837BD4680BD07
S31500001DD080B582B000AF78600321786801F0CBFF50
S31500001DE000BF0837BD4680BD80B582B000AF7860C1
S31500001DF00421786801F0BFFF00BF0837BD4680BDEB
S31500001E0080B500AF002002F089FE00BF80BD80B51E
S31500001E1000AF002002F0D2FE00BF80BD80B500AF4B
S31500001E20012002F07BFE00BF80BD80B500AF01201F
S31500001E3002F0C4FE00BF80BD80B483B000AF03468D
S31500001E40FB71FB79052B94BF01230023DBB21846F7
S31500001E500C37BD465DF8047B704780B483B000AF95
S31500001E6078607B6893F82630C3F30203DBB218462A
S31500001E700C37BD465DF8047B704780B483B000AF75
S31500001E8078607B6893F84030C3F3C013DBB2012B54
S31500001E9001D1012300E0002318460C37BD465DF84A
S31500001EA0047B704780B483B000AF78607B6893F89A
S31500001EB04130C3F30003DBB2012B01D1012300E063
S31500001EC0002318460C37BD465DF8047B704780B585
S31500001ED082B000AF78600B46FB70FFF798FFFB7887
S31500001EE003F00103D9B27A6892F8303061F3000347
S31500001EF082F83030FFF784FF00BF0837BD4680BD4B
S31500001F0080B582B000AF7860FFF781FF7A6892F8FB
S31500001F10523043F0010382F85230FFF771FF00BFE1
S31500001F200837BD4680BD80B582B000AF7860FFF748
S31500001F306EFF7A6892F852306FF3000382F85230DF
S31500001F40FFF75EFF00BF0837BD4680BD80B582B093
S31500001F5000AF7860FFF75BFF7A6892F8533043F082
S31500001F60010382F85330FFF74BFF00BF0837BD4629
S31500001F7080BD80B582B000AF7860FFF748FF7A6811
S31500001F8092F853306FF3000382F85330FFF738FFAF
S31500001F9000BF0837BD4680BD80B582B000AF78600F
S31500001FA00B46FB70FFF733FFFB7803F00703D9B24C
S31500001FB07A6892F8243061F3061382F82430FFF72A
S31500001FC01FFF00BF0837BD4680BDFFFF80B586B046
S31500001FD000AF364802F098F900237B613B1D0022D2
S31500001FE01A605A609A60DA600023FB8200237B75D0
S31500001FF003233B752E4BDB68391D07F1140210468F
S3150000200098477B682B4A13604FF6FF733B60294B5A
S315000020101B680021184601F027FE0346002B18D046
S3150000202002E03B68013B3B60224B1B6800211846DF
S3150000203001F0CCF9034683F00103DBB2002B02D09A
S315000020403B68002BEDD13B68002B02D14FF4CD73DA
S3150000205028E0184B1B680621184601F03EFF4FF694
S31500002060FF733B6001F024F8124B1B6804211846ED
S3150000207001F05AF90121042000F00EFF0346002B5F
S3150000208002D04FF4CD730DE00A4B1B6805220421E4
S31500002090184601F0D7F9074B1B680021184601F0D6
S315000020A0B5F8002318461837BD4680BDF400FE1F5C
S315000020B088740000F800FE1F80B58AB000AF786013
S315000020C07B68002B01D10123B6E000237B627B688D
S315000020D01B7887F823307B680433FB6107F1140310
S315000020E000221A60C3F803200023FB760023FB744A
S315000020F007F1140207F113031146184600F08AFA95
S315000021007B685B7D3B737B68DB7CBB737B681B7D7D
S315000021107B737B68DB7DFB737B689B7D3B747B6895
S315000021201B7E7B7497F823301846FFF785FE03461F
S31500002130002B01D103237FE07B681B7828333B44C7
S3150000214013F81C3C012B01D1032375E07B7C022B89
S3150000215013D1FB691B781846FFF76EFE0346002B6A
S3150000216001D1032368E0FB691B7828333B4413F84D
S315000021701C3C012B01D103235EE007F10C03194639
S31500002180786800F001FF78627B6A002B01D07B6AD9
S3150000219052E097F82330184600F0D1FC78627B6A4B
S315000021A0002B01D07B6A47E097F82330042B09D136
S315000021B000F068FD034683F00103DBB2002B01D07B
S315000021C0012300E00023FB76FB7E03F00103FB7690
S315000021D07B6803F10C0297F823301146184600F08D
S315000021E04BF978627B6A002B01D07B6A24E0FB7C8A
S315000021F097F823209A4212D0FB7C28333B4413F8ED
S315000022001C3C012B0BD1FB7C7A681946012000F09F
S31500002210C8FC78627B6A002B01D07B6A0CE0FB7EEF
S31500002220002B08D001F04CFF024697F823301146E8
S31500002230184600F079FD002318462837BD4680BDB4
S3150000224080B584B000AF03463960FB71FB79184650
S31500002250FFF7F2FD0346002B01D1032386E0454B31
S315000022601B68FA791146184601F0FEFC0346002B5E
S3150000227007D0404B1B68184600F040FF40F2911310
S3150000228074E0FB79042B06D13A4B1B6800211846F3
S3150000229000F0BCFF57E0FB79012B02D100F060FE95
S315000022A051E0FB79002B11D1324B1B6800211846F7
S315000022B001F08CF8034683F00103DBB2002B02D158
S315000022C040F2931352E000F04BFE3CE0FB79032B07
S315000022D028D1284B1B680321184601F077F80346DE
S315000022E083F00103DBB2002B02D140F293133DE0F1
S315000022F000F036FE1F4B1A681F4B1B6893F82730F9
S315000023001946104600F04EFF1A4B1B68002118466E
S3150000231001F0C2F8174B1B6805220321184601F08D
S31500002320D4F810E0FB79052B0DD1386800F06AFE71
S31500002330F860FB68002B01D0FB6817E00D4B1B68AB
S315000023401846FFF739FD0B4B1B68FA7911461846FC
S3150000235000F098FFFB790221184600F09DFD034628
S31500002360002B02D04FF4CD7300E00023184610373F
S31500002370BD4680BDF800FE1FF400FE1F80B584B088
S3150000238000AF0346FB71FB791846FFF755FD034680
S31500002390002B01D1032369E0364B1B681846FFF773
S315000023A05CFD0346FB73FA79FB7B9A4202D140F24D
S315000023B091135BE0FB7B052B0BD02E4B1B68052195
S315000023C0184601F051FC034683F00103DBB2002BF3
S315000023D00CD1284B1B68184601F0ACF803461A4688
S315000023E0FB79934202D140F291133FE0FB79012B36
S315000023F00DD1204B1B681846FFF73FFD034683F0BF
S315000024000103DBB2002B02D140F295132EE0194BEB
S315000024101B68FA791146184601F026FC034683F03C
S315000024200103DBB2002B01D000231FE0114B1B6818
S31500002430FA791146184600F0C9FF0346002B02D16F
S3150000244040F2931312E00B4B1B68FA7911461846BB
S3150000245000F06AFFFB790121184600F01DFD0346D6
S31500002460002B02D04FF4CD7300E00023184610373E
S31500002470BD4680BDF800FE1F80B58AB000AF03469A
S315000024803960FB71FB791846FFF7D6FC0346002B33
S3150000249001D10323B6E03B68002B01D10123B1E053
S315000024A0386800F0B5FC78627B6A002B01D07B6A45
S315000024B0A8E0FB79042B18D13B689B79002B01D04F
S315000024C005239FE03B685B79002B01D0052399E04B
S315000024D04E4B1B681846FFF7D0FC034683F00103FA
S315000024E0DBB2002B01D105238CE0484B1B68184654
S315000024F0FFF7B3FC034687F82330FA7997F82330C1
S315000025009A4209D0FB79184600F0FAFC78627B6A99
S31500002510002B01D07B6A75E03C4B1B6807F1080273
S315000025201146184601F056F9384B1B681846FFF756
S3150000253043FC00233B7400233B773B689A79FB7985
S315000025401146184601F042FA03467B612F4B1B6881
S315000025500621184601F01CFA0346BB6107F1100379
S31500002560184601F039FE78627B6A002B01D07B6A3F
S3150000257048E0BA7B3B689B799A420DD2234B1B6895
S315000025803968184601F00AFB204B1B68FA79114698
S31500002590184600F0B5FF0CE01C4B1B68FA79114693
S315000025A0184600F0ADFF194B1B683968184601F054
S315000025B0F5FA164B1B680621184601F0E9F90346A1
S315000025C0BB6101233B7407F11003184601F004FEBA
S315000025D078627B6A002B01D07B6A13E001F070FD04
S315000025E003460B4A13600A4B1B68002B02D14FF4BB
S315000025F0C87307E0064B1A68FB791146184600F0C7
S3150000260093FB002318462837BD4680BDF800FE1F01
S315000026109401FE1F80B582B000AF786039607B6898
S31500002620002B01D1012314E03B68002B01D10123CB
S315000026300FE00A4B1B681846FFF70FFC03461A46C5
S315000026407B681A70054B1B683968184601F0C2F89A
S31500002650002318460837BD4680BD00BFF800FE1FA0
S3150000266080B584B000AF03463960FB713B68002B30
S3150000267001D1012320E0FB79062B0FD0FB79052B36
S315000026800CD0FB79042B09D0FB79184600F0DAFA56
S31500002690F860FB68002B01D003230DE03B680022A5
S315000026A01A60074B1B68FA791146184601F070F953
S315000026B002463B681A60002318461037BD4680BDA7
S315000026C0F800FE1F80B582B000AF0346FB71FB79B0
S315000026D01846FFF7B1FB0346002B01D103233FE069
S315000026E0FB79022B05D0FB79012B02D0FB79042B59
S315000026F00FD11D4B1B68FA791146184601F0B4FA42
S315000027000346002B02D040F2911329E04FF4C87320
S3150000271026E0FB79002B05D0FB79032B02D0FB7951
S31500002720052B1CD1104B1B68FA791146184601F08F
S315000027309BFA0346002B02D14FF4C87310E00A4BF4
S315000027401B68FA791146184600F040FE0346002B36
S3150000275002D140F2931303E04FF4C97300E0002363
S3150000276018460837BD4680BDF800FE1F80B586B006
S3150000277000AF78600B46FB70FB78002B51D07B686E
S31500002780002B01D1012360E0324B1B68184601F093
S31500002790D3FA0346FB75FB7D042B01D1012354E0DC
S315000027A02C4B1B6807F108021146184601F012F877
S315000027B0294B1B689B68002B10D0FB7D032B0DD18A
S315000027C0254B1B681A6907F108031146184600F0E5
S315000027D0DBFA0346002B17D0052336E01E4B1B6899
S315000027E0DB68002B10D0FB7D022B0DD11A4B1B682A
S315000027F05A6907F108031146184600F0C5FA034660
S31500002800002B01D0052320E07B683B613B6919461C
S31500002810012001F0C1FD0F4B1B68184601F0EEF8D0
S3150000282012E00C4B1B681846FFF73CFB034683F08F
S315000028300103DBB2002B02D14FF4CB7305E0054B4D
S315000028401B68184601F0F4F8002318461837BD46F1
S3150000285080BD00BFF800FE1FF400FE1F80B582B0E9
S3150000286000AF1F4B1B681846FFF71CFB0346002BE7
S315000028702BD01B4B1B681846FFF7EFFA0346FB717C
S31500002880184B1B6893F8283003F04003DBB2002B8B
S315000028900FD0134B1B68184600F04CFE0346BB7165
S315000028A0FB79052B0BD1BB79032B08D140F297138B
S315000028B011E0FB79052B02D140F297130BE0FB796F
S315000028C0032B02D140F2971305E0054B1B6818460F
S315000028D001F0C8F8002318460837BD4680BD00BF82
S315000028E0F800FE1FF400FE1F80B582B000AF03465D
S315000028F0FB71064B1B68FA7911461846FFF7E7FA93
S31500002900002318460837BD4680BD00BFF800FE1FED
S3150000291080B500AF034B1B681846FFF7F1FA00239A
S31500002920184680BDF800FE1F80B500AF034B1B683C
S315000029301846FFF7F8FA0023184680BDF800FE1F78
S3150000294080B582B000AF03460A46FB711346BB71E1
S31500002950FB79052B01D1032319E0FB79042B0ED15A
S31500002960FB79042B08D10C4B1B680421184601F097
S315000029707BF90346002B02D14FF4C87307E0064BE0
S315000029801B68BA79F979184601F08AF800231846C7
S315000029900837BD4680BD00BFF800FE1F80B500AFFA
S315000029A0034B1B68184601F0A8F80023184680BDA3
S315000029B0F800FE1F80B500AF034B1B68184601F0F8
S315000029C0AFF80023184680BDF800FE1F80B483B020
S315000029D000AF0346FB71062318460C37BD465DF86B
S315000029E0047B704780B400AF06231846BD465DF8E9
S315000029F0047B704780B400AF06231846BD465DF8D9
S31500002A00047B704780B483B000AF0346FB71062396
S31500002A1018460C37BD465DF8047B704780B400AF9E
S31500002A2006231846BD465DF8047B704780B400AFA8
S31500002A3006231846BD465DF8047B704780B500AF97
S31500002A40034B1B681846FFF781FA0023184680BD22
S31500002A50F800FE1F80B500AF034B1B681846FFF752
S31500002A6088FA0023184680BDF800FE1F80B582B0A4
S31500002A7000AF0346FB71064B1B68FA7911461846F0
S31500002A80FFF78AFA002318460837BD4680BD00BF07
S31500002A90F800FE1F80B588B000AF786039607B68AB
S31500002AA0FB613B68BB614FF000037B617B68002BD9
S31500002AB001D103232BE001F003FB38613B6907EEEC
S31500002AC0903AF8EE677AF7EE006A86EEA77ABB6967
S31500002AD007EE903AF8EE677A67EE277AC7ED057A41
S31500002AE0FB6907EE903AF8EE676A97ED057AC6EE4F
S31500002AF0877AFCEEE77A17EE903AFB60F86801F009
S31500002B0023F80346002B01D1122300E000231846C8
S31500002B102037BD4680BD80B483B000AF78607B6847
S31500002B20002B01D1012304E04FF002227B681A60DA
S31500002B30002318460C37BD465DF8047B704780B508
S31500002B4084B000AF0346FB7140F29313FB604FF66F
S31500002B50FF73BB600DE0BB68013BBB60BB68002B2D
S31500002B6002DC40F2931318E0FB791846FFF7AAFD42
S31500002B70F860FB6840F293129342ECD0FB68002B9E
S31500002B800AD0FB68B3F5C97F06D0FB6840F2911204
S31500002B90934201D0FB6800E0002318461037BD467B
S31500002BA080BD80B584B000AF03463A60FB710B462A
S31500002BB0BB713B680433FB600023BB60FB79012BD0
S31500002BC009D1BB791846FFF7D9FBB860BB68002B63
S31500002BD033D0BB6832E0FB79022B2ED1BB79052BB3
S31500002BE01BD1FB681B7839681846FFF729FBB860CC
S31500002BF0BB68002B06D0BB6840F29112934201D00D
S31500002C00BB681BE0FB681B781846FFF798FFB860A7
S31500002C10BB68002B01D0BB6810E0BB79F968184689
S31500002C20FFF70EFBB860BB68002B06D0BB6840F20E
S31500002C309112934201D0BB6800E00023184610377A
S31500002C40BD4680BD80B483B000AF0346FB71FB79FF
S31500002C50002B01D100230FE0FB79012B01D10023CA
S31500002C600AE0FB79022B01D1002305E0FB79032B57
S31500002C7001D1002300E0032318460C37BD465DF85A
S31500002C80047B704780B500AF1A4B1B6805211846B8
S31500002C9000F0EAFF034683F00103DBB2002B25D0E8
S31500002CA0144B1B680321184600F0DEFF034683F031
S31500002CB00103DBB2002B19D00E4B1B68002118460E
S31500002CC000F0D2FF034683F00103DBB2002B0DD0E8
S31500002CD0084B1B680121184600F0C6FF034683F027
S31500002CE00103DBB2002B01D0012300E000231846CC
S31500002CF080BD00BFF800FE1F80B500AF094B1B6802
S31500002D000521184600F0B0FF0346002B14BF01232F
S31500002D100023DBB283F00103DBB203F00103DBB275
S31500002D20184680BDF800FE1F80B582B000AF03468E
S31500002D303960FB71FB79042B02D0FB79022B0AD197
S31500002D40FFF7A0FF0346002B05D00D4B1B68184666
S31500002D50FFF74AF810E00B4B1B689B683A689A42EB
S31500002D600AD8FFF7C9FF0346002B05D0044B1B68A2
S31500002D701846FFF72DF800BF0837BD4680BD00BFD7
S31500002D80F800FE1FF400FE1F80B483B000AF786029
S31500002D9039607B681B781A463B68934201D9052344
S31500002DA030E07B685B781A463B68934201D905237D
S31500002DB028E07B689B781A463B68934201D9052335
S31500002DC020E07B68DB781A463B68934201D90523ED
S31500002DD018E07B685B791A463B68934201D9052364
S31500002DE010E07B681B791A463B68934201D905239C
S31500002DF008E07B689B791A463B68934201D9052314
S31500002E0000E0002318460C37BD465DF8047B70478A
S31500002E1080B483B000AF78607B681A787B689B7952
S31500002E209A4201D2032330E07B685A787B681B788C
S31500002E309A4201D2032328E07B681A787B68DB7804
S31500002E409A4201D2032320E07B685A787B68DB78BC
S31500002E509A4201D2032318E07B685A787B689B79F3
S31500002E609A4201D2032310E07B685A797B689B79EA
S31500002E709A4201D2032308E07B681A797B689B7922
S31500002E809A4201D2032300E0002318460C37BD46C0
S31500002E905DF8047B7047FFFF80B584B000AF034642
S31500002EA00A46FB711346BB714FF6FF73BB60BB79D5
S31500002EB0002B1ED0BB79022B0CBF01230023FB7312
S31500002EC002E0BB68013BBB600C4B1B68FA791146FC
S31500002ED0184600F0C9FE03461A46FB7B934202D011
S31500002EE0BB68002BEDD1BB68002B02D14FF4CD732C
S31500002EF000E0002318461037BD4680BDF800FE1FCF
S31500002F0080B582B000AF0346FB71FB79002B05D07C
S31500002F10FB79032B02D0FB79052B0CD10F4B1B68D9
S31500002F20FA791146184600F051FA0346002B0FD1E4
S31500002F3040F293130DE0094B1B68FA7911461846C7
S31500002F4000F092FE0346002B02D14FF4C87300E056
S31500002F50002318460837BD4680BD00BFF800FE1F97
S31500002F6080B500AF074B1B68184600F0E5FE034628
S31500002F70042B04D1034B1B681846FEF729FF00BF3C
S31500002F8080BD00BFF800FE1F80B584B000AF78603A
S31500002F9039600023BB603B6805331B787A680521DE
S31500002FA01846FFF7FEFDB860BB68002B06D0BB686D
S31500002FB040F29112934201D0BB681EE00023FB60F1
S31500002FC017E03A68FB6813441B78FA68D1B27A684E
S31500002FD01846FFF7E6FDB860BB68002B06D0BB6855
S31500002FE040F29112934201D0BB6806E0FB680133C0
S31500002FF0FB60FB68042BE4D9002318461037BD4656
S3150000300080BDFFFF80B582B000AF78607B68002B83
S3150000301001D1012346E0786800F020FC0346002B2E
S3150000302001D103233EE0214B1A687B681B781946C1
S31500003030104600F019FE0346002B02D14FF4CA7366
S3150000304030E01A4B1B680521184600F0BFF903460D
S3150000305083F00103DBB2002B02D140F2931321E08F
S31500003060FFF77EFF114B1A687B681B7819461046DE
S3150000307000F080FA0D4B1A687B685B78194610469B
S3150000308000F026FB094B1A687B68D3ED017AB0EE97
S31500003090670A104600F08AFA044B1B68184600F0CF
S315000030A02DF8002318460837BD4680BDF800FE1FE0
S315000030B080B400AF0E4B1B689B690E4A13600D4B24
S315000030C00D4A5A600B4B4FF400429A60084B1B683E
S315000030D0DB69084AD360074B4FF400421A61054B7F
S315000030E000225A6100BFBD465DF8047B704700BFF1
S315000030F0F400FE1FFC00FE1F00127A0080B52DEDC5
S31500003100028B84B000AF78600023BB60786800F063
S3150000311027FB0346BB60BB68002B38D00023FB604F
S315000031201E4B1B6893F8283003F03003DBB2102BDC
S3150000313008D1786800F0FEF903461A46184B53F892
S315000031402230FB60154B1B6893F8283003F03003E0
S31500003150DBB2202B02D1124BDB68FB60FB6807EE6B
S31500003160903AB8EE677ABB6807EE903AF8EE677A5F
S3150000317087EE278A786800F065FAF0EE407A68EE06
S31500003180277AFCEEE77A17EE902A054B5A6100BFC4
S315000031901037BD46BDEC028B80BD00BFF400FE1F9C
S315000031A0FC00FE1F80B584B000AF78600B46FB7054
S315000031B0154B1B6893F82030FB73134B1B6893F871
S315000031C02130BB73FEF723FE7B6893F81334DBB222
S315000031D05AB297F90F30DB435BB213405AB2F97813
S315000031E0BB7B01FA03F359B297F90F300B405BB280
S315000031F013435BB2DAB27B6883F81324FEF700FE52
S3150000320000BF1037BD4680BDF400FE1F80B584B0F8
S3150000321000AF78600B46FB70194B1B6893F82230A1
S31500003220FB73174B1B6893F82330BB73FEF7EFFD58
S315000032307B6893F88034C3F30003DBB2002B19D00C
S315000032407B6893F88134DBB25AB297F90F30DB43CF
S315000032505BB213405AB2F978BB7B01FA03F359B259
S3150000326097F90F300B405BB213435BB2DAB27B685F
S3150000327083F88124FEF7C4FD00BF1037BD4680BD2C
S31500003280F400FE1F80B582B000AF78600B46FB707D
S31500003290FEF7BDFDFB78052B3ED801A252F823F0C0
S315000032A0B9320000C9320000D9320000E93200000C
S315000032B0F9320000093300007A6892F836306FF36D
S315000032C0000382F8363028E07A6892F838306FF3D7
S315000032D0000382F8383020E07A6892F890346FF371
S315000032E0000382F8903418E07A6892F832306FF36F
S315000032F0000382F8323010E07A6892F880346FF377
S31500003300000382F8803408E07A6892F82A306FF376
S31500003310000382F82A3000E000BFFEF771FD00BF0F
S315000033200837BD4680BD00BF80B582B000AF78606B
S315000033300B46FB70FEF76BFDFB78052B3ED801A212
S3150000334052F823F05D3300006D3300007D3300003A
S315000033508D3300009D330000AD3300007A6892F88B
S31500003360363043F0010382F8363028E07A6892F866
S31500003370383043F0010382F8383020E07A6892F85A
S31500003380903443F0010382F8903418E07A6892F89A
S31500003390323043F0010382F8323010E07A6892F856
S315000033A0803443F0010382F8803408E07A6892F8AA
S315000033B02A3043F0010382F82A3000E000BFFEF70E
S315000033C01FFD00BF0837BD4680BD00BF80B483B077
S315000033D000AF78600B46FB70FB78052B1AD0052BE7
S315000033E022DC002B02D0032B0AD01DE07B6893F869
S315000033F03C30C3F30003DBB2002B17D001231BE0E4
S315000034007B6893F83C30C3F3C003DBB2002B0FD0CC
S31500003410012311E07B6893F83C30C3F34013DBB221
S31500003420002B07D0012307E0012305E000BF02E0DF
S3150000343000BF00E000BF002318460C37BD465DF80C
S31500003440047B704780B586B000AF78600B46FB7092
S3150000345013463B800621786800F09AFA3861FB78BB
S315000034600C4A52F82330FB60FB68002B0ED03A69F9
S31500003470FB68B2FBF3F33A8802FB03F37B6102E0DD
S315000034807B69013B7B617B69002BF9D100BF183753
S31500003490BD4680BDFC00FE1F80B582B000AF7860DF
S315000034A00B46FB70FEF7B3FCFB7803F00103D9B2C1
S315000034B07A6892F8133461F3861382F81334FEF7B0
S315000034C09FFC00BF0837BD4680BD80B582B000AF07
S315000034D078600B46FB701346BB70FEF798FCBB7812
S315000034E003F00F03D9B27A6892F8A23061F30303AE
S315000034F082F8A230FEF784FC00BF0837BD4680BDC7
S3150000350080B582B000AF78600B46FB70FEF77FFC9B
S31500003510FB7803F00703D9B27A6892F8263061F394
S31500003520020382F82630FEF76BFC00BF0837BD4663
S3150000353080BDFFFF80B483B000AF78600C4B1B6882
S3150000354093F8283003F04003DBB2002B08D07B68E9
S315000035501B8DC3F30013DBB2012B01D1002300E066
S31500003560032318460C37BD465DF8047B704700BF41
S31500003570F400FE1F80B582B000AF78600B46FB708A
S31500003580FEF745FCFB78032B05D17A68138D6FF3A4
S315000035900413138504E07A68138D43F01003138532
S315000035A0FEF72EFC00BF0837BD4680BD80B584B04F
S315000035B000AF786087ED000A214B1B6893F828302E
S315000035C003F03003DBB2102B16D1D7ED007A77EE7D
S315000035D0A77AFCEEE77A17EE903A013BFB60FEF71E
S315000035E016FCFB6803F03F03D9B27A68138D61F3CA
S315000035F00D231385FEF704FC114B1B6893F8283046
S3150000360003F03003DBB2202B16D1D7ED007AFCEEA7
S31500003610E77A17EE903A013BBB60FEF7F8FBBB6812
S3150000362003F01F03D9B27A6892F82B3061F30403D2
S3150000363082F82B30FEF7E4FB00BF1037BD4680BD95
S31500003640F400FE1F80B485B000AF78604FF0000331
S31500003650FB601E4B1B6893F8283003F03003DBB287
S31500003660102B0FD17B681B8DC3F30523DBB201330F
S3150000367007EE903AB8EE677AF0EE006AC7EE267A61
S31500003680C7ED037A114B1B6893F8283003F030031B
S31500003690DBB2202B0FD17B6893F82B30C3F30403E6
S315000036A0DBB207EE903AF8EE677AB7EE007A77EE7D
S315000036B0877AC7ED037AFB6807EE903AB0EE670AA1
S315000036C01437BD465DF8047B704700BFF400FE1F4B
S315000036D080B584B000AF78600B46FB701D4B1B684D
S315000036E093F8283003F03003DBB2102B11D1FB78AE
S315000036F0194A32F81330FB81FEF789FBFB8903F088
S315000037000303D9B27A68138D61F301031385FEF7BB
S3150000371077FB104B1B6893F8283003F03003DBB2BD
S31500003720202B13D1FB780D4A32F81330BB81FEF7FC
S315000037306EFBBB8903F00303D9B27A6892F82B308B
S3150000374061F3871382F82B30FEF75AFB00BF103760
S31500003750BD4680BDF400FE1F406F0000506F0000A4
S3150000376080B485B000AF78600123FB81164B1B68DF
S3150000377093F8283003F03003DBB2102B09D17B68B5
S315000037801B8DC3F30103DBB21A46104B33F812301C
S31500003790FB810D4B1B6893F8283003F03003DBB236
S315000037A0202B0AD17B6893F82B30C3F38113DBB24D
S315000037B01A46074B33F81230FB81FB89184614373B
S315000037C0BD465DF8047B7047F400FE1F386F0000AD
S315000037D0486F000080B483B000AF786039607B68C2
S315000037E01B6AC3F30233DBB21A463B681A707B6866
S315000037F01B6AC3F30223DBB21A463B685A707B6826
S315000038001B6AC3F30213DBB21A463B689A707B68E5
S315000038101B6AC3F30203DBB21A463B68DA707B68A5
S315000038201B6AC3F30243DBB21A463B681A717B6814
S315000038301B6AC3F30273DBB21A463B685A717B6894
S315000038401B6AC3F30263DBB21A463B689A7100BF78
S315000038500C37BD465DF8047B7047FFFF80B483B02C
S3150000386000AF78601E4B1B6893F824207B685B785A
S315000038709A4201D200232CE0194B1B6893F826309C
S3150000388007EE903AB8EE677A7B68D3ED017AB4EE2C
S31500003890E77AF1EE10FA0FD4114B1B6893F8253036
S315000038A007EE903AB8EE677A7B68D3ED017AB4EE0C
S315000038B0E77AF1EE10FA01DD00230AE07B681B7857
S315000038C0032B05D07B681B78002B01D0002300E07A
S315000038D0012318460C37BD465DF8047B704700BFD0
S315000038E0F400FE1F80B485B000AF78600B46FB7015
S315000038F00023FB60FB78062B41D801A252F823F087
S315000039001D3900002B390000393900004739000005
S315000039105539000063390000713900007B681B6A65
S31500003920C3F30233DBB2FB602AE07B681B6AC3F396
S315000039300223DBB2FB6023E07B681B6AC3F302133E
S31500003940DBB2FB601CE07B681B6AC3F30203DBB2DD
S31500003950FB6015E07B681B6AC3F30243DBB2FB60C6
S315000039600EE07B681B6AC3F30273DBB2FB6007E001
S315000039707B681B6AC3F30263DBB2FB6000E000BF37
S31500003980FB6818461437BD465DF8047B704700BFD8
S3150000399080B584B000AF78600B46FB70FB781946A3
S315000039A07868FFF79FFFF8607868FEF756FA0346D7
S315000039B01A46054B53F82220FB6822FA03F31846F1
S315000039C01037BD4680BD00BFFC00FE1F80B483B02B
S315000039D000AF03460A46FB711346BB71FB79064AE4
S315000039E052F82320BB7922FA03F318460C37BD465A
S315000039F05DF8047B704700BFFC00FE1F80B582B0F7
S31500003A0000AF7860FEF703FA7A6892F8403043F028
S31500003A10800382F840307A6892F8403043F0010320
S31500003A2082F84030FEF7ECF900BF0837BD4680BD8E
S31500003A3080B582B000AF7860FEF7E9F97A6892F84F
S31500003A4040306FF3000382F840307A6892F84030D5
S31500003A506FF3C71382F84030FEF7D2F900BF08377C
S31500003A60BD4680BD80B582B000AF78607B6893F8B4
S31500003A704130C3F30003DBB2012B0CD1FEF7C7F9CB
S31500003A807A6892F841306FF3000382F84130FEF70E
S31500003A90B7F9012300E0002318460837BD4680BD6C
S31500003AA080B582B000AF78600B46FB701346BB70E2
S31500003AB0FEF7ADF97A6892F83E306FF3C71382F8D5
S31500003AC03E30BB7803F00703D9B27A6892F83E30ED
S31500003AD061F3061382F83E30FB7803F00703D9B290
S31500003AE07A6892F83E3061F3020382F83E30FEF7C0
S31500003AF087F900BF0837BD4680BD80B582B000AFEC
S31500003B007860FEF784F97A6892F83E3043F08003D5
S31500003B1082F83E30FEF774F900BF0837BD4680BD17
S31500003B2080B582B000AF7860FEF771F97A6892F8D6
S31500003B303E306FF3C71382F83E30FEF761F900BFDF
S31500003B400837BD4680BDFFFF80B586B000AF786000
S31500003B500023FB75104B1B683B610F4B00221A605C
S31500003B604FF0FF30FEF7DEF8F8607868FEF702F9EE
S31500003B700346002B07D10123FB75F9684FF0FF3090
S31500003B80FEF7A6F802E0044A3B691360FB7D18467F
S31500003B901837BD4680BD00BF10E000E080B584B098
S31500003BA000AF786039600023FB603B681B7803F048
S31500003BB00703DAB2FB6862F30E33FB603B685B789F
S31500003BC003F00703DAB2FB6862F30A23FB603B6883
S31500003BD09B7803F00703DAB2FB6862F30613FB6017
S31500003BE03B68DB7803F00703DAB2FB6862F3020393
S31500003BF0FB603B681B7903F00703DAB2FB6862F3EC
S31500003C001243FB603B685B7903F00703DAB2FB689B
S31500003C1062F31E73FB603B689B7903F00703DAB21D
S31500003C20FB6862F31A63FB600E4B1B6893F82A303D
S31500003C3003F00403DBB2002B08D03B685B7803F08B
S31500003C400703DAB2FB6862F31243FB60FEF7DFF8A4
S31500003C50FA687B681A62FEF7D3F800BF1037BD46D4
S31500003C6080BD00BFF400FE1F80B483B000AF786053
S31500003C700B46FB70FB78052B4AD801A252F823F0BD
S31500003C80993C0000AD3C0000C13C0000D53C000062
S31500003C90E93C0000FD3C00007B6893F83630C3F336
S31500003CA00003DBB2002B35D101233FE07B6893F89C
S31500003CB03830C3F30003DBB2002B2DD1012335E0EE
S31500003CC07B6893F89034C3F30003DBB2002B25D155
S31500003CD001232BE07B6893F83230C3F30003DBB299
S31500003CE0002B1DD1012321E07B6893F88034C3F3B8
S31500003CF00003DBB2002B15D1012317E07B6893F894
S31500003D002A30C3F30003DBB2002B0DD101230DE0F3
S31500003D1000BF0AE000BF08E000BF06E000BF04E005
S31500003D2000BF02E000BF00E000BF002318460C37CA
S31500003D30BD465DF8047B704780B485B000AF7860FF
S31500003D400023FB737B6893F8AA30C3F30003DBB24E
S31500003D50012B02D10423FB7306E07B6893F8A030A5
S31500003D60C3F30103DBB2FB73FB7B18461437BD4676
S31500003D705DF8047B704780B584B000AF78600B4671
S31500003D80FB704FF6FF73BB60FEF74FF80023FB7323
S31500003D9007F10F03184600F0B9F808E0BB68013BCD
S31500003DA0BB60BB68002B02D1FEF738F892E07B6857
S31500003DB093F8AA30C3F30013DBB2002BEED17B6875
S31500003DC093F8A030C3F30013DBB2002BE6D17A6878
S31500003DD092F8AA306FF3000382F8AA304FF6FF7309
S31500003DE0BB6002E0BB68013BBB607B6893F8AA300E
S31500003DF0C3F30013DBB2002B07D17B6893F8A03026
S31500003E00C3F30013DBB2002B02D0BB68002BE9D151
S31500003E10FB78042B07D17A6892F8A03043F00303AD
S31500003E2082F8A0300AE0FB7803F00303D9B27A687F
S31500003E3092F8A03061F3010382F8A0304FF6FF73C9
S31500003E40BB6002E0BB68013BBB607B6893F8AA30AD
S31500003E50C3F30013DBB2002B07D17B6893F8A030C5
S31500003E60C3F30013DBB2002B02D0BB68002BE9D1F1
S31500003E70FB78042B07D17A6892F8AA3043F0010345
S31500003E8082F8AA3006E07A6892F8AA306FF3000347
S31500003E9082F8AA304FF6FF73BB6002E0BB68013BB5
S31500003EA0BB607B6893F8AA30C3F30013DBB2002B28
S31500003EB007D17B6893F8A030C3F30013DBB2002B65
S31500003EC002D0BB68002BE9D1FB7B184600F046F810
S31500003ED0FDF7A4FF1037BD4680BD80B582B000AFA8
S31500003EE078600B46FB70FDF792FFFB7803F0070343
S31500003EF0D9B27A6892F8A53061F3020382F8A53048
S31500003F00FDF77EFF00BF0837BD4680BD80B485B093
S31500003F1000AF78600023FB607B68002B01D1012392
S31500003F20FB60FB68002B0FD10B4BB3F80031C3F3DA
S31500003F300003DBB21A467B681A70074A92F8003112
S31500003F406FF3000382F80031FB6818461437BD464C
S31500003F505DF8047B704700BF00C0014080B485B0A7
S31500003F6000AF0346FB710023FB604FF0FF33BB60DD
S31500003F70164A92F8043143F0010382F8043102E054
S31500003F80BB68013BBB60114BB3F80431C3F30003BC
S31500003F90DBB2002B02D0BB68002BF1D1BB68002B33
S31500003FA002D11423FB600AE0084AFB7903F00103FF
S31500003FB0D9B292F8003161F3000382F80031FB6850
S31500003FC018461437BD465DF8047B704700C00140B3
S31500003FD080B586B000AF00237B61374B1B689847DE
S31500003FE00120FFF7BBFF0323FB74334B9B68FA7C6E
S31500003FF000211046984701237B71304BBB60FB7C48
S315000040003B7100BF2C4BDB69FA7C10469847034690
S31500004010B3F5C97FF6D1284B9B683A1D114605209A
S31500004020984778610523FB747B69002B05D07B6973
S3150000403040F29112934200D000BEFB7C012B0FD0C0
S31500004040FB7C022B0CD0FB7C042B09D000BF1A4B47
S31500004050DB69FA7C104698470346B3F5C97FF6D16B
S315000040600023BB7401233B7302237B730223BB73C0
S315000040700123FB7302237B7401233B740E4B1B69E4
S3150000408007F10C01FA7C1046984778617B69002B92
S3150000409000D000BE084B1B6E04209847064B9B6A57
S315000040A001209847044BDB6A9847034B9B6D984762
S315000040B000BF1837BD4680BD586F00000000A04104
S315000040C080B582B000AF00237B60054B9B693A1D2B
S315000040D01146062098477B6818460837BD4680BDBE
S315000040E0586F000080B483B000AF0346FB71084AE6
S315000040F0FB7903F00703D9B292F81C3161F302038E
S3150000410082F81C3100BF0C37BD465DF8047B704752
S3150000411000C0014080B400AF054B93F81C31C3F3D7
S315000041200203DBB21846BD465DF8047B704700BF4C
S3150000413000C0014080B483B000AF7860174BF12215
S315000041401A71164A7B6803F00103D9B2137A61F338
S3150000415082031372114A7B6803F00103D9B2137A02
S3150000416061F3C30313720D4A7B6803F00103D9B2EE
S31500004170137A61F300031372084A7B6803F00103A4
S31500004180D9B2137A61F341031372044BF0221A7108
S3150000419000BF0C37BD465DF8047B70470020004029
S315000041A080B483B000AF78600A4BF1221A71094AD5
S315000041B07B6803F00103D9B2137A61F30413137217
S315000041C0044BF0221A7100BF0C37BD465DF8047B24
S315000041D0704700BF0020004080B582B000AF786015
S315000041E07B681B78002B02D1786800F00DF87B689D
S315000041F01B78012B02D1786800F048F80023184696
S315000042000837BD4680BDFFFF90B585B000AF78602A
S315000042107B685B68FB60FB68184A934202D9012001
S31500004220FFF788FFFB68164A934202D90120FFF781
S31500004230B7FFFB68134A934203D87B6800221A73C0
S315000042400AE0FB68104A934203D87B6801221A737E
S3150000425002E07B6802221A737B681B7B1C46FFF711
S3150000426059FF03469C4204D97B681B7B1846FFF71F
S3150000427039FF00BF1437BD4690BD00BF000E2707AB
S3150000428000C2EB0B00B4C4040068890990B585B080
S3150000429000AF78607B689B68FB60FB680E4A9342C0
S315000042A002D80020FFF746FFFB680C4A934202D86B
S315000042B00020FFF775FF7B681B7B1C46FFF72AFF74
S315000042C003469C4204D07B681B7B1846FFF70AFF17
S315000042D000BF1437BD4690BD000E270700C2EB0B8A
S315000042E080B483B000AF78607A68137843F0010336
S315000042F013707A68137843F00203137000BF0C370B
S31500004300BD465DF8047B704780B483B000AF78602B
S315000043107B68044A1A6000BF0C37BD465DF8047B13
S31500004320704700BFC46F000080B483B000AF0023A5
S315000043307B6007E0084A7B68002142F823107B680F
S3150000434001337B607B680B2BF4D900BF00BF0C37B1
S31500004350BD465DF8047B70474801FE1F80B584B0FA
S3150000436000AF0346FB710023FB60FB79094A52F854
S315000043702330002B02D10323FB6006E0FB79054ABC
S3150000438052F82330FA7910469847FB6818461037DA
S31500004390BD4680BD4801FE1F80B485B000AF034610
S315000043A03960FB710023FB603B68002B05D1FB796C
S315000043B0084A002142F8231004E0FB7905493A68CF
S315000043C041F82320FB6818461437BD465DF8047B88
S315000043D0704700BF4801FE1F80B500AF6C4BB3F8B5
S315000043E04031C3F30003DBB2012B09D10320FFF7F1
S315000043F0B5FF674AB2F8303143F00103A2F8303115
S31500004400634BB3F84031C3F34003DBB2012B09D150
S315000044100220FFF7A3FF5E4AB2F8303143F00203F1
S31500004420A2F830315A4BB3F84031C3F38003DBB204
S31500004430012B09D10420FFF791FF554AB2F830311C
S3150000444043F00403A2F83031514BB3F84031C3F3C3
S31500004450C003DBB2012B09D10520FFF77FFF4C4AD1
S31500004460B2F8303143F00803A2F83031484BB3F8C4
S315000044704031C3F30013DBB2012B09D10620FFF74D
S315000044806DFF434AB2F8303143F01003A2F83031E1
S315000044903F4BB3F84031C3F38013DBB2012B09D194
S315000044A00120FFF75BFF3A4AB2F8303143F0400390
S315000044B0A2F83031364BB3F84031C3F3C013DBB248
S315000044C0012B09D10020FFF749FF314AB2F83031FC
S315000044D043F08003A2F830312D4BB3F84031C3F3DB
S315000044E00023DBB2012B09D10720FFF737FF284A4B
S315000044F0B2F8303143F48073A2F83031244BB3F86C
S315000045004031C3F34023DBB2012B09D10820FFF76A
S3150000451025FF1F4AB2F8303143F40073A2F8303158
S315000045201B4BB3F84031C3F38023DBB2012B09D117
S315000045300920FFF713FF164AB2F8303143F48063BF
S31500004540A2F83031124BB3F84031C3F3C023DBB2CB
S31500004550012B09D10A20FFF701FF0D4AB2F83031CD
S3150000456043F40063A2F83031094BB3F84031C3F38A
S315000045700033DBB2012B09D10B20FFF7EFFE044A13
S31500004580B2F8303143F48053A2F8303100BF80BD19
S315000045900060004080B582B000AF78600022002144
S315000045A0786800F005F8034618460837BD4680BD12
S315000045B080B58EB000AF78600B46FB701346BB70BB
S315000045C000233B737B681B78452B01D901235CE0F4
S315000045D07B681B781A462F4B9B5C3B733B7BFF2B00
S315000045E001D1032351E0786800F058F878633B7BEB
S315000045F0C3F38113DBB21A46274B53F822303B63D1
S31500004600FB78002B24D03B7B03F02003DBB2002B8E
S3150000461002D0BB78002B19D00023BB62EFF31083C6
S31500004620FB61FB69BB6201233B623B6A83F3108833
S3150000463000BF3B6B1A687B6B1A433B6B1A60BB6A05
S315000046407B627B6A83F3108800BF1DE003231CE0B6
S315000046507B6BDB437B630023FB62EFF310833B61E1
S315000046603B69FB6201237B617B6983F3108800BF92
S315000046703B6B1A687B6B1A403B6B1A60FB6ABB612B
S31500004680BB6983F3108800BF002318463837BD4640
S3150000469080BD00BFF06F00003870000080B485B0A8
S315000046A000AF786000233B727B681B781A46284B64
S315000046B09B5C3B723B7AC3F30403DBB21A467B680E
S315000046C05B8819467B685B780B44D31A012202FA91
S315000046D003F3FB603B7A03F02003DBB2002B2AD006
S315000046E03B7AC3F30403DBB21A4601239340FB6013
S315000046F07B681B782B2B02D0332B0ED020E07B68F7
S315000047005B88072B19D93B7AC3F30403DBB2013369
S31500004710012202FA03F3FB600FE07B685B78012B52
S315000047200DD13B7AC3F30403DBB20133012202FA53
S3150000473003F3FB6003E000BF02E000BF00E000BF40
S31500004740FB6818461437BD465DF8047B704700BF0A
S31500004750F06F00002DE9B04F90B000AFF861B9617D
S315000047600023FB63FB69BA6902FB03F3BB63FFF734
S31500004770A7FC78634E4A7B6BB2FBF3F33B63BB6BE0
S3150000478000223B617A61D7E904234FF000004FF025
S315000047900001590141EAD261500102460B463969CE
S315000047A0B2EB0108796963EB01094FF000024FF0A3
S315000047B000034FEA890343EA98734FEA880290465A
S315000047C09946D7E904120B4618EB03033B601346E0
S315000047D049EB03037B604FF000024FF00003D7E97B
S315000047E000894946CB00414643EA51734146CA0017
S315000047F0C7E90A23D7E90A23012B08D2BA6A3B6B19
S31500004800B2FBF3F37B627B6A9B08FB6344E03B6B82
S315000048109B00BA6BB2FBF3F3BB63BB6B0022BB60BE
S31500004820FA60D7E9028942464B464FF000004FF046
S315000048300001590141EAD261500102460B46414648
S31500004840541A494663EB01054FF000024FF000038E
S31500004850AB0043EA9473A20014461D46434614EB8C
S31500004860030A4B4645EB030B4FF000024FF00003E3
S315000048704FEACB0343EA5A734FEACA0292469B4673
S31500004880C7E90AABD7E90A23012B02D2BB6AFB634D
S3150000489002E04FF0FF33FB63FB6B002B02D0F86B9B
S315000048A000F008F800BF4037BD46BDE8B08F00BF36
S315000048B000CA9A3BA0F101000028FBD1704700BF57
S315000048C080B483B000AF0346FB7197F90730002B25
S315000048D00ADB97F907309B0003F1804303F5C643D3
S315000048E01A686FF310421A6000BF0C37BD465DF8B8
S315000048F0047B704780B483B000AF144B3B60144A0E
S31500004900144BD31ADB08144A136000237B6010E0B3
S31500004910104A7B68DB0013449B88C3F3090399B2F2
S315000049207B689B003A6813440A461A607B68013329
S315000049307B60094B1B687A689A42E9D300BF00BFC7
S315000049400C37BD465DF8047B704700BF006300402E
S3150000495008050000000500007801FE1F80B584B040
S3150000496000AF78600023FB60786800F006F8F86016
S31500004970FB6818461037BD4680BD80B48BB000AFCB
S31500004980786008237B62002387F823307B68FB610D
S31500004990FB69D3E84F3FBB61BB69DBB287F82230C6
S315000049A097F82230002B12D17B680122FA753B6101
S315000049B0FA7D3969C1E8432FFB60FB68002B02D101
S315000049C000237B6206E0012387F8233002E0BFF371
S315000049D02F8F00BF97F82330002BD4D17B6A18465F
S315000049E02C37BD465DF8047B704780B483B000AFBA
S315000049F078607B6800221A7000BF0C37BD465DF8F0
S31500004A00047B704780B584B000AF78600023FB60FC
S31500004A1015E07B681A680F4B1968FB689B000B440E
S31500004A201B689A4208D10C4B1A68FB681344184657
S31500004A30FFF794FF034608E0FB680133FB60074B72
S31500004A401B68FA689A42E4D3032318461037BD461A
S31500004A5080BD00BF8001FE1F7C01FE1F8401FE1F7A
S31500004A6080B584B000AF78600023FB6014E07B68FB
S31500004A701A680D4B1968FB689B000B441B689A4229
S31500004A8007D10A4B1A68FB6813441846FFF7ADFFB7
S31500004A9007E0FB680133FB60054B1B68FA689A4226
S31500004AA0E5D31037BD4680BD8001FE1F7C01FE1F89
S31500004AB08401FE1F80B582B000AF124B124A1A6005
S31500004AC0124B134A1A60134A114BD31A9B08124A07
S31500004AD0136000237B600AE00C4B1A687B689B001E
S31500004AE013441846FFF7BCFF7B6801337B600A4B13
S31500004AF01B687A689A42EFD300BF00BF0837BD46ED
S31500004B0080BD00BF7C01FE1F7400FE1F8001FE1FDA
S31500004B1008050000B80600008401FE1F80B487B0B7
S31500004B2000AF0346FB7100237B61EFF31083FB604C
S31500004B30FB687B6101233B613B6983F3108800BFFF
S31500004B40FB791A4A32F813309BB2002B09D0FB7955
S31500004B50164A32F8132092B2013A91B2134A22F859
S31500004B601310FB79114A32F813309BB2002B11D186
S31500004B700F4BB3F8FE339AB20E4B13439AB2FB793E
S31500004B800D4931F81330DB439BB2094913409BB200
S31500004B90A1F8FE337B69BB60BB6883F3108800BF56
S31500004BA000BF1C37BD465DF8047B70478801FE1FB9
S31500004BB000E0014000A5FFFF4C70000080B487B004
S31500004BC000AF0346FB7100237B61EFF31083FB60AC
S31500004BD0FB687B6101233B613B6983F3108800BF5F
S31500004BE0FB79164A32F813309BB2002B0FD1144BC7
S31500004BF0B3F8FE339AB2FB79124931F813301343F6
S31500004C009AB20F49104B13439BB2A1F8FE33FB79BE
S31500004C100A4A32F8132092B2013291B2074A22F8B8
S31500004C2013107B69BB60BB6883F3108800BF00BFAD
S31500004C301C37BD465DF8047B704700BF8801FE1F28
S31500004C4000E001404C70000000A5FFFF80B483B077
S31500004C5000AF00237B6007E0084A7B68002122F84A
S31500004C6013107B6801337B607B68022BF4D900BF8D
S31500004C7000BF0C37BD465DF8047B70478801FE1FF8
S31500004C8080B584B000AF78607B68FB60144B1B680E
S31500004C90002B02D1124B134A1A60114B1B68BB60E2
S31500004CA0FB68033323F00303FB600D4B1A68FB68B4
S31500004CB013440D4A934207D900F0B8FD03460C226F
S31500004CC01A604FF0FF3306E0054B1A68FB68134481
S31500004CD0034A1360BB6818461037BD4680BD00BF47
S31500004CE09001FE1F7002FE1F7012FE1F80B500AFFE
S31500004CF000F024F800F056FBFEE780B400AF00BEDB
S31500004D0000BFBD465DF8047B7047FFFF80B400AF6F
S31500004D10034B00221A8000BFBD465DF8047B704736
S31500004D204001FE1F80B500AFFFF7CAF90346024AED
S31500004D30136000BF80BD00BF9401FE1F80B582B026
S31500004D4000AF374BD3F88830354A43F47003C2F8C6
S31500004D508830002000F0BFF8FFF7E6FA314B1B68F9
S31500004D609847FFF773FFFFF733F9FFF7CFFF2E4B97
S31500004D701B682E4898472E4A2E4BD31A19462D48A3
S31500004D8000F070F82C4A2D4BD31A1A462B492C48A2
S31500004D9000F080F82B4B00229A802A4B4FF42542D4
S31500004DA01A80284B284A9A60284B264A013BD36032
S31500004DB0274BB3F820319BB2254A43F480539BB26C
S31500004DC0A2F820311F4B01229A80FFF7ABFF01208A
S31500004DD000F081F81F4A204BD31A9B103B6000233A
S31500004DE07B6007E01C4A7B6852F8233098477B6853
S31500004DF001337B607A683B689A42F3DBFFF75AFE21
S31500004E00FFF778FD154B1B681548984700F070F8BA
S31500004E10002000F0AFF800BF0837BD4680BD00BFD8
S31500004E2000ED00E088740000B86E0000F873000022
S31500004E307002FE1F2401FE1FE000FE1F0000FE1F81
S31500004E40247A0000000D00407012FE1F701AFE1F2B
S31500004E50006000407000FE1F6C00FE1F1C6F00000B
S31500004E605470000080B483B000AF7860396007E00A
S31500004E703B68013B3B607A683B68134400221A702A
S31500004E803B68002BF4D100BF00BF0C37BD465DF870
S31500004E90047B704780B487B000AFF860B9607A6071
S31500004EA000237B610CE0FB681A78BB681A707B698B
S31500004EB001337B61BB680133BB60FB680133FB6078
S31500004EC07A697B689A42EED300BF00BF1C37BD46A5
S31500004ED05DF8047B704780B483B000AF0346FB7176
S31500004EE000BF0C37BD465DF8047B7047FFFFFFFF30
S31500004EF02DE9F04383B000AF1B49D1E9000102461A
S31500004F000023C7E900233E68174BD3E900014FF0A1
S31500004F1000024FF000030A000023134673401846B0
S31500004F2000F092FC104BD3E900231048104912EB15
S31500004F30000843EB01090C4BC3E900890A4BD3E98E
S31500004F40002307A1D1E9000182EA000483EA0105F2
S31500004F50054BC3E9004500BF0C37BD46BDE8F083ED
S31500004F6037B8929E2B52ADFD1801FE1F1654E7A1CD
S31500004F70E34FE6F480B582B000AF786000F08AF8BF
S31500004F8000BF0837BD4680BD80B400AF4FF0C843B0
S31500004F90FF221A614FF0C842536943F0010353617F
S31500004FA04FF0C84366221A614FF0C842536943F076
S31500004FB0010353614FF0C84399221A614FF0C8426A
S31500004FC0536943F00103536100BFBD465DF8047B9E
S31500004FD0704780B485B000AF0346FB710023FB60C9
S31500004FE0FB684FF0C84253696FF300035361FB79C6
S31500004FF0002B23D04FF0C842936A202161F30F2380
S3150000500093624FF0C842936A43F0800393624FF075
S31500005010C0431B68FB6040F6FF73BB6005E0BB68DE
S31500005020013BBB60BB68002B2BD04FF0C8439B6A8B
S31500005030C3F38013DBB2002BF1D025E04FF0C8425A
S31500005040936A43F47F4393624FF0C842936A6FF3C7
S31500005050C71393624FF0C0431B68FB6040F6FF73B3
S31500005060BB6005E0BB68013BBB60BB68002B0AD098
S315000050704FF0C8439B6AC3F38013DBB2002BF1D118
S3150000508002E000BF00E000BF1437BD465DF8047BB8
S315000050907047FFFF80B582B000AFA24A13686FF376
S315000050A0861313604FF0C84310221A634FF0C843AB
S315000050B000229A614FF0C84300221A624FF0C8439B
S315000050C000225A634FF0C8430022C3F804284FF069
S315000050D0C84293686FF3040393604FF0C842536964
S315000050E043F001035361FFF74FFF01212320FFF730
S315000050F031FB4FF0C8439F221A614FF0C8431B692A
S31500005100DAB2894B1A704FF0C8431B69DAB2864B84
S315000051105A704FF0C8431B69DAB2834B9A704FF04E
S31500005120C842536943F0010353617F4B1B78EF2B51
S3150000513007D17D4B5B78402B03D17B4B9B78172B9C
S3150000514009D0794B00221A70774B00225A70764BA1
S3150000515000229A70E2E04FF0C84305221A614FF030
S31500005160C8431B69DAB2714B1A704FF0C8425369D3
S3150000517043F0010353614FF0C84335221A614FF0E3
S31500005180C8431B69DAB26A4B1A704FF0C8425369BA
S3150000519043F0010353614FF0C842936A042161F35F
S315000051A0030393624FF0C8425368042161F303037B
S315000051B053604FF0C84350221A614FF0C8425369FA
S315000051C043F0010353615A4A137843F00203137004
S315000051D04FF0C84301221A61544B1A784FF0C84366
S315000051E01A61534B1A784FF0C8431A614FF0C84200
S315000051F0536943F0010353614FF0C84304221A6117
S315000052004FF0C842536943F0010353614FF0C8425F
S315000052101368052161F3020313604FF0C8430522AA
S315000052201A614FF0C8431B69DAB2404B1A704FF04F
S31500005230C842536943F0010353614FF0C843352216
S315000052401A614FF0C8431B69DAB2394B1A704FF036
S31500005250C842536943F001035361334B9B78182BC3
S315000052604ED94FF0C84306221A614FF0C84253691F
S3150000527043F0010353614FF0C843B7221A614FF060
S31500005280C842536943F001035361FB1D184600F001
S3150000529061F8FB79002BF8D14FF0C842536A43F00E
S315000052A0030353624FF0C842536A43F0100353623C
S315000052B04FF0C84306221A614FF0C842536943F0C3
S315000052C0010353614FF0C843E9221A614FF0C84207
S315000052D0536943F001035361FB1D184600F03AF889
S315000052E0FB79002BF8D14FF0C842536A022161F3D3
S315000052F0010353624FF0C842536A6FF304135362BB
S315000053004FF0C842136843F04003136000F012F8F0
S315000053104FF0C84253696FF3000353610837BD4627
S3150000532080BD00BF00700440A001FE1F9801FE1F53
S315000053309C01FE1F80B500AF00BF4FF0C8439B69BC
S31500005340C3F30003DBB2012BF7D00120FFF741FEC8
S3150000535000BF80BD80B483B000AF78604FF0C84313
S3150000536005221A614FF0C8431B69DAB20C4B1A705A
S315000053704FF0C842536943F001035361084B1B7851
S3150000538003F00103DBB2002B14BF01230023DAB2C2
S315000053907B681A7000BF0C37BD465DF8047B70470A
S315000053A09801FE1F80B500AF00F036F800231846BE
S315000053B080BDFFFF80B584B000AF7860144B1B78CA
S315000053C0DBB2002B14BF01230023DBB283F0010301
S315000053D0DBB203F00103DAB20D4B1A700D4B5B68BA
S315000053E0DB6907F10F02114606209847094B5B68F7
S315000053F01B6AFA7B002A0CBF01220022D2B2114698
S315000054004FF4C060984700BF1037BD4680BD00BF4F
S31500005410BC01FE1F6070000080B500AF0B4B9B689F
S315000054201B680A4A12680949496810469847074B9B
S315000054309B685B68054A126810469847044B5B6890
S315000054401B6A00214FF4C0609847FEE77C7000009D
S3150000545060700000034678B10849094A096891421C
S3150000546008D1084AD2F89C21516802EB810200203B
S315000054701A60704712207047012070472001FE1FF6
S31500005480494D460000B07F4020B14FF00223036033
S315000054900020704701207047B0B10C4A0C4B1268CF
S315000054A09A420FD10B4BD3F89C315A6800F1100188
S315000054B003EB820353F8042F40F8042B8842F9D1FA
S315000054C00020704712207047012070472001FE1F00
S315000054D0494D460000B07F4098B392B3F0B51D4CDD
S315000054E01D4B24689C4201D01220F0BD1B4B1C684A
S315000054F04CB31B4B05781B684FF0000C05E00CF114
S31500005500010CA44503F108031DD093F806E0AE454F
S31500005510F5D15E79B0F802E0BEEB960FEFD1DE79F9
S3150000552090F801E006F007077745E8D1B1EBD60F12
S31500005530E5D182F800C09B88C3F30903002053809D
S31500005540F0BD01207047DF21FF23117053800B202F
S31500005550F0BD00BF2001FE1F494D46007801FE1F29
S31500005560487000001E4B1A689AB103F57F7100203F
S3150000557001E053F8042F8B421044FAD148B9194B75
S31500005580D3F89C311A0CB2F5807F05D000BE00BE60
S31500005590FCE700BE00BEFCE71A68013A033208D8F1
S315000055A0114A93F8241092F800C08C4504D000BE2E
S315000055B0FDE700BE00BEFCE7517893F825C06145C3
S315000055C0F5D1917893F826C06145F0D1D27893F859
S315000055D027309A42EBD1054B054A1A60704700BF47
S315000055E0A074000000B07F40C47400002001FE1FBC
S315000055F0494D4600002861D000295FD0864A874B76
S3150000560012689A4201D0122070472DE9F041844D6C
S315000056100278AC6805EB8404A3789A4280F0C980CE
S31500005620170904EB870E02F00F0CBEF8086026FA85
S315000056300CF818F0010F00F0BC8012F0080F9EF86D
S315000056400AE008D004EB870702F0070CFA7A02F0AA
S315000056500F02360A9644734A12F80CC0724A0CEAD4
S3150000566006061B09925D023372449B0003EB42035C
S31500005670E218E35A92F90160C3F30903002E05EB21
S3150000568083021DDB4678002E40F08F806668D47852
S315000056904088C4F303144C72D478C4F303048C72A8
S315000056A001248C80002833D135F823409378CB80B1
S315000056B006EB04260E600872C86078E00120704789
S315000056C015F8233044785B082CBB032B79D059D8C6
S315000056D073D0D4784088C4F303144C72D478C4F3DE
S315000056E003048C7214798C80A04211D2D6889568F6
S315000056F0012B00FB06550D6000F08580022B73D050
S31500005700B2F80150CD8000230B72CB60002D56D12C
S3150000571040F27A504BE002254FF0010C4FF0040E98
S315000057201678F60704F1FF343FD5052B72D8DFE86B
S3150000573003F003231914120A0C231A4413785B0886
S31500005740002CEDD1C1E79378DE1C15FB03C303EBF8
S3150000575096039B00F1E70823EFE793781EFB03C34C
S315000057609B00EAE71679937813FB06F303330336B7
S3150000577003EB96039B00E0E71379033303F4FE7310
S315000057800C33DAE7042B18D1D078547852680A60C3
S31500005790C0F303038B720023C0F303128B800B72DA
S315000057A0CB60A3074A72CC8009D440F27950BDE899
S315000057B0F0814FF4AF60BDE8F0816420F7E7002088
S315000057C0F5E7D07854780346C3F30303C0F3031018
S315000057D0042548728B72002093788B802A440D72C0
S315000057E0CC800860CA60E2E7131803341D7B937807
S315000057F00B7200FB03F3033303EB940402EB840206
S31500005800CD80CA6082E702440023157BCD800B72EF
S31500005810CB607BE7002390E72001FE1F494D460041
S31500005820A07400008074000000740000014B18682A
S31500005830704700BF0000FE1F02440346934200D19A
S31500005840704703F8011BF9E738B5104B1D68AB6BC1
S315000058500446B3B9182000F055F80246A86320B9EB
S315000058600B4B0C48422100F01DF80B490B4BC0E9CD
