S01900006164635F6672616D65776F726B5F7468642E7372656317
S31500000000F01FFE1FD14C00006D470000CD4C0000D4
S31500000010CD4C0000CD4C0000CD4C0000000000008F
S31500000020000000000000000000000000CD4C0000B1
S31500000030CD4C00000000000025670000CD670000E1
S3150000004051440000FFFFFFFFFFFFFFFFFFFFFFFF21
S31500000050FFFFFFFFFFFFFFFFFFFFFFFFFFFFFFFFAA
S31500000060FFFFFFFFFFFFFFFFFFFFFFFFFFFFFFFF9A
S31500000070FFFFFFFFFFFFFFFFFFFFFFFFFFFFFFFF8A
S31500000080FFFFFFFFFFFFFFFFFFFFFFFFFFFFFFFF7A
S31500000400FFFFFFFFFFFDFFFFFFFFFFFFFFFFFFFFF8
S31500000410FFFFFFFFFFFFFFFFFFFFFFFFFFFFFFFFE6
S31500000420FFFFFFFFFFFFFFFFFFFFFFFFFFFFFFFFD6
S31500000430FFFFFFFFFFFFFFFFFFFFFFFFFFFFFFFFC6
S31500000440FFFFFFFFFFFFFFFFFFFFFFFFFFFFFFFFB6
S31500000450FFFFFFFFFFFFFFFFFFFFFFFFFFFFFFFFA6
S31500000460FFFFFFFFFFFFFFFFFFFFFFFFFFFFFFFF96
S31500000470FFFFFFFFFFFFFFFFFFFFFFFFFFFFFFFF86
S31500000480FFFFFFFFFFFFFFFFFFFFFFFFFFFFFFFF76
S31500000490FFFFFFFFFFFFFFFFFFFFFFFFFFFFFFFF66
S315000004A0FFFFFFFFFFFFFFFFFFFFFFFFFFFFFFFF56
S315000004B0FFFFFFFFFFFFFFFFFFFFFFFFFFFFFFFF46
S315000004C0FFFFFFFFFFFFFFFFFFFFFFFFFFFFFFFF36
S315000004D0FFFFFFFFFFFFFFFFFFFFFFFFFFFFFFFF26
S315000004E0FFFFFFFFFFFFFFFFFFFFFFFFFFFFFFFF16
S315000004F0FFFFFFFFFFFFFFFFFFFFFFFFFFFFFFFF06
S315000005008805FE1F4B00201020000000200001007F
S315000005102F0000002F0001000C0001001100000058
S31500000520300000003000010024000000240001001B
S315000005302400020024000300240004002400050017
S315000005401300000017000000230000002100000037
S31500000550210001000700000007000100070002005B
S315000005600700030007000400070005000700060057
S315000005700700070012000000440000000800000009
S315000005800B00000041000000400000004000010098
S3150000059004000000430000002B0000002B000A00AE
S315000005A02B000B002B000C002B000D002B00010074
S315000005B02B0002002B0003002B0004002B0005007B
S315000005C02B0006002B0007002B0008002B0009005B
S315000005D00600000006000A0006000B0006000C00DC
S315000005E006000D0006000E0006000F0006000100C2
S315000005F006000200060003000600040006000500CF
S3150000060006000600060007000600080006000900AE
S315000006101500000015000100150002003100000061
S315000006202A00000045000000100000000301000041
S3150000063003000000030001000F0000000D00000091
S315000006402D000000420000002C0000002C000100DC
S315000006502C0002002C0003003200000028000000DD
S31500000660180000001400000014000100140002002D
S315000006701400030014000400140005001400060012
S3150000068014000700140008001400090034000000DC
S3150000069034000100160000001600010035000000BD
S315000006A03600000036000100220000003300000082
S315000006B0330100002900000010B5054C237833B93A
S315000006C0044B13B10448AFF300800123237010BD1F
S315000006D03403FE1F000000005092000008B5034BD3
S315000006E01BB103490348AFF3008008BD00000000BA
S315000006F03803FE1F5092000020B14FF00223036022
S315000007000020704701207047002871D0F0B544687A
S3150000071087B0002C43D08378002B40D1354A21681E
S3150000072091423CD194F86650002D3AD0256E226D48
S31500000730B4F86400616C05FB02FC00FB05F595B19D
S315000007404FEA4C02A1EB4C0CA16C3CF8020088521B
S31500000750B4F86400216E013300FB01F1994202F105
S315000007600202F1D8226DA36D0244013B2265A36506
S31500000770ABB9A16C0491616D029201FB00F0E16CD2
S31500000780059002448A42E26E88BF23650021A36E6B
S315000007908DF80410039201A89847636DA36507B00E
S315000007A0F0BD236C216DD3F800C09F68E36D266E03
S315000007B002911944E06C05930B4406FB03F3834254
S315000007C0A26C2165049296BF7143256502EB410236
S315000007D0B4F85430616C7D686046A847E26EA36E3B
S315000007E0039200218DF8041001A8984707B0F0BDC8
S315000007F0704700BF4743444120B338B5124B0268E7
S315000008009A42044601D0072038BD051D002128461E
S3150000081004F038FFE36B9A681868136A9847A36B6D
S31500000820DA681868936A984794F8663023B9236C97
S315000008309A681868D3699847284604F00DFF002087
S31500000840206038BD01207047474344412DE9F041FF
S3150000085018B3154B02689A4203D007252846BDE80F
S31500000860F081D0E90E23041D00212046D7689E683A
S315000008701568D3F8008004F005FF90B92846BB68D8
S315000008809847054618B9B368404698470546204636
S3150000089004F022FF2846BDE8F08101252846BDE880
S315000008A0F0810825DAE700BF4743444170B5C8B177
S315000008B00F4B02689A4202D00724204670BDC36BD4
S315000008C0041D002120469E681D6804F0DBFE60B909
S315000008D0736828469847034620461C4604F0FCFEEB
S315000008E0204670BD0124204670BD0824E5E700BF00
S315000008F0474344412DE9F04F2DED028BA5B000286A
S3150000090000F0C9809F4B02689A42044600F0E080DE
S315000009100D46002900F0BF800B6A002B00F0BB805B
S315000009200B68002B00F0B7804A68002A00F0B380FD
S315000009300A7C002A00F0AB80AA69002A00F0D08069
S31500000940A3636B68E363AB682364271D342301222A
S315000009500021384604F02CFE0646002840F0B08000
S31500000960CDE90900CDE90B006B680D90ADF82200CA
S31500000970D3F804B0D4E90E23D3F808A01B68D2F844
S315000009800C90D2F800800093BBE80F000DF14C0CE0
S31500000990ACE80F009BE80F008CE80F00CDE9186665
S315000009A02B685E680DF16C0E06F1200B30687168DD
S315000009B0B268F368F446ACE80F0010365E45E646CA
S315000009C0F4D13068704BCCF8000020941F93D9F80E
S315000009D000301BA9404698478346002867D12B68FC
S315000009E040469968D9F804309847834600285AD17A
S315000009F0009EDAF8003013A930469847834600284F
S31500000A0051D1EB68A3646B69C4E91330AB69C4E9DF
S31500000A1015332B7C84F866302B6AA3666B6AE36613
S31500000A20DAF81C3005A930469847834600285CD181
S31500000A302B68BDF82220DB6809A9DB6A404608EE70
S31500000A40102A9847834600284FD1DDF828E0099AF6
S31500000A5094F86630019262641FFA8EFB9DF82C2092
S31500000A6002922266A4F864B0002B47D0474B9DF84B
S31500000A702D009B6818EE101A98478346B8B9414B6B
S31500000A802360584625B0BDEC028BBDE8F08F8A681E
S31500000A90002A7FF451AF4FF0010B584625B0BDEC4C
S31500000AA0028BBDE8F08FD9F8283040469847384683
S31500000AB004F0D2FD584625B0BDEC028BBDE8F08FA0
S31500000AC04FF0640B584625B0BDEC028BBDE8F08FA5
S31500000AD04FF0080B584625B0BDEC028BBDE8F08FF1
S31500000AE04FF0030BD9E74FF0CD0BDAF82030009822
S31500000AF09847D9F8283040469847D8E7AB68D3F8E6
S31500000B0004C0236C1B680EAA07EE903ABDF82E307F
S31500000B1003931646BCE80F000FC6039BADF83C30A6
S31500000B20DCF800303360019AA0F80EB002994260FA
S31500000B30C27861F30512C2700E9BEA689A602A8B2E
S31500000B409A81636D226E03FB0EF3E36502FB03F3EA
S31500000B50E26CB2EB430FC6D3AB689B6817EE900A04
S31500000B601B680EA917EE906A984783460028BCD1E9
S31500000B70AB689B6830469B689847834600283FF4DD
S31500000B8075AFB2E7474344410907000050860000AD
S31500000B9010B40B4B1C68B4EB102F03D803205DF880
S31500000BA0044B704749B15B685DF8044B020A520179
S31500000BB004330020D3580B8070470120EFE700BFB5
S31500000BC0F002FE1FD2B110B40D4B1C68B4EB102F0F
S31500000BD04FEA102C03D803205DF8044B70475B687E
S31500000BE022EA01004FEA4C1C08330A4042EA00425E
S31500000BF04CF8032000205DF8044B70470320704733
S31500000C00F002FE1F12B310B4114B1C68B4EB102F88
S31500000C104FEA102C03D803205DF8044B70475C683C
S31500000C204FEA4C1C02EA010354F80C00034361EA44
S31500000C3002019AB2114054F80C20120C120411430E
S31500000C4044F80C1000205DF8044B704703207047F1
S31500000C50F002FE1F10B40B4B1C68B4EB102F03D828
S31500000C6003205DF8044B704751B15B685DF8044B97
S31500000C70020A520104330020D3581B0C0B80704724
S31500000C800120EEE7F002FE1F10B40D4C2368B3EB13
S31500000C90102F03D803205DF8044B7047002AF9D0C3
S31500000CA063684FEA102C083322EA010003EB4C1369
S31500000CB00A4042EA00425A6000205DF8044B704741
S31500000CC0F002FE1F20B14FF00223036000207047A0
S31500000CD00120704738B50488002C4DD043680021A8
S31500000CE0043303EBC40040F202450C4640F2034CC9
S31500000CF040F2044E0FE0624530D153F8042C02F066
S31500000D00B852B2F1807F14BF41F0020144F00204F0
S31500000D100833834211D01A88AA42ECD153F8042C26
S31500000D2002F0B852B2F1807F03F1080314BF41F01C
S31500000D30010144F001048342EDD1C943CDB2012043
S31500000D4003F074FF0D4B93F8BB2414432C4083F837
S31500000D50BB44BDE83840012003F038BF7245D7D107
S31500000D6053F8042C02F0B852B2F1807F0CBF44F065
S31500000D70040441F00401CBE7FF25E0E700E0014071
S31500000D80012958D870B42E4B1A68B2EB102F4FEACF
S31500000D90102409D99A68C0B252F8245000F11006FE
S31500000DA00122B2402A4202D1032070BC704700EBF8
S31500000DB00410D3E9035454F8203000293DD043F001
S31500000DC00401204E0E40EFF3108C012383F31088AC
S31500000DD01D4B1A8892B212B9EA704022EA701A883C
S31500000DE0013292B21A808CF3108811F4803F54F8C5
S31500000DF0202007D022F4803244F82020134A0A40EB
S31500000E0044F8202044F82060EFF31081012282F399
S31500000E1010881A8892B21AB11A88013A92B21A80C8
S31500000E201B889BB213B98022EB70EA7081F310889D
S31500000E30002070BC70470320704723F00401C0E710
S31500000E40F002FE1FD5FC011F5003FE1FD5FC001F3C
S31500000E5070B582B00446002501A80E468DF80450F0
S31500000E6003F066FC9DF80430DB0713D5202C0ED862
S31500000E70012E0CD8094BDB681A780CBF22EA040451
S31500000E801443284604F030041C7002B070BD0320E1
S31500000E9002B070BD062002B070BD00BFF002FE1F9A
S31500000EA0002861D02DE9F04743680646002B58D04C
S31500000EB0FFF710FF3388002B50D02C4F2C4A4FF0F1
S31500000EC0000C4FF0010E4FF0400A4FF08009716898
S31500000ED0F8681FFA8CF401EBC40351F834509B8870
S31500000EE03C69190ADBB203EB0113EFF310888EF3AA
S31500000EF01088118889B211B9C17080F803A01188D1
S31500000F00013189B2118088F3108815F4803F54F8B6
S31500000F10231007D021F4803144F8231025F48031C2
S31500000F2044F8231044F82350EFF310818EF3108811
S31500000F3013889BB21BB11388013B9BB213801388A5
S31500000F409BB213B9C37080F8039081F3108831887F
S31500000F500CF1010C1FFA8CF39942B8D80020BDE8B9
S31500000F60F0870120BDE8F08701207047F002FE1FE0
S31500000F705003FE1F00282ED070B5436886B0044685
S31500000F80002B2AD01649174DCE680922002301925C
S31500000F90CDE90233CDE9043302A901A8B0470A23FB
S31500000FA08DF80430029B6B60059BAB6002A9BDF80F
S31500000FB00C302B6001A8B047012302A98DF805303B
S31500000FC001A8029B2B61B047029BEB602046FFF70E
S31500000FD067FF06B070BD01207047012006B070BDE6
S31500000FE0B88C0000F002FE1F30B4124C2268B2EB3F
S31500000FF0102F0CD9A268030AC0B252F8235000F190
S31500001000100C012202FA0CFC1CEA050F02D1032087
S3150000101030BC704751B1226900EB031330BC52F863
S315000010202330C3F3400300200B707047104630BCDA
S31500001030704700BFF002FE1F30B4154C2368B3EBB7
S31500001040102F0CD9A368020AC0B253F8225000F13F
S31500001050100C012303FA0CFC1CEA050F02D1032035
S3150000106030BC704789B164685201043403FA00F059
S31500001070145982B200EA1440824214BF00200020B4
S3150000108030BC0CBF0B7008707047184630BC7047F8
S31500001090F002FE1F10B5174A1468B4EB102F0DD9D5
S315000010A0030A9468C0B254F8234000F1100C4FF0C4
S315000010B0010E0EFA0CFC1CEA040F01D1032010BD30
S315000010C07145FBD852680CD0083202EB43130EFA76
S315000010D000F0596841EA0041090C090459600020F2
S315000010E010BD083202EB431381405868014389B2B0
S315000010F0F4E700BFF002FE1F012921D830B4124CDC
S315000011002368B3EB102F4FEA10220BD9A368C0B2A5
S3150000111053F8225000F1100C012303FA0CFC1CEAD0
S31500001120050F02D1032030BC704703FA00F049B125
S3150000113083B26168520108310020535030BC7047B9
S31500001140032070470304F4E7F002FE1F2DE9F04187
S315000011502E4D2B68B3EB102F84B00CD9AB68060A62
S31500001160C7B253F8263007F110024FF0010808FA0B
S3150000117002F21A4203D1032004B0BDE8F08102ABAB
S31500001180ADF80C0068460C4602910193ADF800805C
S31500001190FFF7A0FDD5E9035107EB0613EFF3108621
S315000011A088F310881A48028892B212B9EA7040226F
S315000011B0EA700288013292B2028086F31088E60352
S315000011C051F8232007D522F4803241F8232024F455
S315000011D0803241F8232041F82340EFF310820123A7
S315000011E083F3108803889BB21BB10388013B9BB233
S315000011F0038003889BB213B98021EB70E97082F3F8
S315000012001088002004B0BDE8F08100BFF002FE1F88
S315000012105003FE1F68B183685BB1074AC1689142FB
S3150000122005D1DA6A6FF300020020DA627047072000
S3150000123070470120704700BF5450470068B183686B
S315000012405BB1074AC168914205D1DA6A42F00102F0
S315000012500020DA627047072070470120704700BF00
S315000012605450470020B14FF002230360002070471E
S3150000127001207047002835D030B5836883B0044616
S31500001280002B31D0214AC168914228D1DA6A6FF326
S315000012900002DA6290F91420002A28DADA8E6FF357
S315000012A00822DA869A8E6FF308229A86237CADF896
S315000012B006302B2101A8ADF8041003F039FC94F98F
S315000012C01420002312F1210F637404D01049096819
S315000012D051F8322013600020E06003B030BD0720D3
S315000012E003B030BD01207047012003B030BD510965
S315000012F0084D2031012002F01F0200FA02F245F8E3
S315000013002120BFF34F8FBFF36F8FC7E754504700BD
S31500001310DC87000000E100E050B149B183683BB1D1
S31500001320054AC068904205D19B6C0B60002070474F
S3150000133001207047072070475450470040B3836828
S3150000134033B3144BC2689A4220D110B4EFF3108C19
S31500001350012282F310888368DC6AD96A6FF3000180
S31500001360D962017C8A40996941F000419961DA604D
S315000013709A696FF3DF729A61DA6A64F30002DA62DD
S315000013808CF3108800205DF8044B704707207047E7
S315000013900120704754504700012A70B505461C4687
S315000013A004D0022A32D06AB3032070BDA3FB010128
S315000013B06422002305F03AFC002602460B46012D66
S315000013C00BD0B34208BFA24219D04FF0FF30002B1A
S315000013D008BF82420BD102460DE0601E46F1FF3186
S315000013E0821A61EB03039E4208BF944207D09442DF
S315000013F076EB0303D8D3049B1A60002070BD4FF030
S31500001400FF32F8E713461E460A46D8E7044AA3FB0E
S315000014100101002305F00AFC002602460B46CEE732
S31500001420A086010000283DD02DE9F0410E4682B08D
S31500001430002933D085680446002D2FD01A4BC26888
S315000014409A4203D0072002B0BDE8F0816B6E0133EB
S315000014508B6083684FF00008CDF80480DF6A134B79
S3150000146001A99B6903209847C7F30267019B7F0088
S31500001470FB4073602B6BC3F300033370EB6A03F01E
S31500001480010383F001033373237C03EB83035B00C7
S315000014904046B633F38102B0BDE8F081012002B0C8
S315000014A0BDE8F0810120704754504700988600003F
S315000014B031B982B9036B022262F3114303637047A9
S315000014C04B1C10D0AAB1012A03D1036B6FF3196329
S315000014D0036381657047012AFCD1036B022262F324
S315000014E019630363704752B9036B43F440330363D4
S315000014F07047036B62F31143036341657047012A2A
S31500001500E8D1036B43F040730363704738B58468D2
S31500001510002937D1E58E62F30415E586E58E62F380
S315000015208715E586E58E012B45F00C05E58604F169
S31500001530360553D043B92A8863F301022A802B88E3
S3150000154043F480732B8038BD837D002B62D02B88BB
S31500001550022262F301032B802B88012262F38303AC
S315000015602B80236C0122002962D162F3114323648C
S315000015700A4680680499FFF79BFF2B8843F4807323
S315000015802B8038BDA58E62F30415A586A58E62F361
S315000015908715A586A58E012B45F00C05A58604F1B9
S315000015A03405C7D100212165216C63F39341216481
S315000015B0437D012B40D04FF0FF33A3652B88DAB96A
S315000015C0022262F301032B802B88012262F383033C
S315000015D02B802B8843F480732B8038BDE164216C0B
S315000015E063F311412164437D012B29D04FF0FF3372
S315000015F063652B88002AE3D0012262F301032B8066
S315000016002B88022262F383032B802B8843F480739A
S315000016102B8038BD2B88012262F301032B802B8897
S31500001620022262F383032B80236C012200299CD0C3
S3150000163062F3934323649BE74FF6FF73A365BDE70D
S315000016404FF6FF736365B9E770B584B0B8B11E464F
S31500001650836804469BB1012E19D81348E568854274
S3150000166011D15B6E03A800900025A07D0395013380
S31500001670FFF792FE054670B1284604B070BD0125FD
S31500001680284604B070BD0725284604B070BD032562
S31500001690284604B070BDA06803993246FFF708FFDC
S315000016A0284604B070BD00BF54504700FFFFFFFF3F
S315000016B02DE9F043984683B03F4B00250E46814600
S315000016C00C469B690195174601A903209847062FEA
S315000016D02AD8DFE807F00E0449535E622D0001990F
S315000016E033A3D3E90023A6FB010105F09FFA0446C4
S315000016F00D4699F81530012B32D04FF0FF310023FB
S31500001700A14273EB05024FF0000221D2A40844EA7D
S315000017108574A1424FEA950502F1010273EB0500BB
S31500001720D2B215D2052AF1D1032003B0BDE8F08369
S3150000173000234FF47A72019806FB02F2194605F06F
S3150000174075FA04460D4699F81530012B08D000228B
S315000017500A9B00201A70C8F8004003B0BDE8F08369
S315000017604FF6FF710023CBE70199144AA6FB01014E
S31500001770002305F05BFA04460D46BAE701994FF4DB
S315000017807A72A6FB0101002305F050FA04460D46C5
S31500001790AFE7019CA6FB0445ABE700230198324660
S315000017A0194605F043FA04460D46CCE7AFF3008030
S315000017B000CA9A3B000000009886000040420F00D5
S315000017C0002830D030B5856885B00446002D2CD071
S315000017D000292DD0184BC5689D4202D0072005B0C0
S315000017E030BD002303938DF80B300DF10B030093EE
S315000017F003ABFFF75DFF0028F1D1A368D96ADA6A67
S3150000180060F30002DA62DA6A9DF80B4064F31A624A
S31500001810DA62039A013A5A669864DA6A61F3000258
S31500001820DA6205B030BD01207047012005B030BD39
S31500001830032005B030BD00BF545047002DE9F043EA
S315000018408BB0002900F00B810546002800F00781C7
S315000018500023CDE90633CDE908338DF80B30039329
S315000018609C4F4B7CADF812302B23ADF810300E4652
S31500001870FB6806A904A898470446002840F0EB80B8
S31500001880069A3B690590AA60062105AA04A8BDF838
S315000018901E809847BDF81E3083F00403C3F380030F
S315000018A06B759DF814302B750DF10B030093327A8E
S315000018B0716803AB2846FFF7FBFE0446002840F09C
S315000018C0CA807369002B00F0CF8095F9142021326D
S315000018D000F0FD802B60B3696B60737C2B743378EA
S315000018E0012B18BF00236B74F3691978A9749978D2
S315000018F0E9741879A87533780022022B069200F055
S31500001900B88004A803F0E6F80446002840F0BD803D
S31500001910AF6804A803F038F8FB6A4FF4254164F376
S3150000192000034FEAD808FB6228F0010239604FF045
S31500001930FF3301213C617C617C61FC613C627C621D
S31500001940BC62FC6239637C63BC63FC633C64BC645C
S31500001950FB643B657B65BB657B66BB66C7F88840F9
S31500001960C7F88C308AB17C64FB663B67FB677B6794
S31500001970C7F88030BB67C7F88430C7F89030C7F81F
S315000019809430C7F89830C7F8A040AF689DF80B10A0
S31500001990FA6ADDF81880039B6FF31242FA623A6B1B
S315000019A042F002023A633A6B42F001023A633A6B42
S315000019B06FF341023A63FA6A013B61F31A6200214E
S315000019C0FA627B66B964D6F81C90B9F1000F07D0AD
S315000019D099F80030002B67D199F80230002B6CD1B2
S315000019E07369002B56D03C4B95F914101A68B37CDA
S315000019F000294FEA0313DBB250DB01F1604000F52A
S31500001A00614080F8003352F831301D6095F91400BA
S31500001A1003F034F895F91430002B14DB59092F48DC
S31500001A2003F01F036031012202FA03F340F821306C
S31500001A3095F91430002B06DB590903F01F0302FA4F
S31500001A4003F340F82130F37C1BB1FB6A43F001033A
S31500001A50FB62234BEB6020460BB0BDE8F08301240C
S31500001A6020460BB0BDE8F0833278012A7FF435AF0B
S31500001A702BE706AB0093327C039BF168FFF78CFCE7
S31500001A80044600283FF43DAFE5E7082420460BB0A6
S31500001A90BDE8F0833378012BD5D1A4E7114801F0D6
S31500001AA00F0C60440376AEE799F80120CDF800806C
S31500001AB033782846FFF72AFD8EE799F80320CDF8FC
S31500001AC00080337801212846FFF720FD88E70B24A4
S31500001AD0C1E700BFB88C0000DC87000000E100E031
S31500001AE054504700FCEC00E0034B04301B6823F81D
S31500001AF020100020704700BF5403FE1F034B1A68D6
S31500001B00031D002022F82300704700BF5403FE1F68
S31500001B10034B1A68137843F0800300201370704754
S31500001B205403FE1F034B1A6813786FF3C713002084
S31500001B30137070475403FE1F20B14FF00223036059
S31500001B40002070470120704770B586B0002833D05A
S31500001B501B4A00230B21CDE90113CDE90333D268DB
S31500001B600593044602A901A89047054610B12846E8
S31500001B7006B070BD134E029B336001A802F004FF4D
S31500001B80636873B130682B46A26812F8231002EB23
S31500001B9083020431528820F82120626801339A4278
S31500001BA0F2D82378002BE2D032681378284643F027
S31500001BB08003137006B070BD0125284606B070BDBF
S31500001BC0B88C00005403FE1F60B1012808D1094BF0
S31500001BD01B68002040214122187119711A71704743
S31500001BE001207047034B1B68402141229870997071
S31500001BF09A7070475403FE1F0620704706207047F0
S31500001C0090B10A4B02689A420CD190F90630084A04
S31500001C10C033126852F823106FF3186142F823108C
S31500001C200020704707207047012070470043544446
S31500001C306003FE1F20B14FF00223036000207047AF
S31500001C4001207047002830D0234B02689A422ED1DB
S31500001C5059B310B4214B1B68DB8900228A7113F437
S31500001C60004F9AB290F906302AD11D4C54F8232021
S31500001C70D37803F0C003802B2AD0D3899BB28B8004
S31500001C80D27802F0C002402A04BFDBB28B8090F902
S31500001C90063054F82330D87810F0C00009D14FF43C
S31500001CA080335DF8044B0B607047012070470720B6
S31500001CB070474FF4807300205DF8044B0B6070474B
S31500001CC052B29342D1D101238B7190F90630CCE701
S31500001CD093898B80DBE700BF004354445C03FE1FFF
S31500001CE00000FE1F10B3124A01689142034619D143
S31500001CF090F9062012F1210F16D010B40D490E4CA2
S31500001D000968C03251F822006FF3186041F82200CA
S31500001D1093F90610002244F821201A6010465DF857
S31500001D20044B7047072070470B207047012070470F
S31500001D30004354446003FE1F0000FE1F50B31F4BB8
S31500001D4002689A4228D190F9063013F1210F2ED05D
S31500001D501B4A52F823209168E1B15168D1B1D1787C
S31500001D6001F03001102919D0202910D0154AC033AE
S31500001D70126852F823106FF3104142F8231052F8FC
S31500001D80231041F0807142F82310002070479168BB
S31500001D9089070ED00120704707207047906810F021
S31500001DA00100F8D1506810F00100DFD070470B2019
S31500001DB0704752689207EDD1D8E700BF00435444FC
S31500001DC00000FE1F6003FE1FF0B583B00191009274
S31500001DD000284AD090F90620294D55F82240E1788E
S31500001DE011F0C00136D1274904688C4240D12649FA
S31500001DF0264C09682468C03251F822606FF31866D1
S31500001E0041F8226022786FF304122270019A2AB1F7
S31500001E1090F90620019955F822205160009A2AB1BE
S31500001E2090F90620009955F82220916090F9062035
S31500001E3055F82210CA7802F0C002802A1ED002B9D4
S31500001E40CB81FFF77BFF237843F01003237090B913
S31500001E5003B0F0BD7BB10B4E0768B74208D18029AD
S31500001E60C5D1E18989B20029C1D1012003B0F0BDF5
S31500001E70072003B0F0BD132003B0F0BD8B81E0E76F
S31500001E800000FE1F004354446003FE1F5C03FE1F58
S31500001E90F0B583B001919DF820C0BDF82460009292
S31500001EA0002853D090F906202C4C54F82210C978FB
S31500001EB001F0C00180294CD1002E47D0002B45D01F
S31500001EC0274905688D4247D12649274D09682D685F
S31500001ED0C03251F822706FF3186741F822702A78E1
S31500001EE06FF304122A70019A2AB190F9062001991B
S31500001EF054F822205160009A2AB190F906200099E0
S31500001F0054F82220916090F9062054F822209681F8
S31500001F1090F9062054F82220D38190F9063054F81F
S31500001F202330DA786CF30512DA7090F9063054F83B
S31500001F3023309A7BDA73FFF701FF2B78002843F0F2
S31500001F40100318BF13202B7003B0F0BD012003B09F
S31500001F50F0BD062003B0F0BD0720F8E70000FE1F25
S31500001F60004354446003FE1F5C03FE1F00287CD020
S31500001F702DE9F0470D4686B0002954D00B68002B9A
S31500001F8051D0DA7812F0C00F064647D1504B32686E
S31500001F909A424CD04F4F3B78002B4CD04E4B1C688E
S31500001FA0B5F804E0002302E00133702B5FD003F1A3
S31500001FB0C00C59B254F82C20C2F308029645F3D14E
S31500001FC054F82C20454CC2F30802B28054F8232062
S31500001FD06ABB2A68D07810F0C00F1CBF907BD07304
S31500001FE0907810F0C00002F11002F3D13C4ADFF8FD
S31500001FF0E0C017683A7860F304123A702A6844F829
S315000020002320B171C6F800C0A879002836D13B78E4
S3150000201043F010033B7006B0BDE8F087DB899BB246
S31500002020B3F5807FB2D9012006B0BDE8F08708205D
S3150000203006B0BDE8F0870822CDE90123CDE90333D8
S315000020400593284B0DEB0201DC6801A8A047002888
S31500002050EAD1DFF88C90029BC9F8003001A802F0A3
S3150000206039FD8046A8B10A20DEE701207047D4F882
S315000020707C32C3F308030B20B380D5E73046FFF765
S315000020805DFE3B78002843F010033B7018BF132019
S31500002090CAE7DFF848A001A802F076FC41464FF4F3
S315000020A0E072504604F058FFD9F80030C3F804A097
S315000020B01A7B42F001021A7306238DF8043002A936
S315000020C001A8A047044B029C1C6001233B7067E7F4
S315000020D0004354445803FE1F6003FE1F0000FE1F0A
S315000020E05C03FE1FB88C0000062070470620704770
S315000020F00620704720B14FF002230360002070478E
S315000021000120704732490B6893F8282002F030030B
S31500002110102B0CD0202B02D000238B61704790F837
S315000021202B302C4A9B0932F813305BB97047038D6C
S3150000213010B403F00303284C34F8133003BB5DF8E6
S31500002140044B704707EE903AB8EE677AD1ED047A01
S3150000215090F82B30F8EE676A03F01F03C6EE877A15
S3150000216007EE103AB8EE477AF7EE006A37EE267AAF
S3150000217067EE877AFCEEE77A17EE903A8B61704746
S31500002180520622D5028D12F0100F0CBF0322002238
S3150000219001EB820207EE903AD2ED016A038DF8EE6A
S315000021A0677AF8EE666AC3F3052386EEA77A0133EB
S315000021B007EE903AFAEEEF7A67EE277AFCEEE77AC8
S315000021C0C1ED067A5DF8044B70470322E0E700BFD5
S315000021D00403FE1F0C8700001C87000051B306286D
S315000021E010B429D005280AD004282DD0D8B101284A
S315000021F042D0022838D003282ED0032010E0224CEB
S315000022000023E0690B60026AC2F3027290F826307E
S3150000221003F0070304EB830300205B68D3400B60E5
S315000022205DF8044B7047184C0860E069026AC2F317
S315000022300232EBE701207047134C0023E0690B6084
S31500002240026AC2F30262E1E70F4C0023E0690B6009
S31500002250026AC2F30242D9E70B4C0023E0690B6025
S31500002260026A02F00702D1E7074C0023E0690B601F
S31500002270026AC2F30212C9E7034C0023E0690B604D
S31500002280026AC2F30222C1E70403FE1F38B5084BF7
S31500002290DD690446002002F0C9FC95F8303064F38D
S315000022A00003002085F8303002F090FC002038BD95
S315000022B00403FE1F10B5084BDC69002002F0B6FCD3
S315000022C094F8523043F00103002084F8523002F0B3
S315000022D07DFC002010BD00BF0403FE1F10B5084B97
S315000022E0DC69002002F0A2FC94F852306FF3000380
S315000022F0002084F8523002F069FC002010BD00BFB7
S315000023000403FE1F10B5084BDC69002002F08EFCAA
S3150000231094F83E3043F08003002084F83E3002F00B
S3150000232055FC002010BD00BF0403FE1F10B5084B6E
S31500002330DC69002002F07AFC94F83E306FF3C71394
S31500002340002084F83E3002F041FC002010BD00BFA2
S315000023500403FE1F10B5084BDC69002002F066FC82
S3150000236094F8533043F00103002084F8533002F010
S315000023702DFC002010BD00BF0403FE1F10B5084B46
S31500002380DC69002002F052FC94F853306FF300032E
S31500002390002084F8533002F019FC002010BD00BF65
S315000023A00403FE1F38B5084BDD690446002002F021
S315000023B03DFC95F8243064F30613002085F824309C
S315000023C002F004FC002038BD0403FE1F30B583B0C4
S315000023D002F0F2F84FF0E02301901D69186910F041
S315000023E0020028D0DDED017A164CF8EE677AF7EE9A
S315000023F0006A86EEA77A0020186194F82320D1B2ED
S31500002400DFED117ADFED116A27EE277AC6EE877ABD
S31500002410FCEEE77A17EE902A013AB2F1807F0CD2F1
S315000024205A61F02284F8232001F0F0010722986116
S315000024301A6184F8231003B030BD12201D6103B069
S3150000244030BD00BF00ED00E00024744900401C468A
S3150000245008B1FFF7BBBF0320704700BF052827D090
S3150000246070B5144B0428DD6904460E4606D195F86E
S315000024708034DB0702D54FF4C87070BD002002F02F
S31500002480D5FB95F83E306FF3C71385F83E3095F8C7
S315000024903E3066F3061385F83E3095F83E3064F319
S315000024A00203002085F83E3002F090FB002070BD4C
S315000024B0032070470403FE1F38B5002402F007020C
S315000024C061F30E349DF810C09DF8141062F30A24CF
S315000024D063F306140E4B6CF302041B6861F312449B
S315000024E09DF8181093F82A3061F31E749DF81C109D
S315000024F0054661F31A645B0748BF62F31244002085
S3150000250002F094FB2C62BDE83840002002F05EBB6E
S315000025100403FE1F10B5174BDC6994F84120D00761
S3150000252006D494F84130DB074FF0000010D410BDFC
S315000025301A6894F8263092F82820510603F007030B
S3150000254013D4052B01D0032BEBD140F2971010BD0D
S3150000255002F06CFB94F841306FF30003002084F81E
S31500002560413002F033FB002010BD228DD206EAD4A2
S31500002570E7E700BF0403FE1F0620704706207047EA
S315000025800620704706207047024630B329B3144B25
S31500002590DB6993F826C0CCF3020C82F800C01A6AF5
S315000025A0C2F302320A701A6AC2F302224A701A6A27
S315000025B0C2F302128A701A6AC2F30202CA701A6A57
S315000025C0C2F302420A711A6AC2F302724A711B6AA4
S315000025D0C3F3026300208B7170470120704700BF70
S315000025E00403FE1F2DE9F84300295AD0002874D0B1
S315000025F03D4DEB6993F8AA4014F001046DD193F8B0
S31500002600A020196A1C6A1F6A2E68C7F3021C1F6A7B
S3150000261007F0070E1F6AD3F820901B6AC3F30268FF
S31500002620B36802F00302C1F30231C4F30224C7F314
S315000026300247C9F3027953B3032A28D133698B427F
S315000026402DD8A3422BD8634529D8734527D84B45A7
S3150000265025D8BB4223D8434521D80146012002F0A4
S315000026607DF8EC69002002F0E1FA94F8403043F07E
S31500002670800384F8403094F8403043F00103002092
S3150000268084F8403002F0A2FA0020BDE8F883F3682F
S31500002690002BE2D0022AE0D173698B42D1D9052002
S315000026A0F3E7114BDD6995F84130DB0718D408468E
S315000026B00C4602F0BBFA95F8403064F3000385F847
S315000026C0403095F8403064F3C713204685F8403013
S315000026D002F07CFA2046BDE8F8830120BDE8F883C5
S315000026E04FF4CB70BDE8F8830403FE1F70B5434D6D
S315000026F088B0284602F024F8414A00230321CDE998
S315000027000433CDE906330191D26804A901A89047A4
S31500002710049CEC614FF6FF73029394F83630DE07A3
S3150000272054D5002002F082FA94F8A530062262F30E
S31500002730020384F8A530002002F048FA2B68EC6901
S31500002740D3E906232B612F4BAB6000204FF40043E7
S315000027504FF6FF766A60A861EB606B61029602F045
S3150000276065FA94F8803443F0010384F8803400203D
S3150000277002F02CFAEC69039694F88034D80714D545
S31500002780039BFBB12B68226A93F8225094F82630FB
S31500002790002002F04BFA94F88034DB0727D400209F
S315000027A002F014FA002008B070BD039B002BE7D09E
S315000027B0039B013B039394F88034DA07F5D5039B1A
S315000027C0002BDFD14FF4CD7008B070BD94F83C30CB
S315000027D0D90708D4029B33B1029B013B029394F8BC
S315000027E03C30D907F6D5029B002B9AD1EAE794F83C
S315000027F0813423EA050384F88134D0E70403FE1FFD
S31500002800B88C000000127A0005292ED8DFE801F006
S315000028100A11181F260390F82A0000F0010080F024
S315000028200100704790F8360000F0010080F00100CA
S31500002830704790F8380000F0010080F00100704702
S3150000284090F8900400F0010080F00100704790F8C5
S31500002850320000F0010080F00100704790F880041B
S3150000286000F0010080F0010070470020704700BFB3
S31500002870052867D870B5554D0446E86990F82630A6
S3150000288003F007039C4282B020D0052B11D090F8AC
S315000028902A30DB070DD5012C1CD190F84030DB091E
S315000028A078D12146FFF7B0FF002866D1002002B09C
S315000028B070BD2B6893F828305E0669D5038D13F03A
S315000028C0100F0CBF032300239C42E4D140F2911069
S315000028D002B070BD2146FFF797FF0028E6D0032C13
S315000028E0EE693CD0052C07D196F83C309B0654D4B3
S315000028F040F2931002B070BD34BB96F83C30D90755
S31500002900F6D5204602F092F996F8363043F00103E8
S3150000291086F83630002002F059F94FF6FF7301931E
S3150000292004E0019B43B1019B013B0193E869214609
S31500002930FFF76AFF0028F4D1019B002BB6D14FF4B4
S31500002940CD70B4E703207047002002F06FF9631ED4
S31500002950042BDFD8DFE803F015320A2B240096F8A3
S315000029603C301A07C4D5002002F060F996F83230E0
S3150000297043F0010386F83230CCE70020EE6902F01E
S3150000298055F996F8383043F0010386F83830C1E738
S31500002990032399E740F2951089E7002002F046F9F3
S315000029A096F82A3043F0010386F82A30B2E796F803
S315000029B0803443F0010386F88034ABE796F8903410
S315000029C043F0010386F89034A4E700BF0403FE1F1A
S315000029D005281DD808B5431E012B014608D9042831
S315000029E006D068B1032815D005281FD0002008BDE1
S315000029F0194BD869FFF708FF38B140F2911008BDAE
S31500002A00154AD069FFF700FFF0B94FF4C87008BD4A
S31500002A1003207047104AD069FFF7F6FE0028F4D06D
S31500002A20D36993F83C301B070BD512E00A4AD069EC
S31500002A30FFF7EAFE0028E8D0D36993F83C30990600
S31500002A4007D440F2931008BDD36993F83C30DA07F7
S31500002A50F7D54FF4C97008BD0403FE1F30B583B027
S31500002A604FF6FF730446012001930D4602F0DEF88F
S31500002A7000230DF103008DF8033001F017FD94F8E3
S31500002A80AA30D80605D494F8A030D906C3F30012AC
S31500002A900AD5019B013B0193019B002BEFD101203D
S31500002AA002F094F803B030BD94F8AA304FF6FF71E7
S31500002AB062F3000384F8AA30019102E0019B013B16
S31500002AC0019394F8AA30DA0603D494F8A030DB0612
S31500002AD002D5019B002BF1D194F8A030042D0CBF38
S31500002AE043F0030365F3010384F8A0304FF6FF7348
S31500002AF0019302E0019B013B019394F8AA30D806AA
S31500002B0003D494F8A030D90602D5019B002BF1D14D
S31500002B1094F8AA30042D0CBF43F001036FF30003B1
S31500002B2084F8AA304FF6FF73019302E0019B013B44
S31500002B30019394F8AA30DA0603D494F8A030DB06A1
S31500002B4002D5019B002BF1D19DF8030001F0C2FCD8
S31500002B50012002F03BF803B030BD00BF0428124B41
S31500002B600ED002280CD01A6892688A4207D3D86918
S31500002B7090F82A30DB0702D50321FFF76FBF7047B5
S31500002B80D86990F82A20D207EDD590F83220D207DE
S31500002B90E9D590F83620D207E5D590F83820D20747
S31500002BA0E1D50421FFF75ABF0403FE1F2DE9F041CA
S31500002BB0052888B02BD80C46002900F0AE800B788B
S31500002BC08A79934223D34978994220D3E17899426E
S31500002BD01DD8637993421AD32179914217D30428D9
S31500002BE0074619D0674EF06990F8263003F00703C0
S31500002BF09F4228D0002F00F0BC80032F40F0AE800B
S31500002C0090F83C301A071ED440F2931500E00325D5
S31500002C10284608B0BDE8F081134340F0A880594E1D
S31500002C20F06990F84030DB0940F0A18090F826303A
S31500002C3003F00703042B06D03946FFF7E5FD00280D
S31500002C4000F09D80F069036A036A036A036A036AF7
S31500002C50036A036A0021C3F30268FFF7FFFE00233D
S31500002C608DF810308DF81C3006EB8703A2795B686F
S31500002C70D3400593F3691A6A93F8263003F00703E5
S31500002C8006EB8303C2F302625B6804A8D340069393
S31500002C9001F0A2FC05460028BAD1A379984541D295
S31500002CA003936379029323790193E3780093A378DE
S31500002CB062782178F069FFF7FFFBF469284601F096
S31500002CC0B5FF94F8263067F30203284684F82630C9
S31500002CD001F07CFFF3691A6A93F8263003F00703C4
S31500002CE006EB8306C2F3026273680121D34004A88F
S31500002CF08DF81010069301F06FFC0546002887D169
S31500002D0001F05AFC204B01461860002837D038469F
S31500002D10FFF724FFFFF75AFB7AE70125284608B09C
S31500002D20BDE8F081D6F81C8001F080FF98F82630C7
S31500002D3067F30203284688F8263001F047FFA37997
S31500002D4003936379029323790193E3780093A3783D
S31500002D5062782178F069FFF7AFFBBBE7052F7FF4B8
S31500002D606BAF90F83C309B063FF56DAF4CE7052501
S31500002D704EE790F83C30D9073FF565AF44E74FF48E
S31500002D80C87545E70403FE1FB803FE1F2DE9F0438F
S31500002D902DED028B042883B0044668D0012800F08C
S31500002DA0498120BBB74DEE6996F83C30DB0700F150
S31500002DB0538196F8AA30DF0700F1558196F8A030C6
S31500002DC0002001F033FF96F836306FF3000386F8E3
S31500002DD03630002001F0FAFE4FF6FF73EA690193E0
S31500002DE0052C1BD8DFE804F0343E392F20160328C3
S31500002DF000F0CE8005285BD0A24D0020EE6901F0E0
S31500002E0015FFA31E032BE4D8DFE813F00D0106011E
S31500002E104400BB0092F82A30DB0709D5019B3BB181
S31500002E20019B013B0193DBE792F88034D907F5D487
S31500002E30019B002B14BF00204FF4CD7003B0BDECF6
S31500002E40028BBDE8F08392F83230DD07E6D4EFE777
S31500002E5092F83630DB07E1D4EAE792F89034DE07E1
S31500002E60DCD4E5E792F83830DF07D7D4E0E7854DC4
S31500002E702B68EE6993F82270002001F0D7FE96F8D1
S31500002E808034D9070DD4002001F0A0FE0020EE69A1
S31500002E9001F0CCFE96F880346FF3000386F8803498
S31500002EA097E796F8813423EA070386F88134EAE740
S31500002EB00E46002900F0EE80724D72782B6893F86A
S31500002EC024109142C0F0DB8093F8262096ED017A1B
S31500002ED007EE902AF8EE677AF4EEC77AF1EE10FA6A
S31500002EE000F1CD8093F8253007EE903AF8EE677A38
S31500002EF0B4EEE77AF1EE10FA00F1C18031780329D9
S31500002F0002D0002940F0BB80E869FFF77DFC00286D
S31500002F1000F0C280EF6997F83C30990600F19C807A
S31500002F2097F8AA30DA0700F1BA8097F8A03096F839
S31500002F300080002001F07AFE3B8DB8F1030F0CBF34
S31500002F406FF3041343F010033B85002001F03EFEAF
S31500002F502B68EF6993F8283096F8018003F0300368
S31500002F60102B00F0D080202B00F09F803846FFF712
S31500002F70C9F8E8690021FFF771FD0020EE6901F04C
S31500002F8055FE96F82A306FF3000386F82A3020E7BC
S31500002F903C4DEF6997F83C301E075DD497F8AA3090
S31500002FA0D80771D497F8A0302B68002093F82760D3
S31500002FB093F8208093F8219001F038FE97F81334A7
S31500002FC006FA09F25BB25A4002EA08025340DBB243
S31500002FD087F81334002001F0F9FDEE69002001F0B6
S31500002FE025FE96F813346FF3861386F81334002003
S31500002FF001F0ECFDEE69002001F018FE96F8A23013
S31500003000052262F3030386F8A230002001F0DEFDFC
S315000030100020EE6901F00AFE96F832306FF30003E5
S3150000302086F83230D5E696F890346FF3000386F8CA
S315000030309034CEE6134DEE6996F8AA30DA0718D426
S3150000304096F8A030002001F0F1FD96F838306FF3C5
S31500003050000386F83830BCE640F2931003B0BDECAE
S31500003060028BBDE8F08330460321FFF7F7FCEE69DB
S31500003070A6E630460321FFF7F1FCEE69E2E70320FE
S31500003080DCE600BF0403FE1F38462146FFF7E6FCD8
S31500003090EF6989E70120D1E64FF4CA70CEE63846DB
S315000030A00321FFF7DBFCEF6941E72F4B002033F8E4
S315000030B0188001F0BBFD97F82B3068F3871387F86B
S315000030C02B30002001F082FD2B68EF6993F8283041
S315000030D096ED018A03F03003102B2ED0202B10D151
S315000030E0002001F0A3FDFCEEC87A97F82B2017EE1E
S315000030F0903A013B63F3040287F82B20002001F08D
S3150000310065FDEF6932E7194B002033F8189001F09E
S315000031108DFD3B8D69F301033B85002001F056FDD3
S315000031202B6893F8283003F03003202BBDD0102BEA
S31500003130EF697FF41BAF96ED018A002001F076FD62
S3150000314078EE087A3A8DFCEEE77A002017EE903A90
S31500003150013B63F30D223A8501F038FD2B6893F8A5
S31500003160283003F03003B9E7048700001487000015
S3150000317005280AD808B5194A431ED269042B27D850
S31500003180DFE803F00D21171C05000320704792F8B5
S315000031902A30DB0707D5BDE80840FFF7F7BD92F8F0
S315000031A03830DB07F7D41046FEF7ACFF40F291103B
S315000031B008BD92F83230DB07EDD4F4E792F880349C
S315000031C0DB07E8D4EFE792F89034DB07E3D4EAE7CD
S315000031D092F83630DB07DED4E5E700BF0403FE1FB6
S315000031E02DE9F04383B0012801910C461CD002283A
S315000031F003D0002003B0BDE8F0830529164619D098
S31500003200DFF8A080D8F81C002146FFF7FDFA002859
S315000032103DD1311D2046FFF7B9FD0028E9D040F227
S3150000322091139842E5D0E5E7084603B0BDE8F043C0
S31500003230FFF71EBB1279052A27D8DFF868801146EA
S31500003240D8F81C00FFF7E0FA30BB31461046FFF70E
S315000032509DFDA8B996F804904FF6FE7540F29317B7
S3150000326001E0013DC6D04846FFF7B2FBB842F8D0B0
S315000032700028C7D06FF4C873C318012BC2D9B9E7A9
S3150000328040F291139842E5D0B4E70320B2E7D8F8AC
S315000032901C00FEF737FFACE7D8F81C00FEF732FF3C
S315000032A0D8E700BF0403FE1F2DE9F04782B00028CF
S315000032B054D0DFF85C810678D8F81C3090F815A059
S315000032C093F826701A6A1A6A1A6A1A6A1A6A1A6ABF
S315000032D01B6AC37C8DF80230037D8DF80130C37DF7
S315000032E08DF803308146837D007E8DF800A0052E83
S315000032F007F007078DF804308DF8050029D806F188
S3150000330008036B4413F8083C012B22D0022809D18C
S3150000331099F80430052B1CD808336B4413F8083C85
S31500003320012B16D04A460521FFF75AFF044600280E
S3150000333049D140F29115E1B24A4650460134FFF7B1
S315000033404FFF08B1A84249D1052C0CD01DF804A0A6
S31500003350F1E70324204602B0BDE8F08701242046A9
S3150000336002B0BDE8F0874FF6FE7540F2931A01E011
S31500003370013DEFD03046FFF72BFB50450446F7D012
S3150000338020B16FF4C8754319012BE3D8042E27D05A
S31500003390002509F10C013046FFF708FC0446002819
S315000033A0D8D1BE4206D007F108036B4413F8083C97
S315000033B0012B0ED0002DCDD001F0FEF8014630468F
S315000033C0FFF7CCFBC6E740F291139842C2D1002426
S315000033D0AFE73846FFF74CFA0028EBD00446B9E7CA
S315000033E0D8F81C3093F82A20D0070ED593F832204F
S315000033F0D1070AD593F83620D20706D593F8385068
S3150000340005F0010585F00105C3E70125C1E700BF09
S315000034100403FE1F20B14FF0022303600020704713
S31500003420012070470620704778B10F4B826A9A4296
S315000034300DD1C3694BB190F82420022A1A8808D00E
S3150000344042F4007200201A8070470120704707205E
S315000034507047C2F3C030120404D41A8842F4004202
S315000034601A807047082070474344415288B10B4B7D
S31500003470826A9A420FD1C3695BB190F82420022A6E
S315000034801A8814BF6FF349226FF3CF3200201A80D7
S315000034907047012070470720704700BF43444152E0
S315000034A060B1084B826A9A420AD1C36933B11B885C
S315000034B013F4004F0CBF002008207047012070470E
S315000034C0072070474344415218B3CB1CDBB21E2B76
S315000034D021D8002910B407DB124B048853F8244086
S315000034E001238B40234212D00F4B846A9C420AD19F
S315000034F0AAB1C3698BB11031002033F811301380A3
S315000035005DF8044B704707205DF8044B70470320B5
S31500003510F6E701207047032070470120F0E70220FC
S31500003520EEE700BF6403FE1F4344415218B311B3D4
S315000035301B4B826A9A421CD191F90020D31CDBB244
S31500003540122B1ED8002A1EDB10B4164B048853F823
S3150000355024400123934023420FD0497806290CD9F1
S31500003560C369DBB11344002083F8E0105DF8044B17
S315000035707047072070470120704703205DF8044B11
S3150000358070470320704749780629FAD9C369002B8A
S31500003590F1D01344002083F8E01070470120E5E7DE
S315000035A0434441526403FE1F00286BD070B50D469C
S315000035B082B0002963D03A4B826A9A42044659D1B6
S315000035C00379012B60D0C669002E58D0C26A002A42
S315000035D053D04FF0FF334FF0010C184601330CFA6D
S315000035E003F11142F9D01C2B57D01D2B50D000F1FE
S315000035F011034FEA430C66442E6020234FF0010E60
S315000036001946013B0EFA03F01042F9D01C2B42D0AA
S315000036101D2B3BD001F10F035B00A3EB0C035B10EA
S3150000362001336B6001232B7200221E4B218800920E
S315000036302022ADF80610ADF804201B696A46022167
S3150000364001A89847B8B9BDF802306B8123880433C6
S315000036505B004FF0FF326B72EA60E37A012B04D114
S3150000366063691B68C3F30B03EB60B4F902302B826A
S3150000367002B070BD072002B070BD4A60D2E70120DB
S3150000368002B070BD012070470320F4E71C23C4E795
S315000036904FF01C0CAFE71A23BFE74FF01A0CAAE74E
S315000036A043444152B88C0000E8B110B584B0002301
S315000036B004466846CDE90033CDE9023301F022F82D
S315000036C09DF80C3099070BD5E3691A8812040CD4BF
S315000036D01B8813F4007F14BF1B20002004B010BD0C
S315000036E0062004B010BD012070471B2004B010BD99
S315000036F0C36991F81EC0B3F8A2216CF30302A3F8C4
S31500003700A221B3F8A22191F81FC06CF30712A3F807
S31500003710A221B3F8A22191F820C06CF30B22A3F8E2
S31500003720A221C369B3F8A02142F00802A3F8A021A0
S31500003730B3F8A02142F08002A3F8A021B3F8A0219B
S3150000374042F40062A3F8A0218A7FFF2AB3F8A021E1
S3150000375000F08C806FF30002A3F8A021B3F8A0213B
S3150000376042F00202A3F8A021B3F8A02142F004021D
S31500003770A3F8A021CA7FFF2AB3F8A02100F08C800D
S315000037806FF30412A3F8A021B3F8A02142F020029F
S31500003790A3F8A021B3F8A02142F04002A3F8A0218B
S315000037A091F82020FF2AB3F8A02100F08C806FF357
S315000037B00822A3F8A021B3F8A02142F40072A3F8CE
S315000037C0A021B3F8A02142F48062A3F8A02191F8C9
S315000037D01EC0C3690CF17F02D2B23A2AB3F8B021F7
S315000037E035D8CCF3011C6CF30102A3F8B021B3F871
S315000037F0B02142F00802A3F8B021C87F00F17F0291
S31500003800D2B23A2AB3F8B0212BD8C0F3011060F334
S315000038100512A3F8B021B3F8B02142F08002A3F854
S31500003820B02191F8201001F17F02D2B23A2AB3F802
S31500003830B02111D8C1F3011161F30922A3F8B02117
S31500003840B3F8B02142F40062A3F8B02170476FF3D9
S31500003850C302A3F8B021D0E76FF3CB22A3F8B021BF
S3150000386070476FF3C712A3F8B021DAE742F00102FE
S31500003870A3F8A021B3F8A0216FF34102A3F8A02179
S31500003880B3F8A0216FF38202A3F8A021CA7FFF2A12
S31500003890B3F8A0217FF474AF42F01002A3F8A02180
S315000038A0B3F8A0216FF34512A3F8A021B3F8A02125
S315000038B06FF38612A3F8A02191F82020FF2AB3F80F
S315000038C0A0217FF474AF42F48072A3F8A021B3F86C
S315000038D0A0216FF34922A3F8A021B3F8A0216FF32A
S315000038E08A22A3F8A02172E730B5B0F880306FF3D2
S315000038F00003A0F880300388C3F34133012B038A09
S3150000390043F47C5383B00C46038203D1038A43F00D
S315000039103F0303820025058045822388ADF80230E7
S3150000392020226846ADF8002001F004F8E36ADB00C7
S3150000393007D5236903B11D70222301A8019300F066
S31500003940F9FF03B030BD00BF00287AD010B53E4B5A
S31500003950826A9A4282B004466ED1C369002B6ED049
S3150000396090F93000002310F1210FA36227D098426E
S315000039701BDB420935490123203200F01F0003FA00
S3150000398000F041F82200BFF34F8FBFF36F8F94F919
S315000039903000002809DB4209603200F01F0003FAFC
S315000039A000F041F8220094F9300001F067F8284B46
S315000039B094F930101B6853F8313000221A6094F9DC
S315000039C0310010F1210F27D000281BDB42091F49C7
S315000039D00123203200F01F0003FA00F041F8220014
S315000039E0BFF34F8FBFF36F8F94F93100002809DBC7
S315000039F04209603200F01F0003FA00F041F822008D
S31500003A0094F9310001F03AF8114B94F931101B6822
S31500003A1053F8313000221A60E0692146FFF764FF4F
S31500003A202288ADF80620202301A8ADF8043001F065
S31500003A307FF8002002B010BD072002B010BD0120A3
S31500003A40F8E70120704700BF4344415200E100E01F
S31500003A50DC8700001AB310B4044640B3CB1CDBB2BB
S31500003A601E2B2AD8002907DB1C4B008853F82000A0
S31500003A7001238B4003402CD0194BA06A984210D1E9
S31500003A80E36943B31031E08833F81130B0F5004FE5
S31500003A909BB218D000205DF8044B136070470220DB
S31500003AA07047002307205DF8044B136070472346D8
S31500003AB001205DF8044B13607047002303205DF876
S31500003AC0044B136070471B0400205DF8044B136021
S31500003AD070470320DFE70120DDE700BF6403FE1F18
S31500003AE0434441522DE9F0418AB0002800F090810C
S31500003AF00C46002900F08C818B88C3F30E0323B19A
S31500003B00032630460AB0BDE8F081054606A8CDE991
S31500003B100633CDE908338E7800F0F4FDA3794BB176
S31500003B209DF82420D70740F1788103F17C02D2B2B8
S31500003B30012AE5D9E27912F0DF0FE1D1227A022AD1
S31500003B40DED8A278022ADBD8E17809B1052BD7D0D6
S31500003B5023690BB1022AD3D0012E00F07181B34A3A
S31500003B60A96A914200F073812B6223882B806369D6
S31500003B70AB61A3782B71A388EB80237A85F8243078
S31500003B806369AB61237F85F83230637F85F8333014
S31500003B90A37F85F83430E37F85F8353094F82030FC
S31500003BA085F836302288A24FADF802200023202265
S31500003BB0CDE90633CDE90833ADF80020FB6806A948
S31500003BC068469847064600289BD1BDF81E20069BEE
S31500003BD0EB61C2F382035B00C2F3401208336A72E0
S31500003BE02B722288934951F8220060B909984688B9
S31500003BF041F8226042682088120C51F820601204B5
S31500003C00324341F820200C2B00F02B810E2B40F084
S31500003C102081E378032B02D0002B7FF471AF684636
S31500003C2000F058FF064600287FF46BAF069006AA00
S31500003C30D7F8108002216846C0479DF9183085F8EC
S31500003C4030302269002A00F0448113F1210F00F080
S31500003C508281794A1168A27A002B4FEA0212D2B207
S31500003C60C0F2858103F1604000F5614080F80023D1
S31500003C7051F833301D6095F9300000281CDB4209ED
S31500003C806E4900F01F0302F12000012202FA03F33D
S31500003C9041F82030BFF34F8FBFF36F8F95F9300097
S31500003CA0002809DB4309603300F01F0002FA00F028
S31500003CB041F8230095F9300000F0E0FE06AA032142
S31500003CC06846C0479DF9183085F83130A278012A38
S31500003CD000F0048113F1210F40F007814FF0000836
S31500003CE0C5E90488A5F80A8002A8CDE90288CDE9CD
S31500003CF0048800F007FD9DF808302222D9060192BB
S31500003D000ED5CDE90688CDE90888FB6806A901A885
S31500003D109847D0B9069B2B610123AB729DF80830FA
S31500003D201A070FD50023FA680127CDE90633CDE936
S31500003D3008338DF8057006A901A8904728B9069B97
S31500003D40EF726B61BDF80A306B802946E869FFF7B0
S31500003D50CBFD2388ADF80A300027202302A8ADF852
S31500003D600830CDE90677CDE9087700F00DFEEB695E
S31500003D701F805F82EB69A1781A8861F34E321A8040
S31500003D80EB691A8867F3C7121A80237A012B00F0B1
S31500003D90E7804BB9E9690A8842F480720A80EA69C9
S31500003DA0118A63F30D211182EB69E178DA8961F3F7
S31500003DB04202DA81A288D989A2F50042B2FA82F2D9
S31500003DC0520962F3CF31D981E279D989A2F1200271
S31500003DD0B2FA82F2520962F34511D981A2791A73B5
S31500003DE006A800F08FFC9DF82430C3F340025B0761
S31500003DF02A733BD41AB1217B002900F0C4806B7A68
S31500003E00012B00F0E280094B0022C5E90A3278E670
S31500003E10012630460AB0BDE8F08118067FF570AE7F
S31500003E20E27912F0DF0F7FF46BAE87E6434441522E
S31500003E30B88C00006403FE1FDC87000000E100E090
S31500003E40218940F2011291427FF45AAE87E6082694
S31500003E5057E6102B7FF4E3AEE378042B3FF4DFAE96
S31500003E604EE6E378022B7FF6DAAE49E6EB6995F883
S31500003E70321093F8E12161F3420283F8E12193F8CD
S31500003E80E12142F0100283F8E1210121962000F0A1
S31500003E90C5FDEA6995F8331092F8E13161F3000344
S31500003EA082F8E131EA6995F8321092F8E1316FF360
S31500003EB0C30382F8E13129B192F8E13143F00803F6
S31500003EC082F8E131012140F2DC5000F0A7FD2A7BA7
S31500003ED090E713F1210F3FF4F1AEBAE62269002A0A
S31500003EE03FF4F8AE13F1210F35D03A4A1168E27A61
S31500003EF0002B4FEA0212D2B23FDB03F1604000F51D
S31500003F00614080F8002351F833301D6095F9310087
S31500003F1000281DDB420902F12001DFF8C0C000F0D5
S31500003F201F03012202FA03F34CF82130BFF34F8F2F
S31500003F30BFF36F8F95F93100002809DB4309603321
S31500003F4000F01F0002FA00F04CF8230095F931004A
S31500003F5000F094FDC2E6684600F0EAFD0B26D0E5C7
S31500003F60EB691A8A092161F30D221A821CE71A48A5
S31500003F7003F00F0C604402767AE6174803F00F0C44
S31500003F8060440276BFE72846FFF78EFB074698B9DE
S31500003F9095F9300000F072FD95F93030002BFFF6F0
S31500003FA02EAF5A090D4803F01F036032012101FAB2
S31500003FB003F340F8223022E7684600F0B9FDE869CD
S31500003FC02946FFF791FC3E469BE521462846FFF72A
S31500003FD08FFB18E7DC870000FCEC00E000E100E066
S31500003FE02DE9F04387B0002800F029810C4600290E
S31500003FF000F025819B4B826A9A42054640F00F816C
S31500004000C769002F00F01B81974B028853F8226086
S315000040100B6846F04056002B00F00B81F14333EA63
S31500004020060640F006813A88C2F34132012A6268E8
S3150000403000F0FA80002A40F0FC80002302A8CDE9B7
S315000040400233CDE9043300F05DFB9DF808209307A9
S3150000405004D4636813F0405F40F0F680236813F0E1
S3150000406040510BD03888000600F1E380520700F17A
S31500004070518197F87A20002A40F0DB803A7B50077E
S3150000408040F0E580E268002A40F0D380227C002AD6
S3150000409040F095819BB2BB80A388BB82A3893B81FC
S315000040A06388FB80E388FB82E3897B81236813F0C6
S315000040B0405F03D1636813F0405F6DD0002302A810
S315000040C0CDE90233CDE90433019300F01BFB674BC6
S315000040D09DF810009B6901A99847019B644A934289
S315000040E040F2B280002840F0AF8002F1864202F52D
S315000040F0492202F64442A2FB0338039B4FEA984842
S3150000410003FB08F85B4BA3FB08384FEA9818A8F1A5
S315000041100703F82B00F298802368D80002D462685F
S31500004120D1001CD55FFA88F387F8DE30AB7A012B15
S3150000413000F03481236813F0805300F0F6807B8A08
S3150000414043F480737B827B8A6FF38A237B82E368E6
S315000041507A8AC3F3007363F300027A8223689A00B3
S3150000416002D463689B0017D55FFA88F887F8DF806A
S31500004170236813F0005300F0C4807B8A43F4007375
S315000041807B827B8A6FF3CB237B82E3687A8AC3F3D5
S31500004190407363F341027A82237C627C1B0203F440
S315000041A0E0631343A7F86630238948F2010293427D
S315000041B064D0A7F880302B79022B29D0D5F81C8043
S315000041C0B8F80090C9F34139B9F1010F00F0B68093
S315000041D095F9300010F1210F1AD000F04FFC95F937
S315000041E03030002B14DB5909234803F01F036031DC
S315000041F0012202FA03F340F8213095F93030002B02
S3150000420006DB590903F01F0302FA03F340F82130D5
S31500004210228948F201039A426ED023680AE00726F3
S31500004220304607B0BDE8F0831AB1194311423FF496
S3150000423004AF03263046EB6207B0BDE8F0830126E3
S31500004240304607B0BDE8F08323680326F2E76268CC
S31500004250E1681A4331EA0202EBD100297FF416AF76
S31500004260E7E700BF434441526403FE1F98860000FF
S315000042703F420F00D34D621000E100E02B79022B84
S315000042803AD0D5F81C80B8F80030C3F34133012B7F
S315000042909ED1B8F8103043F03F03A8F8103095F9D6
S315000042A0310010F1210F20D000281CDB420966499D
S315000042B000F01F0302F12000012202FA03F341F885
S315000042C02030BFF34F8FBFF36F8F95F93100002871
S315000042D009DB4309603300F01F0002FA00F041F8E1
S315000042E0230095F9310000F0C9FBB8F800306FF3F0
S315000042F08613A8F800306BE748F20103A7F8803070
S315000043008BE77A8A63F349227A827B8A43F40063D5
S315000043107B823AE7B1F1405F8BD033F0704288D1AF
S315000043202A79002A3FF4AAAE83E77A8A63F3082241
S315000043307A827B8A43F480637B8208E723899342EF
S31500004340A7D095F9310010F1210F19D000F096FB96
S3150000435095F93130002B13DB5A093B4903F01F0353
S31500004360603209FA03F341F8223095F93130002B17
S3150000437006DB5A0903F01F0309FA03F341F822305A
S31500004380B8F8003043F04003A8F80030B8F8103011
S315000043900A2262F30503A8F8103019E700222B4B16
S315000043A0CDE90222CDE904222222DB68019202A98C
S315000043B001A89847002835D0236806463AE7002327
S315000043C002A8CDE90233CDE9043300F09BF99DF84C
S315000043D00830D9077FF538AF227C072A3FF634AF7D
S315000043E0637C032B7FF630AFB7F800C0D4E9003109
S315000043F0CCF3413CBCF1010F01EA020102EA0300E1
S315000044001DD082427FF415AF3A88120607D40029E0
S315000044103FF440AE2289002A3FF43CAE09E700286B
S31500004420F5D006E701A800F0AFFA2B691A7842F03A
S3150000443080021A701A7842F010021A707AE68242E6
S31500004440E2D08A42E0D0F4E600E100E0B88C000059
S3150000445010B584B0EFF3058001F0D0FAEFF30382D4
S3150000446011490192A2F1100309685BB251F8333089
S315000044701C68EFF30383A3F1100040B2019300F030
S31500004480FDFA5CB100238DF806302388ADF80430C0
S31500004490A3690293236A0BB101A89847EFF305803D
S315000044A001F0AAFA04B010BDDC870000034668B12B
S315000044B0074AB2F80011C1F30001197092F80031F1
S315000044C06FF30003002082F8003170470120704727
S315000044D000C00140104991F8043143F0010381F80E
S315000044E00431B1F804318446D8070AD54FF0FF33BA
S315000044F000E07BB1B1F80421D20703F1FF33F8D411
S3150000450043B1054A92F800316CF30003002082F8AB
S31500004510003170471420704700C0014070B5244D2B
S3150000452082B02B6898470120FFF7D4FFAE680021C0
S315000045300320B0471F4AEC69019240F20313ADF81D
S3150000454000300320A047B0F5C97FFAD1694605209F
S31500004550B04728B140F29113984201D000BEEC69F1
S315000045600520A047B0F5C97FFAD101230222002118
S315000045708DF806102C698DF800308DF801208DF825
S3150000458002208DF803308DF805208DF80430694639
S315000045900520A04700B100BE2B6E04209847AB6AE9
S315000045A001209847EB6A9847AB6D984702B070BDFB
S315000045B0988600000000A04100B5064B83B000229B
S315000045C09B69019201A906209847019803B05DF8FE
S315000045D004FB00BF9886000010B403782BB1012BB2
S315000045E03BD000205DF8044B704742683F498A4241
S315000045F04CD93F4B3F4C4FF0F10C83F804C0197A6D
S3150000460041F004011972197A41F008011972197AF8
S3150000461041F001011972197A41F002011972A242A0
S315000046204FF0F00119715BD983F804C01A7A42F091
S3150000463010021A721971022303732F4991F81C2173
S3150000464002F007029A423EBF91F81C2163F3020270
S3150000465081F81C210378012BC3D18368234A934236
S315000046601FD9244A934231D9234A017B92F81C313F
S3150000467003F007039942B4D092F81C3161F30203A8
S3150000468082F81C3100205DF8044B70471B498A42B2
S3150000469029D8194A037392F81C315DF8044B00209F
S315000046A07047134BF1221A711A7A6FF382021A724B
S315000046B01A7A6FF3C3021A721A7A6FF300021A7229
S315000046C01A7AF0216FF341021A721971084BF1221E
S315000046D01A711A7AF0216FF304121A721971C3E76C
S315000046E0074B9A42A7D801230373A6E7000E2707B4
S315000046F00020004000C2EB0B00C0014000B4C4041F
S31500004700006889090278037B22F01F0242F0130237
S3150000471023F0070341F2040C41F2360143F0010392
S3150000472002700222C0E90112A0F802C003737047AA
S31500004730037823F0030343F003030370704700BFBD
S31500004740014B0360704700BF5887000002483022C3
S31500004750002102F001BC00BF6C03FE1F024B43F8B0
S3150000476020100020704700BF6C03FE1F08B56F4B7A
S31500004770B3F84031D80700F1CB806C4BB3F8403129
S31500004780990700F1B880694BB3F840315A0700F138
S31500004790A580664BB3F840311B0700F19280634B4E
S315000047A0B3F84031D8067FD4604BB3F84031590690
S315000047B0C3F380106CD45D4BB3F840311A065AD45B
S315000047C05A4BB3F84031DB0548D4584BB3F8403167
S315000047D0980536D4554BB3F84031590524D4534B7C
S315000047E0B3F840311A0512D4504BB3F84031DB040C
S315000047F000D408BD4E4BDB6A0BB10B2098474B4AE1
S31500004800B2F8303143F48053A2F8303108BD484B3A
S315000048109B6A0BB10A209847444AB2F8303143F4F8
S315000048200063A2F83031DFE7414B5B6A0BB1092028
S3150000483098473E4AB2F8303143F48063A2F83031EB
S31500004840CDE73B4B1B6A0BB108209847374AB2F8B5
S31500004850303143F40073A2F83031BBE7344BDB69E7
S315000048600BB107209847314AB2F8303143F48073D0
S31500004870A2F83031A9E72E4B1B680BB100209847F0
S315000048802A4AB2F8303143F08003A2F8303197E774
S31500004890274B5B6803B19847244AB2F8303143F09E
S315000048A04003A2F8303186E7214B9B690BB1062005
S315000048B098471E4AB2F8303143F01003A2F830315F
S315000048C072E71B4B5B690BB105209847174AB2F894
S315000048D0303143F00803A2F8303160E7144B1B690E
S315000048E00BB104209847114AB2F8303143F0040363
S315000048F0A2F830314DE70E4B9B680BB1022098476A
S315000049000A4AB2F8303143F00203A2F830313AE7EE
S31500004910074BDB680BB103209847044AB2F83031E5
S3150000492043F00103A2F8303127E700BF00600040E2
S315000049306C03FE1F0378452B20D8114AD35CFF2B4E
S3150000494005D090F801C0428813F0200001D0032062
S31500004950704710B503F01F010A4C9B0954F8234019
S31500004960EFF3108E012383F3108862448A1A934072
S315000049702268134323608EF3108810BD0120704710
S3150000498084870000CC8700000278452A30D81E4B69
S315000049909B5CFF2B35D010B590F801E0B0F802C053
S315000049A0980603F01F0115D4F444A1EB0C01012075
S315000049B088409B09154A52F82320EFF31081012302
S315000049C083F31088136823EA0003136081F31088C9
S315000049D0002010BD01242B2A04FA01F00AD0332A44
S315000049E0E7D1BEF1010F04BF01310EFA01F0E0E795
S315000049F001207047BCF1070FDBD9013104FA01F041
S31500004A00D7E70320704700BF84870000CC870000EB
S31500004A10A0F101000028FBD1704700BF10B501FBD3
S31500004A2000F4FFF7C9FD4FF47A72A4FB02CE4FF0F3
S31500004A30FF331149B1FBF0F063454FF0000171EB14
S31500004A400E0E07D3BCFBF0F0800878B1BDE810402D
S31500004A50FFF7DEBF8000B4FBF0F4A4FB0242A342E2
S31500004A6071EB020203D320460028EFD110BDBDE84A
S31500004A7010401846FFF7CCBF00CA9A3B002808DB57
S31500004A80800000F1804000F5C64003686FF31043D4
S31500004A90036070470B4A0C4B10B49B1A0B4CDB0897
S31500004AA0236063B10A4800219388C3F3090340F8E1
S31500004AB0043B236801318B4202F10802F4D85DF809
S31500004AC0044B704700050000080500009C03FE1F0C
S31500004AD00063004010B4134B1C68FCB1124B006815
S31500004AE01A680023043A02E00133A34216D052F8B2
S31500004AF0041F8842F8D10D4A12680121134402E0CE
S31500004B00C3E8401F58B1D3E84F2FD2B2002AF7D0DE
S31500004B10BFF32F8F08205DF8044B704703205DF824
S31500004B20044B7047A003FE1FA403FE1FA803FE1F2D
S31500004B3010B40B4B1C6884B10A4B00681A6800233A
S31500004B40043A02E00133A34207D052F8041F884218
S31500004B50F8D1054A12680021D1545DF8044B70471C
S31500004B60A003FE1FA403FE1FA803FE1FF0B5114DF0
S31500004B70114C1249124A134B134E0E60641BA408C3
S31500004B8015601C6084B105EB840EAC4600275CF80A
S31500004B90040B2A46002352F8041B884205D0013331
S31500004BA09C42F8D1F445F2D1F0BDF445F754EED16C
S31500004BB0FAE700BF08050000B8060000A803FE1FBC
S31500004BC0A403FE1FA003FE1F8002FE1FEFF3108149
S31500004BD0012383F31088124B33F8102092B22AB1C6
S31500004BE033F81020013A92B223F8102033F810302F
S31500004BF09BB293B910B40B4A0B4CB2F8FE3334F89F
S31500004C0010009BB243F4254323EA0003A2F8FE33C7
S31500004C1081F310885DF8044B704781F31088704764
S31500004C20AC03FE1F00E00140E087000030B4EFF364
S31500004C301081012383F310880E4A32F810309BB29C
S31500004C406BB90D4C0D4DB4F8FE3335F810C09BB260
S31500004C5043EA0C0343F425439BB2A4F8FE3332F82F
S31500004C60103001339BB222F8103081F3108830BC2B
S31500004C70704700BFAC03FE1F00E00140E087000064
S31500004C80024B00221A805A809A807047AC03FE1F9E
S31500004C9008B50B4A0346106840B10333094923F0AF
S31500004CA0030303448B4204D8136008BD0648106012
S31500004CB0F3E702F03DF90C2303604FF0FF3008BD27
S31500004CC0B403FE1FF017FE1FF007FE1F00BE70475D
S31500004CD008B500F005F800F065FAFEE7704700BF7A
S31500004CE0F8B5414AD2F8883043F47003C2F88830E8
S31500004CF000200446FFF7F2FFFFF728FD3B4B1B6839
S31500004D009847FFF7BDFFFFF709FC394A394B148076
S31500004D1039481B689847394A3948121A02D0214641
S31500004D2002F01AF9374A3848121A02D0374902F007
S31500004D3005F9374B37493848384A00244FF425459A
S31500004D409C801D809860DA60B1F8202192B201251E
S31500004D5042F48052A1F820219D80FFF72DFC304BB4
S31500004D60024628461A602F4DFFF7B8FF2E4B5B1BF5
S31500004D70A3424FEAA30605DD55F8043B01349847E4
S31500004D80A642F9DCFFF7F2FEFFF784FE274B284C1C
S31500004D901B682848284D9847D4E90001D4E9002328
S31500004DA0584002F0E1F8D4E900232449561845EBAF
S31500004DB00307C4E90067D4E9006786F01E4287F05E
S31500004DC07D4382F4120283F42D0382F4384283F485
S31500004DD0A44383F02B0382F03702C4E900230020AA
S31500004DE0BDE8F84000F02CB800ED00E0B88C0000FB
S31500004DF05003FE1FEC850000B8880000F007FE1F78
S31500004E003403FE1FEC02FE1FC001FE1F5C92000071
S31500004E10000D004000600040F017FE1FEF1FFE1F50
S31500004E20B803FE1F7802FE1F7C02FE1F508600009C
S31500004E302803FE1FE8870000E34FE6F41654E7A1B7
S31500004E4000F02CB882B04FF0C8429369D907FCD461
S31500004E5000210091009B536961F300035361936A3B
S31500004E604FF0200C6CF30F239362936A4FF0C0400F
S31500004E7043F0800393620368009340F6FF714FF09E
S31500004E80C842019104E0019B013B0193019B13B1D0
S31500004E90936A5B06F7D502B0704700BFF8B5684A5B
S31500004EA011684FF0C84400236FF38611102011607B
S31500004EB02063A36123626363C4F80438A26863F3C2
S31500004EC00402A2606369FF2043F00103636120616D
S31500004ED06369662143F0010363612161636901210E
S31500004EE00B4399226361226163690B43232063614B
S31500004EF0FFF794FD9F2323612269524BD2B21A70A9
S31500004F002169C9B259702069C0B298706569EF2AE3
S31500004F1045F00105656101D1402903D000221A80C0
S31500004F209A70F8BD1728F9D10521216125696269B2
S31500004F30352742F0010262612761434A20691070F9
S31500004F40606940F001006061A66A042060F3030610
S31500004F50A662666860F30306666050262661666987
S31500004F6046F00106666192F800C00126EDB24CF0EB
S31500004F70020C82F800C026612561157825616569F5
S31500004F80354365612061606930436061206861F383
S31500004F9002002060216120696069304360612761F9
S31500004FA0206910706269324362619B78182B3AD986
S31500004FB0062323616369B722334363612261636910
S31500004FC03343636121612269636943F001036361CD
S31500004FD0D307F7D4636A43F003036362636A062266
S31500004FE043F01003636222616269E92142F0010223
S31500004FF062612161626942F001024FF0C8430520F7
S31500005000626118611A69596912F0010241F00101E1
S315000050105961F6D1596A022060F301015962596A51
S3150000502062F3041159624FF0C844236843F0400309
S315000050302360FFF707FF63696FF300036361F8BD41
S3150000504000700440BC03FE1FC003FE1F00BE704775
S3150000505010B5084CD4E9011382B01B682068984744
S31500005060019008B902B010BD01A92046FFF7EEFF76
S3150000507002B010BDC001FE1F08B500F061F8FFF7D1
S31500005080E7FFBDE8084000F095B800BF30B5104C0A
S31500005090104D226889B00123D018B4214FF48062E4
S315000050A0CDE90433CDE902330691019220600A4A24
S315000050B00A490B480095002300F09CFB08B909B08B
S315000050C030BD0748002109B0BDE8304000F010B8F7
S315000050D0AC05FE1FF01FFE1F79500000F48700008C
S315000050E0C403FE1F704700BFFFF7FCBF704700BF39
S315000050F000BE70470E4A0F4970B500250E4E15705A
S3150000510004461C230D483560012200F001FB28B936
S31500005110FFF7BCFF2046FFF7E9FF70BD07482946A9
S31500005120FFF7E6FFFFF7B2FF2046FFF7DFFF70BD90
S315000051308C05FE1FA4880000AC05FE1F9005FE1F0F
S3150000514038B515484FF0FF3100F032FBF0B9134B7C
S315000051501A7802B138BD124C01221A70FFF7C4FF4B
S315000051602368013B2360002BF4D00B4D04E0236839
S31500005170013B2360002BEDD0284600F02FFB0028D2
S31500005180F5D000212846FFF7B3FFF0E702480021DB
S31500005190FFF7AEFFDBE700BF9005FE1F8C05FE1F85
S315000051A0AC05FE1F08B572B600F002FC002008BD73
S315000051B0704700BF08B5074B9A6818685368984748
S315000051C000B1FEE7142001F00FF8142001F00CF8EE
S315000051D0F8E700BFC001FE1F034678B10849094A37
S315000051E00968914208D1084AD2F89C21516802EB1D
S315000051F0810200201A607047122070470120704714
S315000052003003FE1F494D460000B07F4020B14FF0ED
S31500005210022303600020704701207047B0B10C4A9A
S315000052200C4B12689A420FD10B4BD3F89C315A683B
S3150000523000F1100103EB820353F8042F40F8042B0E
S315000052408842F9D10020704712207047012070472C
S315000052503003FE1F494D460000B07F4098B392B31D
S31500005260F0B51D4C1D4B24689C4201D01220F0BDA8
S315000052701B4B1C684CB31B4B05781B684FF0000C8E
S3150000528005E00CF1010CA44503F108031DD093F8C9
S3150000529006E0AE45F5D15E79B0F802E0BEEB960FBA
S315000052A0EFD1DE7990F801E006F007077745E8D1FF
S315000052B0B1EBD60FE5D182F800C09B88C3F3090392
S315000052C000205380F0BD01207047DF21FF231170BD
S315000052D053800B20F0BD00BF3003FE1F494D460032
S315000052E09C03FE1FDC8700001E4B1A689AB103F56B
S315000052F07F71002001E053F8042F8B421044FAD14D
S3150000530048B9194BD3F89C311A0CB2F5807F05D0F9
S3150000531000BE00BEFCE700BE00BEFCE71A68013A0C
S31500005320033208D8114A93F8241092F800C08C452D
S3150000533004D000BEFDE700BE00BEFCE7517893F83E
S3150000534025C06145F5D1917893F826C06145F0D125
S31500005350D27893F827309A42EBD1054B054A1A606A
S31500005360704700BFD08C000000B07F40F48C000076
S315000053703003FE1F494D4600002861D000295FD04A
S31500005380864A874B12689A4201D0122070472DE94F
S31500005390F041844D0278AC6805EB8404A3789A4208
S315000053A080F0C980170904EB870E02F00F0CBEF8D7
S315000053B0086026FA0CF818F0010F00F0BC8012F015
S315000053C0080F9EF80AE008D004EB870702F0070CE6
S315000053D0FA7A02F00F02360A9644734A12F80CC0A3
S315000053E0724A0CEA06061B09925D023372449B0060
S315000053F003EB4203E218E35A92F90160C3F309038F
S31500005400002E05EB83021DDB4678002E40F08F80D0
S315000054106668D4784088C4F303144C72D478C4F315
S3150000542003048C7201248C80002833D135F8234084
S315000054309378CB8006EB04260E600872C86078E08D
S315000054400120704715F8233044785B082CBB032BEA
S3150000545079D059D873D0D4784088C4F303144C72E9
S31500005460D478C4F303048C7214798C80A04211D2D0
S31500005470D6889568012B00FB06550D6000F08580E7
S31500005480022B73D0B2F80150CD8000230B72CB6093
S31500005490002D56D140F27A504BE002254FF0010C18
S315000054A04FF0040E1678F60704F1FF343FD5052BAE
S315000054B072D8DFE803F003231914120A0C231A44E6
S315000054C013785B08002CEDD1C1E79378DE1C15FB41
S315000054D003C303EB96039B00F1E70823EFE79378FA
S315000054E01EFB03C39B00EAE71679937813FB06F3CA
S315000054F00333033603EB96039B00E0E7137903338C
S3150000550003F4FE730C33DAE7042B18D1D078547801
S3150000551052680A60C0F303038B720023C0F30312C0
S315000055208B800B72CB60A3074A72CC8009D440F201
S315000055307950BDE8F0814FF4AF60BDE8F08164209A
S31500005540F7E70020F5E7D07854780346C3F3030362
S31500005550C0F30310042548728B72002093788B8069
S315000055602A440D72CC800860CA60E2E7131803343F
S315000055701D7B93780B7200FB03F3033303EB940458
S3150000558002EB8402CD80CA6082E702440023157BC9
S31500005590CD800B72CB607BE7002390E73003FE1FC4
S315000055A0494D4600D08C0000B08C0000308C0000C5
S315000055B008B1342B01D01C2070472DE9F0410F466D
S315000055C016468046EFF3108172B61F4A1368013300
S315000055D0136081F310881D4B1C681D4B1D684DB16F
S315000055E0A04207D0002301E0A04503D00133AB421F
S315000055F0246AF9D1EFF3108172B61368013B136088
S3150000560081F3108800F020FEA04503D0012E04D9B6
S315000056101F2000E01C20BDE8F081EFF305820D4B52
S3150000562019680A4306D0EFF305821B681343B3F1EA
S31500005630F03F06D3324639464046BDE8F04100F019
S31500005640DFB91320E7E700BF0006FE1FD005FE1FE7
S31500005650CC05FE1F0802FE1F18B1084A03689342D4
S3150000566001D01C207047EFF30583054A12681343E7
S3150000567001D01320704700F0F3B900BF4554554DD3
S315000056800802FE1F18B1124B02689A4201D01C2074
S31500005690704710B481B90F4BEFF305821C682243A3
S315000056A006D0EFF305821B681343B3F1F03F0DD329
S315000056B05DF8044B00F02EBAEFF30582054B1C682B
S315000056C02243E9D004205DF8044B70471320FAE723
S315000056D04554554D0802FE1F18B10B4B02689A42FD
S315000056E001D01C207047EFF30583084A11680B436D
S315000056F006D0EFF3058113680B43B3F1F03F01D3F6
S3150000570000F0E2BA132070474554554D0802FE1FBB
S3150000571008B11C2B01D00C2070472DE9F0410F4633
S3150000572016468046EFF3108172B61D4A13680133A0
S31500005730136081F310881B4B1C681B4B1D684DB111
S31500005740A04207D0002301E0A04503D00133AB42BD
S315000057506469F9D1EFF3108172B61368013B1360E7
S3150000576081F3108800F070FDA04513D0EFF3058299
S315000057700E4B19680A4306D0EFF305821B681343E4
S31500005780B3F1F03F09D3324639464046BDE8F04111
S3150000579000F09EBB0C20BDE8F0811320FBE700BFA4
S315000057A00006FE1FE005FE1FDC05FE1F0802FE1FA9
S315000057B018B1084B02689A4201D00C20704729B1F3
S315000057C0EFF30583044A1268134301D100F0AABB24
S315000057D004207047414D45530802FE1F18B1044A84
S315000057E00368934201D00C20704700F0DDBB00BF78
S315000057F0414D45532DE9F04F85B09A46119B0193D3
S31500005800129B0393139B0293DDE90F890E9D149B54
S3150000581008B1B42B03D00E2005B0BDE8F08F8B463F
S3150000582017460646EFF3108272B6DFF810C1DCF8B1
S3150000583000300133CCF8003082F310883C4B1A68F4
S315000058403C4B08F1FF301C682844DAB1A64219D057
S3150000585000230097D4F80CE0AE454FF0000106D8BF
S315000058602769AF424FF001018CBF00250021864514
